:020000040000FA
:100000000C94E1000C9409010C9409010C94090171
:100010000C9409010C9409010C9409010C94090138
:100020000C9409010C9409010C9409010C94090128
:100030000C9409010C9409010C9409010C94090118
:100040000C9482050C9409010C94F2050C94CC05D7
:100050000C9409010C9409010C9409010C940901F8
:100060000C9424060C940901493243204641554C16
:10007000543A2063757420736572766F20706F77C1
:10008000657220616E6420636865636B20776972B6
:10009000696E673B20726573657420746F207265AA
:1000A0007472792E005245414459206C696D69740F
:1000B0002074657374202D206F75747075747320AF
:1000C0004F46462E20557365204E65776C696E65E8
:1000D0002E00207573002070756C736520002074ED
:1000E000617267657420706F736974696F6E200048
:1000F0004368616E6E656C200052656A6563746565
:10010000643A206F75747369646520796F75722025
:100110007265636F72646564206C696D6974732EB7
:100120000052656A65637465643A20706F73697420
:10013000696F6E20746F6F206C617267652E004F5F
:10014000464600546172676574207369676E616C1E
:1001500020726561636865643B20686F6C64696EDA
:10016000672E2053656E64207A65726F20746F204D
:1001700072656C656173652E000000000025002823
:10018000002B00040404040404040402020202021A
:10019000020303030303030102040810204080014B
:1001A00002040810200102040810200000000800CA
:1001B000020100000304070000000000000000002E
:1001C000C10711241FBECFEFD8E0DEBFCDBF11E0C5
:1001D000A0E0B1E0E8E8F5E102C005900D92AA3494
:1001E000B107D9F722E0AAE4B1E001C01D92A03D19
:1001F000B207E1F710E0C1EED0E004C02197FE01A4
:100200000E94AD0AC03ED107C9F70E94FA070C94BC
:10021000C20A0C94000090E0FC01E555FE4F2491C9
:10022000FC01E956FE4F3491FC01ED57FE4FE4917D
:10023000EE23C9F0222339F0233001F1A8F4213054
:1002400019F1223029F1F0E0EE0FFF1FE758FE4FC1
:10025000A591B4918FB7F894EC91611126C03095B7
:100260003E233C938FBF08952730A9F02830C9F072
:10027000243049F7809180008F7D03C080918000F9
:100280008F7780938000DFCF84B58F7784BDDBCFFD
:1002900084B58F7DFBCF8091B0008F778093B000C5
:1002A000D2CF8091B0008F7DF9CF3E2BDACF3FB710
:1002B000F8948091D3019091D401A091D501B0918F
:1002C000D60126B5A89B05C02F3F19F00196A11DA8
:1002D000B11D3FBFBA2FA92F982F8827BC01CD0190
:1002E000620F711D811D911D42E0660F771F881FEF
:1002F000991F4A95D1F7089508950895AF92BF9236
:10030000CF92DF92EF92FF920F931F93CF93DF93E1
:100310006C017B018B01040F151FEB015E01AE1810
:10032000BF08C017D10759F06991D601ED91FC9132
:100330000190F081E02DC6010995892B79F7C5015F
:10034000DF91CF911F910F91FF90EF90DF90CF90B1
:10035000BF90AF900895FC01538D448D252F30E060
:10036000842F90E0821B930B541710F0CF960895C2
:1003700001970895FC01918D828D981761F0A28DEF
:10038000AE0FBF2FB11D5D968C91928D9F5F9F73B5
:10039000928F90E008958FEF9FEF0895FC01918D6B
:1003A000828D981731F0828DE80FF11D858D90E0D8
:1003B00008958FEF9FEF0895FC01918D228D892F75
:1003C00090E0805C9F4F821B91098F73992708955D
:1003D00087E292E00E94DC0121E0892B09F420E011
:1003E000822F089580E090E0892B29F00E94E80197
:1003F00081110C9400000895FC01A48DA80FB92F61
:10040000B11DA35ABF4F2C91848D90E001968F733C
:100410009927848FA689B7892C93A089B1898C915B
:10042000837080648C93938D848D981306C00288AA
:10043000F389E02D80818F7D80830895EF92FF9274
:100440000F931F93CF93DF93EC0181E0888F9B8DF7
:100450008C8D98131AC0E889F989808185FF15C0B1
:100460009FB7F894EE89FF896083E889F9898081D4
:100470008370806480839FBF81E090E0DF91CF91A3
:100480001F910F91FF90EF900895F62E0B8D10E0C5
:100490000F5F1F4F0F731127E02E8C8D8E110CC034
:1004A0000FB607FCFACFE889F989808185FFF5CF7F
:1004B000CE010E94FC01F1CFEB8DEC0FFD2FF11D61
:1004C000E35AFF4FF0829FB7F8940B8FEA89FB89BC
:1004D00080818062CFCF0F931F93CF93DF938C01E6
:1004E000D0E0C0E0F801EC0FFD1F6491662341F0FD
:1004F00087E292E00E941E02892B11F02196F2CF32
:10050000CE01DF91CF911F910F910895CF93DF938B
:10051000EC01888D8823B9F0AA89BB89E889F9891B
:100520008C9185FD03C0808186FD0DC00FB607FC50
:10053000F7CF8C9185FFF2CF808185FFEDCFCE0183
:100540000E94FC01E9CFDF91CF91089520918C01A9
:10055000260F3327331F21323105ECF42091FD01A2
:10056000FC0190E080E0243069F082E00895A091E1
:100570008C012191AC0144595E4FA40FB52FB11DE0
:100580002C930196861798F380918C01680F6093E5
:100590008C0180E0089581E008951092FD0181E0D2
:1005A0008093FC011092D70161E082E10E940B016F
:1005B00061E083E10E940B01E9EBF0E080818E7F36
:1005C000808380818D7F808388E48093B80085E478
:1005D0008093BC000895CF93DF9391E09093B50191
:1005E0008823B9F0C091B800D091BA008091BC00C6
:1005F0008A7B8093BC0060E082E10E940B0160E096
:1006000083E10E940B010E94CD02D093BA00C093F7
:10061000B800DF91CF910895CF92DF92EF92FF92D1
:100620000F931F93CF93DF93D091260281E0D132B5
:1006300008F09CC0C09125020E9457016B017C010B
:100640008091FD0181116CC082E08093FD0181E009
:100650008093FC018FEF8093FB011092FA01D093FD
:10066000F901A5E0B2E0E9EDF1E080E0D8138DC03A
:100670001092D8018091D801CC0FC82BC093D8011B
:100680008091D701813009F084C01092D7010E9477
:1006900057016B017C018091D8018093BB00809150
:1006A000FF0190910002A0910102B0910202892BFA
:1006B0008A2B8B2BA1F00E9457010091FF01109112
:1006C000000220910102309102026C197D098E090D
:1006D0009F09061717072807390708F442C08091B9
:1006E000BC0083FDD8CF85EC8093BC000E945701ED
:1006F0006B017C018091FD01823009F44CC0809136
:10070000FB018F3F09F469C08091FB01803209F43D
:1007100066C08091FB01803309F463C084E026C089
:100720008091FF0190910002A0910102B09102021C
:10073000892B8A2B8B2B09F483CF0E9457010091C0
:10074000FF011091000220910102309102026C1908
:100750007D098E099F09061717072807390708F032
:100760006FCF8091FE010E94EB0285E0109204029F
:100770001092260210920302DF91CF911F910F91E8
:10078000FF90EF90DF90CF9008959D9191938F5FB0
:100790006DCF85EEA9CF8091FF0190910002A091CD
:1007A0000102B0910202892B8A2B8B2B09F4A2CF74
:1007B0000E9457010091FF01109100022091010257
:1007C000309102026C197D098E099F0906171707DF
:1007D0002807390708F08ECFC4CF80E0C7CF82E06A
:1007E000C5CF83E0C3CF0895E091B4018091B301F8
:1007F000E81730F4F0E0E45BFE4F808190E008956C
:100800008FEF9FEF08959091B4018091B3012FEF86
:100810003FEF981748F4E92FF0E0E45BFE4F2081AA
:1008200030E09F5F9093B401C90108958091B301B6
:100830009091B401891B990B0895CF92DF92EF92AA
:10084000FF920F931F93CF93DF937C01CB018A011B
:1008500020910302222389F0EB016B01C40ED51E07
:10086000CC15DD0569F06991D701ED91FC910190FE
:10087000F081E02DC7010995F3CF642F0E94A602F5
:10088000C801DF91CF911F910F91FF90EF90DF9002
:10089000CF900895CF93DF931F92CDB7DEB76983D2
:1008A000209103022223F9F020912602203258F0F1
:1008B00021E030E0FC013383228390E080E00F9060
:1008C000DF91CF91089580910402E82FF0E0EB5F73
:1008D000FD4F998190838F5F80930402809326025D
:1008E00081E090E0ECCF61E0CE0101960E94A6028B
:1008F000F7CF90E080E00895CF93DF93D62FC72FF6
:1009000091E09093030290E49093250210920402E8
:100910001092260294E0899FB00111246A5F7F4FF4
:1009200084EC92E00E944A0460E084EC92E00E9431
:100930004A0460E084EC92E00E944A046D2F84EC4B
:1009400092E00E944A046C2F84EC92E00E944A04D8
:100950000E940C0391E0811190E0892FDF91CF91EB
:100960000895CF93DF938FEF9FEF909305018093CE
:1009700004011092BA0110924B0110924A01C0E09A
:10098000D1E060E070E18C2F0E947C04811101C0F5
:10099000D0E0CF5FC031A9F78D2FDF91CF910895BF
:1009A000CF93C62F91E09093030290E49093250299
:1009B0001092040210922602682F84EC92E00E94AA
:1009C0004A046C2F84EC92E00E944A040E940C03BB
:1009D00091E0811190E0892FCF910895CF93DF931B
:1009E0000E946B02EC0142E050E066E471E087E2B5
:1009F00092E00E947E018C0F9D1FDF91CF910895A0
:100A00001092BB010E94B10488E690E00C94EE04C1
:100A1000CF92DF92EF92FF92CF936091020170919B
:100A20000301072E000C880B990B2CE0660F771F33
:100A3000881F991F2A95D1F7605F784D8F4F9F4F80
:100A400020E23EE440E050E00E94650A80914A01C5
:100A500090914B01C1E08217930781F06901E09109
:100A60000401F0910501EA5FFE4FB90180810E9407
:100A70007C04C82F811109C00E9400058C2FCF91E2
:100A8000FF90EF90DF90CF900895D0924B01C092ED
:100A90004A01F4CF85ED8093BC008091FF019091D5
:100AA0000002A0910102B09102020796A11DB11DA2
:100AB00023E0B695A795979587952A95D1F720912C
:100AC000BC0024FD03C01092FD0108954091FF0178
:100AD000509100026091010270910202452B462B59
:100AE000472B69F30097A105B10541F02AE22A9549
:100AF000F1F700C00197A109B109E1CF8091FE0192
:100B00000C94EB021F920F920FB60F9211242F93A9
:100B10003F938F939F93AF93BF938091CF01909119
:100B2000D001A091D101B091D2013091CE0123E04A
:100B3000230F2D3758F50196A11DB11D2093CE012D
:100B40008093CF019093D001A093D101B093D201B3
:100B50008091D3019091D401A091D501B091D6019B
:100B60000196A11DB11D8093D3019093D401A09350
:100B7000D501B093D601BF91AF919F918F913F91D5
:100B80002F910F900FBE0F901F90189526E8230FFE
:100B90000296A11DB11DD2CF1F920F920FB60F92D8
:100BA00011242F933F934F935F936F937F938F9372
:100BB0009F93AF93BF93EF93FF9387E292E00E94DE
:100BC000FC01FF91EF91BF91AF919F918F917F9128
:100BD0006F915F914F913F912F910F900FBE0F90AA
:100BE0001F9018951F920F920FB60F9211242F93FA
:100BF0008F939F93EF93FF93E0913702F091380228
:100C00008081E0913D02F0913E0282FD1BC0908107
:100C1000809140028F5F8F7320914102821741F0D3
:100C2000E0914002F0E0E95DFD4F958F8093400236
:100C3000FF91EF919F918F912F910F900FBE0F9089
:100C40001F9018958081F4CF1F920F920FB60F92CC
:100C500011242F933F934F935F936F937F938F93C1
:100C60009F93AF93BF93EF93FF938091B900887FD9
:100C7000803609F44AC0F0F5883209F4A7C018F5A7
:100C8000803109F49BC0B8F4882309F4F9C0883096
:100C900009F494C0FF91EF91BF91AF919F918F9113
:100CA0007F916F915F914F913F912F910F900FBE68
:100CB0000F901F901895883109F488C0803251F741
:100CC0008093FB0114C0803409F49DC040F480334C
:100CD000B9F38833F9F68093FB0185ECB0C0803519
:100CE00009F485C0883509F496C0883499F60E94C5
:100CF0004A05D0CF883909F48CC038F5883729F0F7
:100D000050F4883611F0803729F683E08093FD0196
:100D10001092AE0157C0883809F47BC0803919F0B1
:100D2000803809F0B7CF8091AE01803208F071C0F1
:100D3000E091AE0181E08E0F8093AE018091BB0007
:100D4000F0E0E257FE4F80833DC0803B39F0E0F495
:100D5000803A09F479C0883A09F09CCF84E0809306
:100D6000FD0110928D0110928C01E091B101F09182
:100D7000B201099580918C0181110FC081E08093AF
:100D80008C0110926C0109C0803C09F4A6CF883C0C
:100D900009F4A3CF883B09F07DCFE0918D0181E07C
:100DA0008E0F80938D01F0E0E459FE4F8081809397
:100DB000BB0090918D0180918C0129C08091D80158
:100DC0008093BB0085EC8093BC0064CF9091FA01C6
:100DD0008091F901981758F5E091FA0181E08E0FA2
:100DE0008093FA01F0E0E752FE4F8081E9CFE09175
:100DF000FA0181E08E0F8093FA018091BB00F0E050
:100E0000E752FE4F80839091FA018091F901981783
:100E1000C8F285E8D8CFE091FA0181E08E0F809387
:100E2000FA018091BB00F0E0E752FE4F8083809191
:100E3000FC0181115CCF81E08093D70184EA80932B
:100E4000BC001092FD0126CF85EC8093BC0010926F
:100E5000FD018091AE01803230F4E091AE01F0E00E
:100E6000E257FE4F10826091AE0170E0E091AF0159
:100E7000F091B0018EE891E009951092AE010ACF91
:100E80001092FB0134CF8F929F92AF92BF920F933B
:100E90001F93CF93DF93CDB7DEB7A1970FB6F8942A
:100EA000DEBF0FBECDBF19A2423008F44AE08E016A
:100EB0000F5D1F4F842E912CB12CA12CA501940104
:100EC0000E94650AE62FB901CA01EA3044F5E05DE7
:100ED000D801EE938D01232B242B252B79F790E05D
:100EE00080E0109769F0FD0101900020E9F731974B
:100EF000AF014A1B5B0BBD0187E292E00E947E01BD
:100F0000A1960FB6F894DEBF0FBECDBFDF91CF9193
:100F10001F910F91BF90AF909F908F900895E95CC3
:100F2000D7CFCF92DF92EF92FF92CF93DF936C01F6
:100F3000990FEE08FF08F7FE19C06DE287E292E014
:100F40000E941E02EC0166277727CB016C197D09F0
:100F50008E099F094AE00E9443078C0F9D1FDF9175
:100F6000CF91FF90EF90DF90CF9008954AE0C701B6
:100F7000B601DF91CF91FF90EF90DF90CF900C946E
:100F80004307E7E2F2E01382128288EE93E0A0E0EA
:100F9000B0E084839583A683B78326E231E0318372
:100FA000208325EC30E03587248724EC30E0378738
:100FB000268720EC30E0318B208B21EC30E0338B26
:100FC000228B22EC30E0358B248B26EC30E0378B03
:100FD000268B118E128E138E148EE4ECF2E01382A7
:100FE000128284839583A683B78388E391E09183FB
:100FF00080830895789484B5826084BD84B58160CF
:1010000084BD85B5826085BD85B5816085BD8091D3
:101010006E00816080936E0010928100809181004B
:101020008260809381008091810081608093810043
:10103000809180008160809380008091B100846005
:101040008093B1008091B00081608093B000809166
:101050007A00846080937A0080917A008260809325
:101060007A0080917A00816080937A0080917A0082
:10107000806880937A001092C100E0913702F0916D
:10108000380282E08083E0913302F09134021082D2
:10109000E0913502F091360280E1808310923F02A8
:1010A000E0913B02F0913C0286E08083E0913902BE
:1010B000F0913A02808180618083E0913902F09161
:1010C0003A02808188608083E0913902F0913A028F
:1010D000808180688083E0913902F0913A028081BA
:1010E0008F7D80831092B4011092B301109204029C
:1010F000109226020E94CD028CE791E09093B201FB
:101100008093B1018DE791E09093B0018093AF019E
:101110001092B50188EA91E6A0E0B0E08093FF016B
:1011200090930002A0930102B093020281E08093A9
:10113000FE010E94B10481113AC00E9400059AE0AC
:10114000692E24EB822E912CA12CB12C30E0C32EE1
:1011500030E0D32E7724739487E292E00E94DC0182
:10116000892B09F43DC187E292E00E94BA012091E7
:10117000CC018D3019F08A3009F020C1211112C044
:101180009091CD01992371F0913009F062C0809166
:10119000BC01803309F05DC00E94B104811154C0CC
:1011A0000E9400051092CD011092CC01D5CF60E1D4
:1011B00080E00E94D004882309F4BFCF69E78EEF56
:1011C0000E94D004882309F4B8CF60E280E00E9436
:1011D000D004882309F4B1CF0E9457014B015C0170
:1011E00045E0C42ED12CE12CF12C0E945701681946
:1011F00079098A099B09683E734081059105A8F326
:1012000001E0C01AD108E108F10818EE810E13E0E0
:10121000911EA11CB11CC114D104E104F10429F7F1
:1012200060EA80E00E94D004882309F486CF0E94FF
:10123000B104882309F481CF81E08093BB0185EA62
:1012400090E00E94EE047BCF8FE391E00E94EE04D9
:10125000A9CF4091BB01442309F4A4CF933008F4F3
:10126000A1CFC091BC01C153C43008F09BCF809185
:10127000BD01803209F096CFEEEBF1E082E03191D2
:10128000303219F48F5F9813FACFE82FF0E0E4546E
:10129000FE4F10E000E0891780F4519130ED350FDA
:1012A0003A3038F1E82FF0E0E454FE4F319130321B
:1012B00009F078CF8F5F8917C8F3222309F472CF22
:1012C000981370CFD0E07E01EE0CFF1CF701E65EB4
:1012D000FE4F808191810817190744F0F701EE5EF7
:1012E000FE4F8081918180179107C4F489EF90E0CF
:1012F000ADCF8F5F609E9001619E300D11248901FA
:10130000050F111D57FD1A9500531109242F053B98
:1013100011050CF4C0CF81E291E098CF80910401D7
:1013200090910501C817D90791F520E931E0D8015E
:101330000E94A60AA50194010E94870A2C5E3A4FDA
:1013400030930101209300017092BA0180EF90E088
:101350000E946B02CA5FDE4F688170E090E080E01F
:101360004AE00E9443078EED90E00E946B02C801A4
:101370000E94910786ED90E00E946B02809100012F
:10138000909101010E94910782ED90E05FCF0E9451
:10139000B104882309F404CFD0930501C09304015C
:1013A000F701E65FFE4F8081918190930301809366
:1013B00002010E9408058111B8CFF4CE2111CCCED4
:1013C000E091CD01E03148F491E09E0F9093CD0182
:1013D000F0E0E454FE4F8083BFCE7092CC01BCCECF
:1013E0008091BB01882309F464C08091040190912D
:1013F000050197FD5EC08091BA01882309F459C0A8
:101400002FB7F8948091CF019091D001A091D10194
:10141000B091D2012FBF4091B6015091B7016091B8
:10142000B8017091B9018C019D01041B150B260BAD
:10143000370BB901A8014431510561057105C8F1A7
:101440008093B6019093B701A093B801B093B9010E
:1014500080910201909103012091000130910101DE
:101460008217930734F40296281739074CF4C90100
:1014700007C02817390744F4029782179307BCF373
:1014800090930301809302010E940805882389F04C
:10149000209102013091030180910001909101019E
:1014A0002817390731F41092BA0183E491E00E94C1
:1014B000EE04C114D10409F44FCE0E94E801882340
:1014C00009F44ACE0E94000047CEA1E21A2EAA1BC0
:1014D000BB1BFD010DC0AA1FBB1FEE1FFF1FA217E4
:1014E000B307E407F50720F0A21BB30BE40BF50BE1
:1014F000661F771F881F991F1A9469F7609570956A
:10150000809590959B01AC01BD01CF010895052EFA
:1015100097FB1EF400940E949E0A57FD07D00E947C
:10152000650A07FC03D04EF40C949E0A5095409532
:10153000309521953F4F4F4F5F4F0895909580957F
:10154000709561957F4F8F4F9F4F08950E94B30A0A
:10155000B7FF0895821B930B0895EE0FFF1F0590B0
:10156000F491E02D0994A29FB001B39FC001A39F05
:10157000700D811D1124911DB29F700D811D1124CC
:10158000911D0895F894FFCFDC05DC05FFFF0809E5
:101590000C0DDC056C05DC05C5058C0078007800B9
:1015A00078001400000014001400000000001E0267
:1015B0007E01AB018602DC01BA01CE010000000011
:1015C0004A041D047904F30316040304F4030D0A0A
:0215D000000019
:107E0000112484B714BE81FFF0D085E080938100F7
:107E100082E08093C00088E18093C10086E0809377
:107E2000C20080E18093C4008EE0C9D0259A86E02C
:107E300020E33CEF91E0309385002093840096BBD3
:107E4000B09BFECF1D9AA8958150A9F7CC24DD24C4
:107E500088248394B5E0AB2EA1E19A2EF3E0BF2EE7
:107E6000A2D0813461F49FD0082FAFD0023811F036
:107E7000013811F484E001C083E08DD089C08234E0
:107E800011F484E103C0853419F485E0A6D080C0E4
:107E9000853579F488D0E82EFF2485D0082F10E0AE
:107EA000102F00270E291F29000F111F8ED06801E7
:107EB0006FC0863521F484E090D080E0DECF843638
:107EC00009F040C070D06FD0082F6DD080E0C81688
:107ED00080E7D80618F4F601B7BEE895C0E0D1E017
:107EE00062D089930C17E1F7F0E0CF16F0E7DF06D8
:107EF00018F0F601B7BEE89568D007B600FCFDCFD4
:107F0000A601A0E0B1E02C9130E011968C91119780
:107F100090E0982F8827822B932B1296FA010C0160
:107F200087BEE89511244E5F5F4FF1E0A038BF0790
:107F300051F7F601A7BEE89507B600FCFDCF97BE46
:107F4000E89526C08437B1F42ED02DD0F82E2BD052
:107F50003CD0F601EF2C8F010F5F1F4F84911BD097
:107F6000EA94F801C1F70894C11CD11CFA94CF0C13
:107F7000D11C0EC0853739F428D08EE10CD085E9AC
:107F80000AD08FE07ACF813511F488E018D01DD067
:107F900080E101D065CF982F8091C00085FFFCCF94
:107FA0009093C60008958091C00087FFFCCF809118
:107FB000C00084FD01C0A8958091C6000895E0E648
:107FC000F0E098E1908380830895EDDF803219F02E
:107FD00088E0F5DFFFCF84E1DECF1F93182FE3DFCA
:107FE0001150E9F7F2DF1F91089580E0E8DFEE27F6
:047FF000FF270994CA
:027FFE00040479
:00000001FF
