:100000000C94CC000C94F4000C94F4000C94F400C8
:100010000C94F4000C94F4000C94F4000C94F40090
:100020000C94F4000C94F4000C94F4000C94F40080
:100030000C94F4000C94F4000C94F4000C94F40070
:100040000C9437070C94F4000C94A7070C948107C8
:100050000C94F4000C94F4000C94F4000C94F40050
:100060000C94D9070C94F400493243204641554C76
:10007000543A2063757420736572766F20706F77C1
:10008000657220616E6420636865636B205643432C
:100090002F474E442F5344412F53434C2E0073653A
:1000A00072766F2C6368616E6E656C2C6F70656E16
:1000B0005F75732C6E65757472616C5F75732C63FC
:1000C0006C6F7365645F75730020757300207075C5
:1000D0006C7365200020706F736974696F6E200007
:1000E00020434800207573002073617665642061A9
:1000F0007420004F4646004D6F7665203120393020
:10010000207C20536176652031204F2F4E2F4320D5
:100110007C205072696E742050207C204F666620CF
:1001200030005245414459206579656C696420630B
:10013000616C6962726174696F6E204348342D3757
:10014000202D206F757470757473204F4646000023
:10015000000000250028002B00040404040404040B
:100160000402020202020203030303030301020466
:100170000810204080010204081020010204081029
:100180002000000008000201000003040700000036
:10019000000000000000F80811241FBECFEFD8E0D7
:1001A000DEBFCDBF11E0A0E0B1E0ECEAF6E102C0B5
:1001B00005900D92A638B107D9F723E0A6E8B1E083
:1001C00001C01D92A132B207E1F710E0CCECD0E003
:1001D00004C02197FE010E943F0BCB3CD107C9F719
:1001E0000E9431090C94540B0C94000090E0FC0127
:1001F000EF57FE4F2491FC01E359FE4F3491FC016F
:10020000E75AFE4FE491EE23C9F0222339F0233060
:1002100001F1A8F4213019F1223029F1F0E0EE0FBC
:10022000FF1FE15BFE4FA591B4918FB7F894EC915D
:10023000611126C030953E233C938FBF089527302F
:10024000A9F02830C9F0243049F7809180008F7DD3
:1002500003C0809180008F7780938000DFCF84B5CA
:100260008F7784BDDBCF84B58F7DFBCF8091B000CD
:100270008F778093B000D2CF8091B0008F7DF9CF7F
:100280003E2BDACF3FB7F89480912402909125025B
:10029000A0912602B091270226B5A89B05C02F3F4A
:1002A00019F00196A11DB11D3FBFBA2FA92F982F9C
:1002B0008827BC01CD01620F711D811D911D42E097
:1002C000660F771F881F991F4A95D1F708950895E3
:1002D0000895AF92BF92CF92DF92EF92FF920F9369
:1002E0001F93CF93DF936C017B018B01040F151FCC
:1002F000EB015E01AE18BF08C017D10759F0699134
:10030000D601ED91FC910190F081E02DC601099597
:10031000892B79F7C501DF91CF911F910F91FF9044
:10032000EF90DF90CF90BF90AF900895FC01538D78
:10033000448D252F30E0842F90E0821B930B5417BF
:1003400010F0CF96089501970895FC01918D828D4C
:10035000981761F0A28DAE0FBF2FB11D5D968C91E5
:10036000928D9F5F9F73928F90E008958FEF9FEF24
:100370000895FC01918D828D981731F0828DE80FE0
:10038000F11D858D90E008958FEF9FEF0895FC019A
:10039000918D228D892F90E0805C9F4F821B910967
:1003A0008F739927089588E792E00E94C70121E0A2
:1003B000892B09F420E0822F089580E090E0892BBA
:1003C00029F00E94D30181110C9400000895FC01D2
:1003D000A48DA80FB92FB11DA35ABF4F2C91848DA6
:1003E00090E001968F739927848FA689B7892C9303
:1003F000A089B1898C91837080648C93938D848D56
:10040000981306C00288F389E02D80818F7D808358
:100410000895EF92FF920F931F93CF93DF93EC0118
:1004200081E0888F9B8D8C8D98131AC0E889F9899B
:10043000808185FF15C09FB7F894EE89FF8960839E
:10044000E889F98980818370806480839FBF81E01F
:1004500090E0DF91CF911F910F91FF90EF90089561
:10046000F62E0B8D10E00F5F1F4F0F731127E02E3C
:100470008C8D8E110CC00FB607FCFACFE889F98974
:10048000808185FFF5CFCE010E94E701F1CFEB8D92
:10049000EC0FFD2FF11DE35AFF4FF0829FB7F89448
:1004A0000B8FEA89FB8980818062CFCF682F88E734
:1004B00092E00C9409020F931F93CF93DF938C016A
:1004C000D0E0C0E0F801EC0FFD1F6491662341F01D
:1004D00088E792E00E940902892B11F02196F2CF61
:1004E000CE01DF91CF911F910F910895CF93DF93AC
:1004F000EC01888D8823B9F0AA89BB89E889F9893C
:100500008C9185FD03C0808186FD0DC00FB607FC70
:10051000F7CF8C9185FFF2CF808185FFEDCFCE01A3
:100520000E94E701E9CFDF91CF9108952091C601A4
:10053000260F3327331F21323105ECF420914E0270
:10054000FC0190E080E0243069F082E00895A09101
:10055000C6012191AC014A555E4FA40FB52FB11DC4
:100560002C930196861798F38091C601680F6093CB
:10057000C60180E0089581E0089510924E0281E066
:1005800080934D021092280261E082E10E94F60001
:1005900061E083E10E94F600E9EBF0E080818E7F6C
:1005A000808380818D7F808388E48093B80085E498
:1005B0008093BC000895CF93DF9391E09093EF0177
:1005C0008823B9F0C091B800D091BA008091BC00E6
:1005D0008A7B8093BC0060E082E10E94F60060E0CC
:1005E00083E10E94F6000E94BD02D093BA00C0933E
:1005F000B800DF91CF910895CF92DF92EF92FF92F2
:100600000F931F93CF93DF93D091770281E0D13284
:1006100008F09CC0C09176020E9442016B017C01EF
:1006200080914E0281116CC082E080934E0281E085
:1006300080934D028FEF80934C0210924B02D09327
:100640004A02A6E5B2E0EAE2F2E080E0D8138DC00B
:100650001092290280912902CC0FC82BC093290245
:1006600080912802813009F084C0109228020E94F3
:1006700042016B017C01809129028093BB00809133
:10068000500290915102A0915202B0915302892BD5
:100690008A2B8B2BA1F00E944201009150021091F5
:1006A000510220915202309153026C197D098E093A
:1006B0009F09061717072807390708F442C08091D9
:1006C000BC0083FDD8CF85EC8093BC000E94420122
:1006D0006B017C0180914E02823009F44CC0809104
:1006E0004C028F3F09F469C080914C02803209F4BA
:1006F00066C080914C02803309F463C084E026C058
:100700008091500290915102A0915202B0915302F7
:10071000892B8A2B8B2B09F483CF0E9442010091F5
:1007200050021091510220915202309153026C19E3
:100730007D098E099F09061717072807390708F052
:100740006FCF80914F020E94DB0285E0109255022C
:100750001092770210925402DF91CF911F910F9166
:10076000FF90EF90DF90CF9008959D9191938F5FD0
:100770006DCF85EEA9CF8091500290915102A0914A
:100780005202B0915302892B8A2B8B2B09F4A2CFF2
:100790000E94420100915002109151022091520298
:1007A000309153026C197D098E099F0906171707AE
:1007B0002807390708F08ECFC4CF80E0C7CF82E08A
:1007C000C5CF83E0C3CF0895E091EE018091ED01A4
:1007D000E81730F4F0E0EA57FE4F808190E008958A
:1007E0008FEF9FEF08959091EE018091ED012FEF33
:1007F0003FEF981748F4E92FF0E0EA57FE4F2081C9
:1008000030E09F5F9093EE01C90108958091ED0162
:100810009091EE01891B990B0895CF92DF92EF9290
:10082000FF920F931F93CF93DF937C01CB018A013B
:1008300020915402222389F0EB016B01C40ED51ED6
:10084000CC15DD0569F06991D701ED91FC9101901E
:10085000F081E02DC7010995F3CF642F0E94960225
:10086000C801DF91CF911F910F91FF90EF90DF9022
:10087000CF900895CF93DF931F92CDB7DEB76983F2
:10088000209154022223F9F020917702203258F06F
:1008900021E030E0FC013383228390E080E00F9080
:1008A000DF91CF91089580915502E82FF0E0EA5A48
:1008B000FD4F998190838F5F8093550280937702DB
:1008C00081E090E0ECCF61E0CE0101960E949602BB
:1008D000F7CF90E080E00895CF93DF93D62FC72F16
:1008E00091E09093540290E4909376021092550216
:1008F0001092770294E0899FB00111246A5F7F4FC4
:1009000085E193E00E943A0460E085E193E00E9473
:100910003A0460E085E193E00E943A046D2F85E19E
:1009200093E00E943A046C2F85E193E00E943A0420
:100930000E94FC0291E0811190E0892FDF91CF911C
:100940000895CF93DF93C0E0D1E060E070E18C2F99
:100950000E946C04811101C0D0E0CF5FC031A9F7C3
:100960008D2FDF91CF910895CF93C62F91E0909373
:10097000540290E4909376021092550210927702FE
:10098000682F85E193E00E943A046C2F85E193E0A3
:100990000E943A040E94FC0291E0811190E0892FAC
:1009A000CF910895FC0101900020E9F73197AF0144
:1009B000481B590BBC0188E792E00C9469018F92A7
:1009C0009F92AF92BF920F931F93CF93DF93CDB7B8
:1009D000DEB7A1970FB6F894DEBF0FBECDBF19A248
:1009E000423008F44AE08E010F5D1F4F842E912C97
:1009F000B12CA12CA50194010E94F70AE62FB901A0
:100A0000CA01EA30F4F4E05DD801EE938D01232BA6
:100A1000242B252B79F790E080E0109719F0CD0179
:100A20000E94D204A1960FB6F894DEBF0FBECDBFD0
:100A3000DF91CF911F910F91BF90AF909F908F90BA
:100A40000895E95CE1CFCF93DF930E945B02EC0154
:100A500088E391E00E94D2048C0F9D1FDF91CF911B
:100A60000895109208020E94A10488E690E00C9478
:100A7000230585ED8093BC00809150029091510236
:100A8000A0915202B09153020796A11DB11D23E01F
:100A9000B695A795979587952A95D1F72091BC0093
:100AA00024FD03C010924E020895409150025091CF
:100AB00051026091520270915302452B462B472BF5
:100AC00069F30097A105B10541F02AE22A95F1F7F3
:100AD00000C00197A109B109E1CF80914F020C94A8
:100AE000DB02BF92CF92DF92EF92FF920F931F93A0
:100AF000CF93DF9320911A02222309F472C0213090
:100B000009F079C0809109028033E1F40E94A104C8
:100B100081110BC0DF91CF911F910F91FF90EF904A
:100B2000DF90CF90BF900C94310583EF90E0DF9180
:100B3000CF911F910F91FF90EF90DF90CF90BF90DA
:100B40000C9423058F7D803509F055C08EE990E027
:100B50000E94230508E011E0C0EFD1E0C12CD12CA8
:100B60007601C3944AE0C701B6010E94DF048CE21B
:100B70000E945602F80161918F0170E090E080E0E0
:100B80004AE00E94DF048CE20E945602688179816B
:100B900090E080E04AE00E94DF048CE20E9456026E
:100BA0006A817B8190E080E04AE00E94DF048CE271
:100BB0000E9456026C817D8190E080E04AE00E94B4
:100BC000DF0488E391E00E94D204FFEFCF1ADF0A2E
:100BD000EF0AFF0A269685E0C816D104E104F10465
:100BE00009F6DF91CF911F910F91FF90EF90DF9069
:100BF000CF90BF90089540910802442391F3233091
:100C000080F3809109028153843058F790910A0251
:100C1000903239F7EBE0F2E092E03191303219F4A2
:100C20009F5F2913FACFE92FF0E0BF016F5F7F4F7D
:100C3000E75FFD4F2617170609F07DC090819F7D65
:100C40009F3409F04DC0E82FF0E096E0899FD00175
:100C50001124A051BE4FEE0FFF1FE050FF4F208127
:100C600031812D933C93C82FD0E0E6E08E9F800128
:100C700011246801F0E8CF0ED11CC80180519E4FAD
:100C80007C010A571F4FF701B1907F01C6010E94F6
:100C9000E10AB81621F06B2DC6010E94E90AFFEFA8
:100CA000CF1ADF0AC016D10671F7CC0FDD1FFE0187
:100CB000E45FFE4F80819181009711F00E94D20481
:100CC00088EE90E00E945B02C050DF4F688179811E
:100CD00090E080E04AE00E94DF0484EE90E027CFBD
:100CE0009E3499F4E82FF0E096E0899FD00111241A
:100CF000A051BE4FEE0FFF1FE050FF4F208131810A
:100D000013963C932E931297AECF933409F069CF8C
:100D1000E82FF0E096E0899FD0011124A051BE4F4A
:100D2000EE0FFF1FE050FF4F2081318115963C935D
:100D30002E93149798CF30E0D0E0C0E0AAE092174D
:100D400088F4519160ED650F6A3008F47EC0E92F98
:100D5000F0E0E75FFD4F4191403209F042CF9F5FE5
:100D60009217C8F3332309F43CCF29133ACFE82E66
:100D7000F12C20E931E0DE010E94380B24EB30E059
:100D800040E050E00E94190B69018CEEC81A8AEF0E
:100D9000D80A8701000F111FF801E050FF4FD182E0
:100DA000C0820E94A104882309F4B4CEF701E85F51
:100DB000FE4FF080B60190E080E02CE0660F771FD8
:100DC000881F991F2A95D1F7605F784D8F4F9F4FED
:100DD00020E23EE440E050E00E94F70AB9018F2D86
:100DE0000E946C04882309F495CEF801E45FFE4F5D
:100DF00080819181009711F00E94D20480EE90E0F2
:100E00000E945B026F2D70E090E080E04AE00E945B
:100E1000DF0485ED90E00E945B02BE01DD0F880BD0
:100E2000990B4AE00E94DF048DEC90E00E945B0287
:100E3000F801E050FF4F6081718190E080E04AE06E
:100E40000E94DF0489EC90E072CE9F5FAC9FB001FE
:100E5000AD9F700D1124EB01C50FD11D57FDDA9523
:100E6000E097342FC53BD1050CF469CFBACE1F9261
:100E70000F920FB60F9211242F933F938F939F934E
:100E8000AF93BF938091200290912102A091220202
:100E9000B091230230911F0223E0230F2D3758F524
:100EA0000196A11DB11D20931F02809320029093F3
:100EB0002102A0932202B0932302809124029091F8
:100EC0002502A0912602B09127020196A11DB11D15
:100ED0008093240290932502A0932602B0932702C8
:100EE000BF91AF919F918F913F912F910F900FBE26
:100EF0000F901F90189526E8230F0296A11DB11D93
:100F0000D2CF1F920F920FB60F9211242F933F93BF
:100F10004F935F936F937F938F939F93AF93BF9301
:100F2000EF93FF9388E792E00E94E701FF91EF9132
:100F3000BF91AF919F918F917F916F915F914F91F1
:100F40003F912F910F900FBE0F901F9018951F92F9
:100F50000F920FB60F9211242F938F939F93EF93BD
:100F6000FF93E0918802F09189028081E0918E02E6
:100F7000F0918F0282FD1BC09081809191028F5F62
:100F80008F7320919202821741F0E0919102F0E07C
:100F9000E858FD4F958F80939102FF91EF919F91BB
:100FA0008F912F910F900FBE0F901F9018958081F9
:100FB000F4CF1F920F920FB60F9211242F933F93ED
:100FC0004F935F936F937F938F939F93AF93BF9351
:100FD000EF93FF938091B900887F803609F44AC06F
:100FE000F0F5883209F4A7C018F5803109F49BC0E8
:100FF000B8F4882309F4F9C0883009F494C0FF914B
:10100000EF91BF91AF919F918F917F916F915F9180
:101010004F913F912F910F900FBE0F901F901895F9
:10102000883109F488C0803251F780934C0214C093
:10103000803409F49DC040F48033B9F38833F9F665
:1010400080934C0285ECB0C0803509F485C08835AA
:1010500009F496C0883499F60E943905D0CF8839B2
:1010600009F48CC038F5883729F050F4883611F02F
:10107000803729F683E080934E021092E80157C032
:10108000883809F47BC0803919F0803809F0B7CF6F
:101090008091E801803208F071C0E091E80181E0C0
:1010A0008E0F8093E8018091BB00F0E0E853FE4F83
:1010B00080833DC0803B39F0E0F4803A09F479C088
:1010C000883A09F09CCF84E080934E021092C701C9
:1010D0001092C601E091EB01F091EC01099580912D
:1010E000C60181110FC081E08093C6011092A60154
:1010F00009C0803C09F4A6CF883C09F4A3CF883B03
:1011000009F07DCFE091C70181E08E0F8093C70188
:10111000F0E0EA55FE4F80818093BB009091C701BB
:101120008091C60129C0809129028093BB0085EC83
:101130008093BC0064CF90914B0280914A02981733
:1011400058F5E0914B0281E08E0F80934B02F0E066
:10115000E65DFD4F8081E9CFE0914B0281E08E0F8B
:1011600080934B028091BB00F0E0E65DFD4F8083F1
:1011700090914B0280914A029817C8F285E8D8CF27
:10118000E0914B0281E08E0F80934B028091BB0077
:10119000F0E0E65DFD4F808380914D0281115CCFD0
:1011A00081E08093280284EA8093BC0010924E0272
:1011B00026CF85EC8093BC0010924E028091E8010E
:1011C000803230F4E091E801F0E0E853FE4F108205
:1011D0006091E80170E0E091E901F091EA0188ECAA
:1011E00091E009951092E8010ACF10924C0234CF99
:1011F000E8E7F2E01382128288EE93E0A0E0B0E02C
:1012000084839583A683B78328E131E031832083EB
:1012100025EC30E03587248724EC30E037872687BB
:1012200020EC30E0318B208B21EC30E0338B228BB3
:1012300022EC30E0358B248B26EC30E0378B268B8C
:10124000118E128E138E148EE5E1F3E0138212825A
:1012500084839583A683B7838AE291E09183808318
:101260000895789484B5826084BD84B5816084BD1E
:1012700085B5826085BD85B5816085BD80916E0034
:10128000816080936E001092810080918100826065
:1012900080938100809181008160809381008091A2
:1012A00080008160809380008091B1008460809391
:1012B000B1008091B00081608093B00080917A008D
:1012C000846080937A0080917A00826080937A00B3
:1012D00080917A00816080937A0080917A008068A2
:1012E00080937A001092C100E0918802F091890207
:1012F00082E08083E0918402F09185021082E09187
:101300008602F091870280E1808310929002E09142
:101310008C02F0918D0286E08083E0918A02F09148
:101320008B02808180618083E0918A02F0918B0240
:10133000808188608083E0918A02F0918B028081B5
:1013400080688083E0918A02F0918B0280818F7D9A
:1013500080831092EE011092ED010E94BD0287E69B
:1013600091E09093EC018093EB0188E691E09093FB
:10137000EA018093E90188E48093B8001092EF01BC
:1013800088EA91E6A0E0B0E0809350029093510289
:10139000A0935202B093530281E080934F02809356
:1013A000540280E4809376021092550210927702E4
:1013B0000E94FC028823B9F10E943105C0E0D0E010
:1013C00011E088E792E00E94C701892B09F4C1C0AF
:1013D00088E792E00E94A5019FB7F894409120020F
:1013E0005091210260912202709123029FBF40938D
:1013F0001B0250931C0260931D0270931E02909179
:1014000019028D3019F08A3009F091C080911A02CA
:10141000882321F0911102C00E94710510921A02D6
:1014200010921902CECF60E180E00E94B4048823BC
:1014300019F269E78EEF0E94B404882309F4BCCF47
:1014400060E280E00E94B404882309F4B5CF0E94D2
:1014500042016B017C0185E0882E912CA12CB12CDE
:101460000E9442016C197D098E099F09683E7340F4
:1014700081059105A8F321E0821A9108A108B1081D
:1014800088EEC80E83E0D81EE11CF11C8114910483
:10149000A104B10429F760EA80E00E94B404882323
:1014A00009F48ACF0E94A104882309F485CFC0EFF4
:1014B000D1E000E810E07801F6E0EF0EF11C6E01DB
:1014C000C8010E94E10AF60181936F010F5F1F4F6F
:1014D0000E151F05A9F7888199818451954081399E
:1014E000914010F0198218828A819B818451954025
:1014F0008139914010F01B821A828C819D81845128
:1015000095408139914010F01D821C8226968701FA
:101510000839110581F681E08093080282E291E0AA
:101520000E94230587EF90E00E94230547CF911189
:1015300048CFE0911A02E03148F491E09E0F909379
:101540001A02F0E0E75FFD4F80833BCF1093190252
:1015500038CF80911A02811104C08091190288232A
:1015600029F12FB7F8948091200290912102A09147
:101570002202B09123022FBF40911B0250911C0206
:1015800060911D0270911E02841B950BA60BB70B78
:101590008897A105B10550F080911902811102C010
:1015A0000E94710510921A0210921902209709F4F4
:1015B00008CF0E94D301882309F403CF0E940000C2
:1015C00000CFF999FECF92BD81BDF89A992780B5D9
:1015D0000895262FF999FECF1FBA92BD81BD20BD77
:1015E0000FB6F894FA9AF99A0FBE01960895A1E2FF
:1015F0001A2EAA1BBB1BFD010DC0AA1FBB1FEE1F8D
:10160000FF1FA217B307E407F50720F0A21BB30BD7
:10161000E40BF50B661F771F881F991F1A9469F753
:1016200060957095809590959B01AC01BD01CF01AF
:101630000895052E97FB1EF400940E94300B57FD71
:1016400007D00E94F70A07FC03D04EF40C94300B2D
:1016500050954095309521953F4F4F4F5F4F0895DE
:1016600090958095709561957F4F8F4F9F4F08950E
:101670000E94450BB7FF0895821B930B0895EE0F50
:10168000FF1F0590F491E02D0994A29FB001B39F34
:10169000C001A39F700D811D1124911DB29F700D7B
:0C16A000811D1124911D0895F894FFCFC6
:1016AC00DC05DC05DC05DC05040506073B014D010A
:1016BC005F017201000000000902690196017602C7
:1016CC00C701A501B901000000003A040D0469042A
:1016DC00E3030604F303E4030D0A006C656674204F
:1016EC007570706572206579656C6964006C6566EF
:1016FC0074206C6F776572206579656C6964007213
:10170C0069676874207570706572206579656C699D
:10171C0064007269676874206C6F776572206579F4
:06172C00656C6964000019
:00000001FF
