:100000000C9499010C94C1010C94C1010C94C10190
:100010000C94C1010C94C1010C94C1010C94C10158
:100020000C94C1010C94C1010C94C1010C94C10148
:100030000C94C1010C94C1010C94C1010C94C10138
:100040000C9435070C94C1010C94A5070C947F0700
:100050000C94C1010C94C1010C94C1010C94C10118
:100060000C94D7070C94C101493243204641554CAA
:10007000543A2063757420736572766F20706F77C1
:1000800065722C20636865636B20776972696E679F
:100090002C20726573657420746F20726574727998
:1000A0002E005A65726F203D206E6F74207361764A
:1000B00065642E204A6177206C6F7765723D6F70A2
:1000C000656E2C2075707065723D636C6F7365642E
:1000D0002E00736572766F2C6368616E6E656C2C92
:1000E0006C6F7765725F75732C6E65757472616C79
:1000F0005F75732C75707065725F757300204E208C
:100100002F2044202F205500207573202D2073614F
:100110007665207769746820002070756C7365209F
:1001200000204348004E65776C696E6520726571EA
:1001300075697265642E20313330302E2E313730A0
:100140003020757320697320612074657374207783
:10015000696E646F772C204E4F5420766572696605
:10016000696564206D656368616E6963616C206CAC
:10017000696D6974732E0031204E206E657574723E
:10018000616C207C2031204420646F776E207C20BD
:10019000312055207570207C2050207461626C6580
:1001A000207C2058206F66660031203930206A613B
:1001B00077207C2032203930206C6566742063689B
:1001C00065656B207C203320393020726967687444
:1001D00020636865656B0052454144592053494D81
:1001E000504C45206A6177202B20636865656B73EE
:1001F0002E20416C6C206F757470757473204F469F
:10020000462E00506F736974696F6E206D7573743C
:1002100020626520302E2E313830004578616D70B7
:100220006C653A2031203930206F722031204E0029
:100230004D6F7665205448415420736572766F2067
:1002400066697273743B207761697420756E746996
:100250006C206D6F74696F6E2066696E6973686576
:10026000732C207468656E20736176652E004D696D
:100270007373696E6720706F736974696F6E206F36
:1002800072204E2F442F55004D6F76653A20312055
:100290003930202F2032203930202F2033203930A0
:1002A0002E20536176653A2031204E202F203120B8
:1002B00044202F203120552E2050207461626C651F
:1002C0002E2058206F66662E00416C6C206F75746E
:1002D00070757473204F464600436F6D6D616E6498
:1002E00020746F6F206C6F6E6700000000002500A7
:1002F00028002B0004040404040404040202020283
:1003000002020303030303030102040810204080D8
:100310000102040810200102040810200000000857
:1003200000020100000304070000000000000000BC
:10033000F60811241FBECFEFD8E0DEBFCDBF11E01D
:10034000A0E0B1E0E0EBF9E102C005900D92A43627
:10035000B107D9F722E0A4E6B1E001C01D92A53EA5
:10036000B207E1F711E0C9E9D1E004C02197FE012D
:100370000E94C10CC839D107C9F70E942F090C94FB
:10038000D60C0C94000090E0FC01E45EFC4F24913C
:10039000FC01E85FFC4F3491FC01EC50FD4FE4910F
:1003A000EE23C9F0222339F0233001F1A8F42130E3
:1003B00019F1223029F1F0E0EE0FFF1FE651FD4F59
:1003C000A591B4918FB7F894EC91611126C0309546
:1003D0003E233C938FBF08952730A9F02830C9F001
:1003E000243049F7809180008F7D03C08091800088
:1003F0008F7780938000DFCF84B58F7784BDDBCF8C
:1004000084B58F7DFBCF8091B0008F778093B00053
:10041000D2CF8091B0008F7DF9CF3E2BDACF3FB79E
:10042000F8948091E8019091E901A091EA01B091DE
:10043000EB0126B5A89B05C02F3F19F00196A11D21
:10044000B11D3FBFBA2FA92F982F8827BC01CD011E
:10045000620F711D811D911D42E0660F771F881F7D
:10046000991F4A95D1F7089508950895AF92BF92C4
:10047000CF92DF92EF92FF920F931F93CF93DF9370
:100480006C017B018B01040F151FEB015E01AE189F
:10049000BF08C017D10759F06991D601ED91FC91C1
:1004A0000190F081E02DC6010995892B79F7C501EE
:1004B000DF91CF911F910F91FF90EF90DF90CF9040
:1004C000BF90AF900895FC01538D448D252F30E0EF
:1004D000842F90E0821B930B541710F0CF96089551
:1004E00001970895FC01918D828D981761F0A28D7E
:1004F000AE0FBF2FB11D5D968C91928D9F5F9F7344
:10050000928F90E008958FEF9FEF0895FC01918DF9
:10051000828D981731F0828DE80FF11D858D90E066
:1005200008958FEF9FEF0895FC01918D228D892F03
:1005300090E0805C9F4F821B91098F7399270895EB
:100540008CE392E00E94940221E0892B09F420E0E0
:10055000822F089580E090E0892B29F00E94A0026C
:1005600081110C9400000895FC01A48DA80FB92FEF
:10057000B11DA35ABF4F2C91848D90E001968F73CB
:100580009927848FA689B7892C93A089B1898C91EA
:10059000837080648C93938D848D981306C0028839
:1005A000F389E02D80818F7D80830895EF92FF9203
:1005B0000F931F93CF93DF93EC0181E0888F9B8D86
:1005C0008C8D98131AC0E889F989808185FF15C040
:1005D0009FB7F894EE89FF896083E889F989808163
:1005E0008370806480839FBF81E090E0DF91CF9132
:1005F0001F910F91FF90EF900895F62E0B8D10E054
:100600000F5F1F4F0F731127E02E8C8D8E110CC0C2
:100610000FB607FCFACFE889F989808185FFF5CF0D
:10062000CE010E94B402F1CFEB8DEC0FFD2FF11D36
:10063000E35AFF4FF0829FB7F8940B8FEA89FB894A
:1006400080818062CFCF0F931F93CF93DF938C0174
:10065000D0E0C0E0F801EC0FFD1F6491662341F08B
:100660008CE392E00E94D602892B11F02196F2CF02
:10067000CE01DF91CF911F910F910895682F8CE3E8
:1006800092E00C94D602CF93DF93EC01888D8823FF
:10069000B9F0AA89BB89E889F9898C9185FD03C0E5
:1006A000808186FD0DC00FB607FCF7CF8C9185FFCA
:1006B000F2CF808185FFEDCFCE010E94B402E9CF59
:1006C000DF91CF9108952091A401260F3327331F86
:1006D00021323105ECF420911202FC0190E080E01F
:1006E000243069F082E00895A091A4012191AC0129
:1006F0004C575E4FA40FB52FB11D2C930196861752
:1007000098F38091A401680F6093A40180E008959C
:1007100081E008951092120281E0809311021092FC
:10072000EC0161E082E10E94C30161E083E10E948B
:10073000C301E9EBF0E080818E7F808380818D7F33
:10074000808388E48093B80085E48093BC0008959A
:10075000CF93DF9391E09093CD018823B9F0C091BE
:10076000B800D091BA008091BC008A7B8093BC0015
:1007700060E082E10E94C30160E083E10E94C30166
:100780000E948A03D093BA00C093B800DF91CF9142
:100790000895CF92DF92EF92FF920F931F93CF9322
:1007A000DF93D0913B0281E0D13208F09CC0C09130
:1007B0003A020E940F026B017C01809112028111AA
:1007C0006CC082E08093120281E0809311028FEF6F
:1007D0008093100210920F02D0930E02AAE1B2E0B1
:1007E000EEEEF1E080E0D8138DC01092ED01809123
:1007F000ED01CC0FC82BC093ED018091EC0181304D
:1008000009F084C01092EC010E940F026B017C0180
:100810008091ED018093BB008091140290911502AC
:10082000A0911602B0911702892B8A2B8B2BA1F075
:100830000E940F02009114021091150220911602DD
:10084000309117026C197D098E099F090617170749
:100850002807390708F442C08091BC0083FDD8CF37
:1008600085EC8093BC000E940F026B017C0180919B
:100870001202823009F44CC0809110028F3F09F4BB
:1008800069C080911002803209F466C08091100224
:10089000803309F463C084E026C0809114029091F3
:1008A0001502A0911602B0911702892B8A2B8B2B6F
:1008B00009F483CF0E940F020091140210911502D7
:1008C00020911602309117026C197D098E099F093B
:1008D000061717072807390708F06FCF8091130212
:1008E0000E94A80385E01092190210923B02109218
:1008F0001802DF91CF911F910F91FF90EF90DF9041
:10090000CF9008959D9191938F5F6DCF85EEA9CF84
:100910008091140290911502A0911602B0911702D5
:10092000892B8A2B8B2B09F4A2CF0E940F020091F6
:1009300014021091150220911602309117026C19C1
:100940007D098E099F09061717072807390708F040
:100950008ECFC4CF80E0C7CF82E0C5CF83E0C3CFC6
:100960000895E091CC018091CB01E81730F4F0E0DC
:10097000EC59FE4F808190E008958FEF9FEF08952E
:100980009091CC018091CB012FEF3FEF981748F465
:10099000E92FF0E0EC59FE4F208130E09F5F90930B
:1009A000CC01C90108958091CB019091CC01891BA4
:1009B000990B0895CF92DF92EF92FF920F931F93BE
:1009C000CF93DF937C01CB018A012091180222236F
:1009D00089F0EB016B01C40ED51ECC15DD0569F065
:1009E0006991D701ED91FC910190F081E02DC70153
:1009F0000995F3CF642F0E946303C801DF91CF9163
:100A00001F910F91FF90EF90DF90CF900895CF93BB
:100A1000DF931F92CDB7DEB769832091180222239E
:100A2000F9F020913B02203258F021E030E0FC0147
:100A30003383228390E080E00F90DF91CF9108957F
:100A400080911902E82FF0E0E65EFD4F99819083D6
:100A50008F5F8093190280933B0281E090E0ECCF9E
:100A600061E0CE0101960E946303F7CF90E080E041
:100A70000895CF93DF93D62FC72F91E0909318025C
:100A800090E490933A021092190210923B0294E083
:100A9000899FB00111246A5F7F4F89ED92E00E9427
:100AA000070560E089ED92E00E94070560E089EDAE
:100AB00092E00E9407056D2F89ED92E00E940705E4
:100AC0006C2F89ED92E00E9407050E94C90391E016
:100AD000811190E0892FDF91CF910895CF93DF931B
:100AE0001092D301809116019091170190931501F6
:100AF00080931401C0E0D1E060E070E18C2F0E948F
:100B00003905811101C0D0E0CF5FC031A9F78D2F29
:100B1000DF91CF910895CF93C62F91E09093180263
:100B200090E490933A021092190210923B02682FBF
:100B300089ED92E00E9407056C2F89ED92E00E94FA
:100B400007050E94C90391E0811190E0892FCF91A0
:100B50000895FC0101900020E9F73197AF01481B8F
:100B6000590BBC018CE392E00C943602CF93DF93D7
:100B70000E942303EC0185E491E00E94A9058C0FFB
:100B80009D1FDF91CF9108951092D4010E946E05B0
:100B900088E690E00C94B605CF93609116017091B1
:100BA0001701072E000C880B990B2CE0660F771F9E
:100BB000881F991F2A95D1F7605F784D8F4F9F4FFF
:100BC00020E23EE440E050E00E949B0CE091CE0128
:100BD000F0E0E85EFE4FB90180810E943905C82F20
:100BE000811102C00E94C4058C2FCF9108958F926D
:100BF0009F92AF92BF920F931F93CF93DF93CDB786
:100C0000DEB7A1970FB6F894DEBF0FBECDBF19A215
:100C1000423008F44AE08E010F5D1F4F842E912C64
:100C2000B12CA12CA50194010E94790CE62FB901E9
:100C3000CA01EA30F4F4E05DD801EE938D01232B74
:100C4000242B252B79F790E080E0109719F0CD0147
:100C50000E94A905A1960FB6F894DEBF0FBECDBFC6
:100C6000DF91CF911F910F91BF90AF909F908F9088
:100C70000895E95CE1CFCF92DF92EF92FF92CF939C
:100C8000DF936C01990FEE08FF08F7FE17C08DE2A5
:100C90000E943E03EC0166277727CB016C197D0982
:100CA0008E099F094AE00E94F7058C0F9D1FDF9176
:100CB000CF91FF90EF90DF90CF9008954AE0C70169
:100CC000B601DF91CF91FF90EF90DF90CF900C9421
:100CD000F705E091CE01F0E0EE0FFF1FE55EFE4F5D
:100CE00080819181009711F00E94A90581E291E035
:100CF0000E942303E091CE01F0E0E85EFE4F6081A8
:100D000070E090E080E04AE00E94F70589E191E020
:100D10000E94230380911601909117010E943B06C7
:100D200088E091E00E9423038091CE0190E001963B
:100D30000E943B068DEF90E00C94B605CF92DF92B7
:100D4000EF92FF920F931F93CF93DF9382ED90E08A
:100D50000E94B60508E111E0C0E0D1E0C12CD12C21
:100D60007601C3944AE0C701B6010E94F7058CE200
:100D70000E943E03F80161918F0170E090E080E0F5
:100D80004AE00E94F7058CE20E943E036A817B8163
:100D900090E080E04AE00E94F7058CE20E943E036A
:100DA0006C817D8190E080E04AE00E94F7058CE252
:100DB0000E943E036E817F8190E080E04AE00E94C5
:100DC000F70585E491E00E94A905FFEFCF1ADF0A3D
:100DD000EF0AFF0A269684E0C816D104E104F10464
:100DE00009F682EA90E0DF91CF911F910F91FF9079
:100DF000EF90DF90CF900C94B60585ED8093BC000A
:100E00008091140290911502A0911602B0911702E0
:100E10000796A11DB11D23E0B695A79597958795D7
:100E20002A95D1F72091BC0024FD03C01092120234
:100E3000089540911402509115026091160270912C
:100E40001702452B462B472B69F30097A105B105E7
:100E500041F02AE22A95F1F700C00197A109B109F2
:100E6000E1CF809113020C94A8031F920F920FB64A
:100E70000F9211242F933F938F939F93AF93BF9320
:100E80008091E4019091E501A091E601B091E70124
:100E90003091E30123E0230F2D3758F50196A11D72
:100EA000B11D2093E3018093E4019093E501A093A9
:100EB000E601B093E7018091E8019091E901A091EA
:100EC000EA01B091EB010196A11DB11D8093E801EB
:100ED0009093E901A093EA01B093EB01BF91AF9128
:100EE0009F918F913F912F910F900FBE0F901F9068
:100EF000189526E8230F0296A11DB11DD2CF1F928F
:100F00000F920FB60F9211242F933F934F935F933D
:100F10006F937F938F939F93AF93BF93EF93FF93C1
:100F20008CE392E00E94B402FF91EF91BF91AF91E8
:100F30009F918F917F916F915F914F913F912F91F1
:100F40000F900FBE0F901F9018951F920F920FB623
:100F50000F9211242F938F939F93EF93FF93E09120
:100F60004C02F0914D028081E0915202F0915302C7
:100F700082FD1BC09081809155028F5F8F732091FD
:100F80005602821741F0E0915502F0E0E45CFD4F1B
:100F9000958F80935502FF91EF919F918F912F91A3
:100FA0000F900FBE0F901F9018958081F4CF1F9265
:100FB0000F920FB60F9211242F933F934F935F938D
:100FC0006F937F938F939F93AF93BF93EF93FF9311
:100FD0008091B900887F803609F44AC0F0F58832E4
:100FE00009F4A7C018F5803109F49BC0B8F4882330
:100FF00009F4F9C0883009F494C0FF91EF91BF91D2
:10100000AF919F918F917F916F915F914F913F91A0
:101010002F910F900FBE0F901F901895883109F4F3
:1010200088C0803251F78093100214C0803409F4D4
:101030009DC040F48033B9F38833F9F680931002F1
:1010400085ECB0C0803509F485C0883509F496C0B8
:10105000883499F60E94FD06D0CF883909F48CC0F7
:1010600038F5883729F050F4883611F0803729F6A2
:1010700083E0809312021092C60157C0883809F4A9
:101080007BC0803919F0803809F0B7CF8091C60154
:10109000803208F071C0E091C60181E08E0F80932C
:1010A000C6018091BB00F0E0EA55FE4F80833DC051
:1010B000803B39F0E0F4803A09F479C0883A09F0CD
:1010C0009CCF84E0809312021092A5011092A4019B
:1010D000E091C901F091CA0109958091A4018111A3
:1010E0000FC081E08093A4011092840109C0803C6C
:1010F00009F4A6CF883C09F4A3CF883B09F07DCF43
:10110000E091A50181E08E0F8093A501F0E0EC57FE
:10111000FE4F80818093BB009091A5018091A40136
:1011200029C08091ED018093BB0085EC8093BC00C9
:1011300064CF90910F0280910E02981758F5E091BC
:101140000F0281E08E0F80930F02F0E0E251FE4F1C
:101150008081E9CFE0910F0281E08E0F80930F0232
:101160008091BB00F0E0E251FE4F808390910F022E
:1011700080910E029817C8F285E8D8CFE0910F024F
:1011800081E08E0F80930F028091BB00F0E0E2516E
:10119000FE4F80838091110281115CCF81E08093AA
:1011A000EC0184EA8093BC001092120226CF85ECF9
:1011B0008093BC00109212028091C601803230F4FC
:1011C000E091C601F0E0EA55FE4F10826091C60141
:1011D00070E0E091C701F091C80186EA91E00995BD
:1011E0001092C6010ACF1092100234CFECE3F2E065
:1011F0001382128288EE93E0A0E0B0E084839583AE
:10120000A683B78325E231E03183208325EC30E0EB
:101210003587248724EC30E03787268720EC30E0C0
:10122000318B208B21EC30E0338B228B22EC30E0B1
:10123000358B248B26EC30E0378B268B118E128E6B
:10124000138E148EE9EDF2E013821282848395836B
:10125000A683B78387E391E0918380830895CF933A
:10126000DF93CDB7DEB764970FB6F894DEBF0FBE3D
:10127000CDBF789484B5826084BD84B5816084BD1F
:1012800085B5826085BD85B5816085BD80916E0024
:10129000816080936E001092810080918100826055
:1012A0008093810080918100816080938100809192
:1012B00080008160809380008091B1008460809381
:1012C000B1008091B00081608093B00080917A007D
:1012D000846080937A0080917A00826080937A00A3
:1012E00080917A00816080937A0080917A00806892
:1012F00080937A001092C100E0914C02F0914D026F
:1013000082E08083E0914802F09149021082E091EE
:101310004A02F0914B0280E1808310925402E091E6
:101320005002F091510286E08083E0914E02F091EC
:101330004F02808180618083E0914E02F0914F02E4
:10134000808188608083E0914E02F0914F0280811D
:1013500080688083E0914E02F0914F0280818F7D02
:1013600080831092CC011092CB011092190210923E
:101370003B020E948A0384E392E09093CA01809327
:10138000C90185E392E09093C8018093C70188E486
:101390008093B8001092CD0188EA91E6A0E0B0E019
:1013A0008093140290931502A0931602B093170233
:1013B00081E0809313020E946E0581112BC00E9470
:1013C000C4059AE0992E24EB422E512C612C712CED
:1013D00036E0D32E40E0A42E40E0B42ECC24C394BB
:1013E0008CE392E00E949402892B09F4EFC18CE314
:1013F00092E00E9472029091E1018D3019F08A30E2
:1014000009F0D2C1992309F4B2C089ED92E00E949B
:10141000B605BEC060E180E00E948B05882379F2AA
:1014200069E78EEF0E948B05882349F260E280E035
:101430000E948B05882319F20E940F022B013C01A8
:1014400065E0C62ED12CE12CF12C0E940F0264190C
:10145000750986099709683E734081059105A8F3CF
:1014600021E0C21AD108E108F10848EE440E43E039
:10147000541E611C711CC114D104E104F10429F74C
:1014800060EA80E00E948B05882309F498CF0E94CF
:101490006E05882309F493CF8E010F5F1F4F58010B
:1014A00050EEC52ED12C7801C6010E94630CF501C7
:1014B00081935F01FFEFCF1ADF0A24EFC216D10438
:1014C00099F781E049815A81209100013091010111
:1014D0004217530709F080E0A8014E5E5F4FF80104
:1014E000228133812115310529F0245135402139DC
:1014F0003140D8F5F801248135812115310529F0D5
:10150000245135402139314080F5F8012681378159
:101510002115310529F0245135402139314028F574
:101520000A5F1F4F04171507D1F6882341F084E1A5
:10153000F701A0E0B1E001900D928A95E1F781E01A
:101540008093D40187ED91E00E94B60589EA91E08D
:101550000E94B60587E791E00E94B60585E291E01A
:101560000E94B6050E949E062CCF80E0D9CF8091C4
:10157000E201882369F08130E1F48091D5019FE98F
:10158000980F9A3108F48052803539F40E949E06F3
:101590001092E2011092E10123CF8835A9F40E9454
:1015A0006E05811103C00E94C405F2CF89EC92E060
:1015B0002ECF823049F01091D5011153133020F411
:1015C0009091D601903219F088E892E020CFE7EDB3
:1015D000F1E092E02191203269F0E82FF0E0EB5247
:1015E000FE4F981768F42FEF280F32913032A1F593
:1015F000822FF7CF9F5F8913EDCF8EE692E007CF62
:101600008093E2018917C9F3492F50E09A012F5FB7
:101610003F4F8217130679F4FA01EB52FE4F2081F7
:101620003FE9320F3A3108F420522E34C1F024340D
:10163000B1F02535A1F0FA01EB52FE4FF12CE12C6F
:10164000981708F077C0419120ED240F2A3008F454
:101650005BC08BE192E0DBCE8093E201D5CF80913D
:10166000D401882399F08091D301882379F0809167
:10167000CE0181130BC0809116019091170140910A
:101680001401509115018417950719F080E392E039
:10169000BECE2E34F9F4D19EF0011124E050FF4F5C
:1016A0009583848380E0E82E81E0F82E00EE10E040
:1016B000F70181907F01C8010E94630C881621F018
:1016C000682DC8010E946B0C0F5F1F4F043F11056E
:1016D00079F75CCF243441F4D19EF0011124E0501D
:1016E000FF4F93838283DECF2535E1F6212F30E053
:1016F0002F5F3F4FD29EF001D39EF00D1124E0509A
:10170000FF4F91838083CECF9E9C90019F9C300D94
:1017100011247901E40EF11C47FDFA9420E3E21A4A
:10172000F10845EBE416F1041CF083E092E06FCE83
:101730009F5F86CF8091D401882309F429CF8091BF
:10174000CE01811739F00E946E05882309F42BCF52
:101750001093CE0120E931E0D7010E94BA0CA30119
:1017600092010E949B0C2C5E3A4F309315012093FE
:1017700014018091D30181110EC030931701209381
:1017800016010E94CC05882309F402CFC092D30130
:101790000E946906FDCE80911601909117012817CD
:1017A000390709F0F5CEF4CF91111ACEE091E2019C
:1017B000EC3048F491E09E0F9093E201F0E0EB52A0
:1017C000FE4F80830DCEC092E1010ACE8091D401FC
:1017D000882309F46CC08091D301882309F467C081
:1017E00020911601309117018091140190911501FB
:1017F0002817390709F45BC02FB7F8948091E401EA
:101800009091E501A091E601B091E7012FBF4091D1
:10181000CF015091D0016091D1017091D201841B10
:10182000950BA60BB70B4497A105B10508F43FC073
:101830002FB7F8948091E4019091E501A091E60121
:10184000B091E7012FBF8093CF019093D001A09377
:10185000D101B093D20120911601309117018091EE
:10186000140190911501821B930B8530910514F0A2
:1018700084E090E08C3FEFEF9E0714F48CEF9FEF35
:10188000820F931F90931701809316010E94CC053D
:10189000882369F02091160130911701809114017D
:1018A000909115012817390711F40E946906A114B7
:1018B000B10409F495CD0E94A002882309F490CDCB
:1018C0000E9400008DCDF999FECF92BD81BDF89A9E
:1018D000992780B50895262FF999FECF1FBA92BD9A
:1018E00081BD20BD0FB6F894FA9AF99A0FBE019601
:1018F0000895A1E21A2EAA1BBB1BFD010DC0AA1F51
:10190000BB1FEE1FFF1FA217B307E407F50720F068
:10191000A21BB30BE40BF50B661F771F881F991FE3
:101920001A9469F760957095809590959B01AC012C
:10193000BD01CF010895052E97FB1EF400940E946F
:10194000B20C57FD07D00E94790C07FC03D04EF46F
:101950000C94B20C50954095309521953F4F4F4FC8
:101960005F4F089590958095709561957F4F8F4F4B
:101970009F4F08950E94C70CB7FF0895821B930BD9
:101980000895EE0FFF1F0590F491E02D0994A29F9A
:10199000B001B39FC001A39F700D811D1124911D43
:1019A000B29F700D811D1124911D0895F894FFCFF1
:1019B000314A0000000000000000000000000000AC
:1019C00000000000DC05DC050B0E0F48014C015740
:1019D0000100000000D60236026302430394027243
:1019E000028602000000000705DA043605B004D3C1
:1019F00004C004B1040D0A006A6177006C65667466
:101A000020636865656B0072696768742063686548
:041A1000656B000002
:00000001FF
