:100000000C94B1000C94D9000C94D9000C94D90034
:100010000C94D9000C94D9000C94D9000C94D900FC
:100020000C94D9000C94D9000C94D9000C94D900EC
:100030000C94D9000C94D9000C94D9000C94D900DC
:100040000C945E050C94D9000C94CE050C94A80574
:100050000C94D9000C94D9000C94D9000C94D900BC
:100060000C9400060C94D90005A84CCDB2D44EB91E
:100070003836A9020C50B9918688083CA6AAAA2A4B
:10008000BE000000803F493243204641554C543A5F
:1000900020737769746368206F6666207365727673
:1000A0006F20706F77657220616E6420636865638E
:1000B0006B20776972696E672E0052454144592062
:1000C00073696D706C65206368616E6E656C20632A
:1000D0006865636B202D206F757470757473204F85
:1000E00046462E20557365204E65776C696E652EE9
:1000F0000054657374696E67206368616E6E656C29
:1001000020004F464600546573742066696E69731B
:10011000686564202D204F46460000000000250041
:1001200028002B0004040404040404040202020254
:1001300002020303030303030102040810204080AA
:100140000102040810200102040810200000000829
:10015000000201000003040700000000000000008E
:100160001F0711241FBECFEFD8E0DEBFCDBF11E0C7
:10017000A0E0B1E0E8EDF7E102C005900D92AE32EB
:10018000B107D9F722E0AEE2B1E001C01D92AF3A6B
:10019000B207E1F710E0C1EBD0E004C02197FE0107
:1001A0000E94E40BC03BD107C9F70E9458070C948A
:1001B000EA0B0C94000090E0FC01E45BFE4F2491FC
:1001C000FC01E85CFE4F3491FC01EC5DFE4FE491D4
:1001D000EE23C9F0222339F0233001F1A8F42130B5
:1001E00019F1223029F1F0E0EE0FFF1FE65EFE4F1D
:1001F000A591B4918FB7F894EC91611126C0309518
:100200003E233C938FBF08952730A9F02830C9F0D2
:10021000243049F7809180008F7D03C08091800059
:100220008F7780938000DFCF84B58F7784BDDBCF5D
:1002300084B58F7DFBCF8091B0008F778093B00025
:10024000D2CF8091B0008F7DF9CF3E2BDACF3FB770
:10025000F8948091B2019091B301A091B401B09152
:10026000B50126B5A89B05C02F3F19F00196A11D29
:10027000B11D3FBFBA2FA92F982F8827BC01CD01F0
:10028000620F711D811D911D42E0660F771F881F4F
:10029000991F4A95D1F7089508950895AF92BF9296
:1002A000CF92DF92EF92FF920F931F93CF93DF9342
:1002B0006C017B018B01040F151FEB015E01AE1871
:1002C000BF08C017D10759F06991D601ED91FC9193
:1002D0000190F081E02DC6010995892B79F7C501C0
:1002E000DF91CF911F910F91FF90EF90DF90CF9012
:1002F000BF90AF900895FC01538D448D252F30E0C1
:10030000842F90E0821B930B541710F0CF96089522
:1003100001970895FC01918D828D981761F0A28D4F
:10032000AE0FBF2FB11D5D968C91928D9F5F9F7315
:10033000928F90E008958FEF9FEF0895FC01918DCB
:10034000828D981731F0828DE80FF11D858D90E038
:1003500008958FEF9FEF0895FC01918D228D892FD5
:1003600090E0805C9F4F821B91098F7399270895BD
:1003700086E092E00E94AC0121E0892B09F420E0A4
:10038000822F089580E090E0892B29F00E94B80127
:1003900081110C9400000895FC01A48DA80FB92FC1
:1003A000B11DA35ABF4F2C91848D90E001968F739D
:1003B0009927848FA689B7892C93A089B1898C91BC
:1003C000837080648C93938D848D981306C002880B
:1003D000F389E02D80818F7D80830895EF92FF92D5
:1003E0000F931F93CF93DF93EC0181E0888F9B8D58
:1003F0008C8D98131AC0E889F989808185FF15C012
:100400009FB7F894EE89FF896083E889F989808134
:100410008370806480839FBF81E090E0DF91CF9103
:100420001F910F91FF90EF900895F62E0B8D10E025
:100430000F5F1F4F0F731127E02E8C8D8E110CC094
:100440000FB607FCFACFE889F989808185FFF5CFDF
:10045000CE010E94CC01F1CFEB8DEC0FFD2FF11DF1
:10046000E35AFF4FF0829FB7F8940B8FEA89FB891C
:1004700080818062CFCF0F931F93CF93DF938C0146
:10048000D0E0C0E0F801EC0FFD1F6491662341F05D
:1004900086E092E00E94EE01892B11F02196F2CFC6
:1004A000CE01DF91CF911F910F910895CF93DF93EC
:1004B000EC01888D8823B9F0AA89BB89E889F9897C
:1004C0008C9185FD03C0808186FD0DC00FB607FCB1
:1004D000F7CF8C9185FFF2CF808185FFEDCFCE01E4
:1004E0000E94CC01E9CFDF91CF91089520916E0158
:1004F000260F3327331F21323105ECF42091DC0124
:10050000FC0190E080E0243069F082E00895A09141
:100510006E012191AC01425B5E4FA40FB52FB11D5E
:100520002C930196861798F380916E01680F609363
:100530006E0180E0089581E008951092DC0181E071
:100540008093DB011092B60161E082E10E94DB0042
:1005500061E083E10E94DB00E9EBF0E080818E7FC7
:10056000808380818D7F808388E48093B80085E4D8
:100570008093BC000895CF93DF9391E0909397010F
:100580008823B9F0C091B800D091BA008091BC0026
:100590008A7B8093BC0060E082E10E94DB0060E027
:1005A00083E10E94DB000E949D02D093BA00C093B9
:1005B000B800DF91CF910895CF92DF92EF92FF9232
:1005C0000F931F93CF93DF93D091050281E0D13237
:1005D00008F09CC0C09104020E9427016B017C01BD
:1005E0008091DC0181116CC082E08093DC0181E0AC
:1005F0008093DB018FEF8093DA011092D901D093C1
:10060000D801A4EEB1E0E8EBF1E080E0D8138DC0B2
:100610001092B7018091B701CC0FC82BC093B701DE
:100620008091B601813009F084C01092B6010E9419
:1006300027016B017C018091B7018093BB00809101
:10064000DE019091DF01A091E001B091E101892BE1
:100650008A2B8B2BA1F00E9427010091DE011091C3
:10066000DF012091E0013091E1016C197D098E09D3
:100670009F09061717072807390708F442C0809119
:10068000BC0083FDD8CF85EC8093BC000E9427017D
:100690006B017C018091DC01823009F44CC08091B7
:1006A000DA018F3F09F469C08091DA01803209F4E0
:1006B00066C08091DA01803309F463C084E026C00B
:1006C0008091DE019091DF01A091E001B091E10104
:1006D000892B8A2B8B2B09F483CF0E942701009151
:1006E000DE011091DF012091E0013091E1016C19F0
:1006F0007D098E099F09061717072807390708F093
:100700006FCF8091DD010E94BB0285E01092E30172
:10071000109205021092E201DF91CF911F910F918B
:10072000FF90EF90DF90CF9008959D9191938F5F10
:100730006DCF85EEA9CF8091DE019091DF01A09170
:10074000E001B091E101892B8A2B8B2B09F4A2CF18
:100750000E9427010091DE011091DF012091E0014C
:100760003091E1016C197D098E099F090617170761
:100770002807390708F08ECFC4CF80E0C7CF82E0CA
:10078000C5CF83E0C3CF0895E09196018091950194
:10079000E81730F4F0E0E25DFE4F808190E00895CC
:1007A0008FEF9FEF089590919601809195012FEF23
:1007B0003FEF981748F4E92FF0E0E25DFE4F20810B
:1007C00030E09F5F90939601C90108958091950153
:1007D00090919601891B990B0895CF92DF92EF9229
:1007E000FF920F931F93CF93DF937C01CB018A017C
:1007F0002091E201222389F0EB016B01C40ED51E8A
:10080000CC15DD0569F06991D701ED91FC9101905E
:10081000F081E02DC7010995F3CF642F0E94760285
:10082000C801DF91CF911F910F91FF90EF90DF9062
:10083000CF900895CF93DF931F92CDB7DEB7698332
:100840002091E2012223F9F020910502203258F094
:1008500021E030E0FC013383228390E080E00F90C0
:10086000DF91CF9108958091E301E82FF0E0EC5102
:10087000FE4F998190838F5F8093E30180930502FF
:1008800081E090E0ECCF61E0CE0101960E9476021B
:10089000F7CF90E080E00895CF93DF93D62FC72F56
:1008A00091E09093E20190E4909304021092E301AE
:1008B0001092050294E0899FB00111246A5F7F4F76
:1008C00083EA92E00E941A0460E083EA92E00E94C8
:1008D0001A0460E083EA92E00E941A046D2F83EA12
:1008E00092E00E941A046C2F83EA92E00E941A049C
:1008F0000E94DC0291E0811190E0892FDF91CF917D
:100900000895CF93DF938FEF9FEF90930101809332
:1009100000011092990110929801C0E0D1E060E0CE
:1009200070E18C2F0E944C04811101C0D0E0CF5F98
:10093000C031A9F78D2FDF91CF910895CF93C62FA6
:1009400091E09093E20190E4909304021092E3010D
:1009500010920502682F83EA92E00E941A046C2F1D
:1009600083EA92E00E941A040E94DC0291E0811165
:1009700090E0892FCF9108958F929F92AF92BF926E
:100980000F931F93CF93DF93CDB7DEB7A1970FB629
:10099000F894DEBF0FBECDBF19A2423008F44AE082
:1009A0008E010F5D1F4F842E912CB12CA12CA5011F
:1009B00094010E94C20BE62FB901CA01EA3044F546
:1009C000E05DD801EE938D01232B242B252B79F7A5
:1009D00090E080E0109769F0FD0101900020E9F7B8
:1009E0003197AF014A1B5B0BBD0186E092E00E948C
:1009F0004E01A1960FB6F894DEBF0FBECDBFDF91BA
:100A0000CF911F910F91BF90AF909F908F900895BD
:100A1000E95CD7CF42E050E06AE271E086E092E024
:100A20000C944E01CF93DF930E943B02EC010E9495
:100A30000A058C0F9D1FDF91CF9108951092A2019E
:100A40000E94810486E890E00C94120585ED809365
:100A5000BC008091DE019091DF01A091E001B09196
:100A6000E1010796A11DB11D23E0B695A7959795C5
:100A700087952A95D1F72091BC0024FD03C01092E0
:100A8000DC0108954091DE015091DF016091E001A9
:100A90007091E101452B462B472B69F30097A10587
:100AA000B10541F02AE22A95F1F700C00197A109AA
:100AB000B109E1CF8091DD010C94BB021F920F922E
:100AC0000FB60F9211242F933F938F939F93AF9361
:100AD000BF938091AE019091AF01A091B001B09110
:100AE000B1013091AD0123E0230F2D3758F5019668
:100AF000A11DB11D2093AD018093AE019093AF0174
:100B0000A093B001B093B1018091B2019091B30173
:100B1000A091B401B091B5010196A11DB11D8093C2
:100B2000B2019093B301A093B401B093B501BF910A
:100B3000AF919F918F913F912F910F900FBE0F908A
:100B40001F90189526E8230F0296A11DB11DD2CF44
:100B50001F920F920FB60F9211242F933F934F9332
:100B60005F936F937F938F939F93AF93BF93EF9315
:100B7000FF9386E092E00E94CC01FF91EF91BF913C
:100B8000AF919F918F917F916F915F914F913F9125
:100B90002F910F900FBE0F901F9018951F920F92DC
:100BA0000FB60F9211242F938F939F93EF93FF9380
:100BB000E0911602F09117028081E0911C02F09101
:100BC0001D0282FD1BC0908180911F028F5F8F7379
:100BD00020912002821741F0E0911F02F0E0EA5FCD
:100BE000FD4F958F80931F02FF91EF919F918F9101
:100BF0002F910F900FBE0F901F9018958081F4CF0A
:100C00001F920F920FB60F9211242F933F934F9381
:100C10005F936F937F938F939F93AF93BF93EF9364
:100C2000FF938091B900887F803609F44AC0F0F5BF
:100C3000883209F4A7C018F5803109F49BC0B8F4D4
:100C4000882309F4F9C0883009F494C0FF91EF912A
:100C5000BF91AF919F918F917F916F915F914F91D4
:100C60003F912F910F900FBE0F901F9018958831D4
:100C700009F488C0803251F78093DA0114C08034BF
:100C800009F49DC040F48033B9F38833F9F68093BA
:100C9000DA0185ECB0C0803509F485C0883509F4E7
:100CA00096C0883499F60E942605D0CF883909F479
:100CB0008CC038F5883729F050F4883611F0803729
:100CC00029F683E08093DC011092900157C08838A8
:100CD00009F47BC0803919F0803809F0B7CF8091D2
:100CE0009001803208F071C0E091900181E08E0F98
:100CF000809390018091BB00F0E0E059FE4F80832B
:100D00003DC0803B39F0E0F4803A09F479C0883A7C
:100D100009F09CCF84E08093DC0110926F01109267
:100D20006E01E0919301F0919401099580916E011B
:100D300081110FC081E080936E0110924E0109C0B5
:100D4000803C09F4A6CF883C09F4A3CF883B09F086
:100D50007DCFE0916F0181E08E0F80936F01F0E015
:100D6000E25BFE4F80818093BB0090916F01809188
:100D70006E0129C08091B7018093BB0085EC809300
:100D8000BC0064CF9091D9018091D801981758F593
:100D9000E091D90181E08E0F8093D901F0E0E85411
:100DA000FE4F8081E9CFE091D90181E08E0F8093E1
:100DB000D9018091BB00F0E0E854FE4F8083909110
:100DC000D9018091D8019817C8F285E8D8CFE09171
:100DD000D90181E08E0F8093D9018091BB00F0E0B2
:100DE000E854FE4F80838091DB0181115CCF81E06C
:100DF0008093B60184EA8093BC001092DC0126CF78
:100E000085EC8093BC001092DC01809190018032CF
:100E100030F4E0919001F0E0E059FE4F10826091D3
:100E2000900170E0E0919101F091920180E791E0F2
:100E30000995109290010ACF1092DA0134CFE6E0C2
:100E4000F2E01382128288EE93E0A0E0B0E08483A7
:100E50009583A683B7832AE031E03183208325EC94
:100E600030E03587248724EC30E03787268720EC74
:100E700030E0318B208B21EC30E0338B228B22EC65
:100E800030E0358B248B26EC30E0378B268B118EAF
:100E9000128E138E148EE3EAF2E0138212828483A0
:100EA0009583A683B7838CE191E091838083089535
:100EB000CF93DF93CDB7DEB728970FB6F894DEBF98
:100EC0000FBECDBF789484B5826084BD84B5816047
:100ED00084BD85B5826085BD85B5816085BD809105
:100EE0006E00816080936E0010928100809181007D
:100EF0008260809381008091810081608093810075
:100F0000809180008160809380008091B100846036
:100F10008093B1008091B00081608093B000809197
:100F20007A00846080937A0080917A008260809356
:100F30007A0080917A00816080937A0080917A00B3
:100F4000806880937A001092C100E0911602F091BF
:100F5000170282E08083E0911202F0911302108266
:100F6000E0911402F091150280E1808310921E023C
:100F7000E0911A02F0911B0286E08083E091180252
:100F8000F0911902808180618083E0911802F091D4
:100F90001902808188608083E0911802F091190223
:100FA000808180688083E0911802F091190280812D
:100FB0008F7D808310929601109295011092E3012B
:100FC000109205020E949D028CE491E0909394019E
:100FD000809393018DE491E090939201809391012D
:100FE0001092970188EA91E6A0E0B0E08093DE01DC
:100FF0009093DF01A093E001B093E10181E0809341
:10100000DD010E948104811133C00E941E0530E27F
:10101000832E3EE4932EA12CB12C3324339486E00E
:1010200092E00E94AC01892B09F4DAC086E092E0DC
:101030000E948A019091AB018D3019F08A3009F03D
:10104000BDC0911110C08091AC01813009F061C028
:101050009091A301903309F05CC00E94810481113A
:1010600053C00E941E051092AC011092AB01D7CF65
:1010700060E180E00E949E04882339F269E78EEFE8
:101080000E949E04882309F4C0CF60E280E00E94A1
:101090009E04882309F4B9CF0E9427014B015C010B
:1010A00045E0C42ED12CE12CF12C0E9427016819B7
:1010B00079098A099B09683E734081059105A8F367
:1010C00001E0C01AD108E108F10818EE810E13E022
:1010D000911EA11CB11CC114D104E104F10429F733
:1010E00060EA80E00E949E04882309F48ECF0E946B
:1010F0008104882309F489CF81E08093A2018AEBDF
:1011000090E00E94120583CF82E091E00E941205D8
:10111000AACF9091A201992309F4A5CF813009F0BB
:10112000A2CF0091A3018FEC800F843008F09BCFF9
:101130000E948104882309F494CFE02F000FFF0B55
:10114000EF52FF4F808190E0909301018093000166
:101150002FB7F8948091AE019091AF01A091B001AA
:10116000B091B1012FBF80939E0190939F01A093F6
:10117000A001B093A10181EF90E00E943B0240905A
:10118000000150900101052C000C660877084AE028
:10119000C301B20177FE0DC06DE286E092E00E94CD
:1011A000EE0166277727CB0164197509860997092F
:1011B0004AE00E94BC040E940A0555CF91112FCF2E
:1011C000E091AC01E83048F491E09E0F9093AC01BF
:1011D000F0E0ED55FE4F808322CF3092AB011FCF60
:1011E0008091A201882379F1809100019091010101
:1011F00097FD29C08FB7F8944090AE015090AF0191
:101200006090B0017090B1014D825E826F827886ED
:101210008FBF40919E0150919F016091A0017091FC
:10122000A101441A550A660A770AC301B201603760
:1012300007E1700781059105C0F00E9481048111CA
:101240000FC00E941E0540E050E0452B09F4E7CE98
:101250000E94B801882309F4E2CE0E940000DFCE8C
:1012600086E091E00E941205EECF00919A01109164
:101270009B0120919C0130919D014D805E806F808B
:101280007884401A510A620A730A93018201043178
:10129000110521053105B8F22D813E814F81588518
:1012A00020939A0130939B0140939C0150939D01A0
:1012B00028EB3BE040E050E00E94C20B0E94D109C5
:1012C0002FE132E449E05BE30E94370A0E94A40A5E
:1012D00020E030E040E252E40E94370A0E949B097D
:1012E00066557A4F072E000C880B990B2CE0660F81
:1012F000771F881F991F2A95D1F7605F784D8F4F10
:101300009F4FA50194010E94C20B29018091980171
:10131000909199018217930709F495CFB9018091B3
:1013200000010E944C04882309F48BCF509299014C
:101330004092980188CF0E94A2096894B1110C9440
:10134000310A08950E94160A88F09F5798F0B92F25
:101350009927B751B0F0E1F0660F771F881F991FEA
:101360001AF0BA95C9F714C0B13091F00E94300A52
:10137000B1E008950C94300A672F782F8827B85F62
:1013800039F0B93FCCF3869577956795B395D9F742
:101390003EF490958095709561957F4F8F4F9F4F4C
:1013A0000895E89409C097FB3EF490958095709558
:1013B00061957F4F8F4F9F4F9923A9F0F92F96E9A1
:1013C000BB279395F695879577956795B795F11116
:1013D000F8CFFAF4BB0F11F460FF1BC06F5F7F4FB3
:1013E0008F4F9F4F16C0882311F096E911C07723C5
:1013F00021F09EE8872F762F05C0662371F096E8CE
:10140000862F70E060E02AF09A95660F771F881F9C
:10141000DAF7880F9695879597F9089557FD9058B4
:10142000440F551F59F05F3F71F04795880F97FBA8
:10143000991F61F09F3F79F0879508951216130662
:101440001406551FF2CF4695F1DF08C01616170691
:101450001806991FF1CF86957105610508940895C6
:10146000E894BB2766277727CB0197F908950E9458
:101470004A0A0C94EE0A0E94B50A38F00E94BC0A8F
:1014800020F0952311F00C94AC0A0C94B20A1124AC
:101490000C94310A0E940E0A70F3959FC1F3950FC8
:1014A00050E0551F629FF001729FBB27F00DB11DE8
:1014B000639FAA27F00DB11DAA1F649F6627B00D78
:1014C000A11D661F829F2227B00DA11D621F739F61
:1014D000B00DA11D621F839FA00D611D221F749F6F
:1014E0003327A00D611D231F849F600D211D822FB6
:1014F000762F6A2F11249F5750409AF0F1F08823DD
:101500004AF0EE0FFF1FBB1F661F771F881F915009
:101510005040A9F79E3F510580F00C94AC0A0C9402
:10152000310A5F3FE4F3983ED4F38695779567954B
:10153000B795F795E7959F5FC1F7FE2B880F911D33
:101540009695879597F908959F930E94C50A0F90E5
:1015500007FCEE5F0C94FF0A97F99F6780E870E044
:1015600060E008959FEF80EC089500240A94161619
:10157000170618060906089500240A941216130681
:101580001406050608950C94B20A0E94160AD8F3B0
:10159000E894E0E0BB279F57F0F02AED3FE049ECEC
:1015A00006C0EE0FBB0F661F771F881F28F0B23AE8
:1015B00062077307840728F0B25A620B730B840B1F
:1015C000E3959A9572F7803830F49A95BB0F661FB1
:1015D000771F881FD2F790480C947B0B092E039439
:1015E000000C11F4882352F0BB0F40F4BF2B11F410
:1015F00060FF04C06F5F7F4F8F4F9F4F0895EF9341
:10160000E0FF07C0A2EA2AED3FE049EC5FEB0E9451
:10161000240B0E94EE0A0F90039401FC9058E8E618
:10162000F0E00C94870B0E94B50A38F00E94BC0AC7
:1016300020F039F49F3F19F426F40C94B20A0EF40A
:10164000E095E7FB0C94AC0AE92F0E940E0A58F3D0
:10165000BA17620773078407950720F079F4A6F597
:101660000C94300A0EF4E0950B2EBA2FA02D0B012E
:10167000B90190010C01CA01A0011124FF27591BD7
:1016800099F0593F50F4503E68F11A16F040A22FDD
:10169000232F342F4427585FF3CF4695379527954E
:1016A000A795F0405395C9F77EF41F16BA0B620B4D
:1016B000730B840BBAF09150A1F0FF0FBB1F661F94
:1016C000771F881FC2F70EC0BA0F621F731F841FD7
:1016D00048F4879577956795B795F7959E3F08F0FD
:1016E000B0CF9395880F08F09927EE0F97958795BF
:1016F00008959F3F31F0915020F487957795679535
:10170000B795880F911D9695879597F908959F93A2
:101710008F937F936F93FF93EF939B01AC010E9494
:10172000370AEF91FF910E949B0B2F913F914F91B0
:101730005F910C94370ADF93CF931F930F93FF921F
:10174000EF92DF927B018C01689406C0DA2EEF01E4
:101750000E944A0AFE01E894A59125913591459190
:101760005591A6F3EF010E94240BFE019701A801F9
:10177000DA9469F7DF90EF90FF900F911F91CF916E
:10178000DF910895A1E21A2EAA1BBB1BFD010DC01B
:10179000AA1FBB1FEE1FFF1FA217B307E407F50721
:1017A00020F0A21BB30BE40BF50B661F771F881FFD
:1017B000991F1A9469F760957095809590959B0193
:1017C000AC01BD01CF010895EE0FFF1F0590F4910C
:0817D000E02D0994F894FFCF0D
:1017D800FFFF08090C0D00000000EE014E017B011F
:1017E8005602AC018A019E01000000001A04ED03B4
:0E17F8004904C303E603D303C4030D0A000033
:00000001FF
