:020000040000FA
:100000000C94DF000C9407010C9407010C94070179
:100010000C9407010C9407010C9407010C94070140
:100020000C9407010C9407010C9407010C94070130
:100030000C9407010C9407010C9407010C94070120
:100040000C94F0090C9407010C94600A0C943A0A81
:100050000C9407010C9407010C9407010C94070100
:100060000C94920A0C940701493243204641554CA6
:10007000543A2063757420736572766F20706F77C1
:10008000657220616E6420636865636B20776972B6
:10009000696E672E0052554E4E494E47004E4555EB
:1000A0005452414C002050554C5345200043484188
:1000B0004E4E454C20002050554C534520004341A6
:1000C0004C2043480052454A45435445443A207029
:1000D000756C7365206F7574736964652063616CFA
:1000E000696272617465642072616E676500524571
:1000F0004A45435445443A206368616E6E656C20FE
:100100006E6F7420636F6E74726F6C6C6564004206
:100110004C494E4B204F50454E00424C494E4B20CF
:10012000434C4F534544004155544F20424C494E97
:100130004B204F4646004155544F20424C494E4BB0
:10014000204F4E004F4646005245414459206361BE
:100150006C696272617465642031362D73657276E4
:100160006F2066616365202D206F757470757473E0
:10017000204F46460000000000250028002B000408
:10018000040404040404040202020202020303033E
:100190000303030102040810204080010204081038
:1001A00020010204081020000000080002010000E5
:1001B000030407000000000000000000400C1124B0
:1001C0001FBECFEFD8E0DEBFCDBF12E0A0E0B1E0B0
:1001D000EAE0F6E202C005900D92A434B107D9F727
:1001E00024E0A4E4B2E001C01D92A338B207E1F715
:1001F00010E0CFEDD0E004C02197FE010E94FD1277
:10020000CE3DD107C9F70E94790C0C9403130C94CE
:10021000000090E0FC01E955FE4F2491FC01ED56F1
:10022000FE4F3491FC01E158FE4FE491EE23C9F0FA
:10023000222339F0233001F1A8F4213019F12230C2
:1002400029F1F0E0EE0FFF1FEB58FE4FA591B4919E
:100250008FB7F894EC91611126C030953E233C9302
:100260008FBF08952730A9F02830C9F0243049F70E
:10027000809180008F7D03C0809180008F77809374
:100280008000DFCF84B58F7784BDDBCF84B58F7DD1
:10029000FBCF8091B0008F778093B000D2CF809158
:1002A000B0008F7DF9CF3E2BDACF3FB7F894809125
:1002B000860390918703A0918803B091890326B5A6
:1002C000A89B05C02F3F19F00196A11DB11D3FBF8E
:1002D000BA2FA92F982F8827BC01CD01620F711D5D
:1002E000811D911D42E0660F771F881F991F4A9557
:1002F000D1F708952FB7F89460918203709183032A
:1003000080918403909185032FBF089508950895E7
:10031000AF92BF92CF92DF92EF92FF920F931F9313
:10032000CF93DF936C017B018B01040F151FEB0151
:100330005E01AE18BF08C017D10759F06991D60108
:10034000ED91FC910190F081E02DC6010995892B7A
:1003500079F7C501DF91CF911F910F91FF90EF9039
:10036000DF90CF90BF90AF900895FC01538D448DE6
:10037000252F30E0842F90E0821B930B541710F050
:10038000CF96089501970895FC01918D828D98175D
:1003900061F0A28DAE0FBF2FB11D5D968C91928D35
:1003A0009F5F9F73928F90E008958FEF9FEF089566
:1003B000FC01918D828D981731F0828DE80FF11D2F
:1003C000858D90E008958FEF9FEF0895FC01918D4A
:1003D000228D892F90E0805C9F4F821B91098F7343
:1003E000992708958AED93E00E94E60121E0892B88
:1003F00009F420E0822F089580E090E0892B29F015
:100400000E94F20181110C9400000895FC01A48D5A
:10041000A80FB92FB11DA35ABF4F2C91848D90E026
:1004200001968F739927848FA689B7892C93A08909
:10043000B1898C91837080648C93938D848D981393
:1004400006C00288F389E02D80818F7D8083089526
:10045000EF92FF920F931F93CF93DF93EC0181E014
:10046000888F9B8D8C8D98131AC0E889F9898081BB
:1004700085FF15C09FB7F894EE89FF896083E889EE
:10048000F98980818370806480839FBF81E090E0E0
:10049000DF91CF911F910F91FF90EF900895F62E6D
:1004A0000B8D10E00F5F1F4F0F731127E02E8C8D07
:1004B0008E110CC00FB607FCFACFE889F98980814C
:1004C00085FFF5CFCE010E940602F1CFEB8DEC0F38
:1004D000FD2FF11DE35AFF4FF0829FB7F8940B8F69
:1004E000EA89FB8980818062CFCF0F931F93CF93DE
:1004F000DF938C01D0E0C0E0F801EC0FFD1F6491A8
:10050000662341F08AED93E00E942802892B11F0C6
:100510002196F2CFCE01DF91CF911F910F910895D7
:10052000CF93DF93EC01888D8823B9F0AA89BB892A
:10053000E889F9898C9185FD03C0808186FD0DC015
:100540000FB607FCF7CF8C9185FFF2CF808185FF36
:10055000EDCFCE010E940602E9CFDF91CF91089541
:100560002091BD02260F3327331F21323105ECF4D1
:100570002091B003FC0190E080E0243069F082E03B
:100580000895A091BD022191AC0143565D4FA40F87
:10059000B52FB11D2C930196861798F38091BD025B
:1005A000680F6093BD0280E0089581E00895109285
:1005B000B00381E08093AF0310928A0361E082E18F
:1005C0000E94090161E083E10E940901E9EBF0E08A
:1005D00080818E7F808380818D7F808388E480937B
:1005E000B80085E48093BC000895CF93DF9391E039
:1005F0009093E6028823B9F0C091B800D091BA0078
:100600008091BC008A7B8093BC0060E082E10E9404
:10061000090160E083E10E9409010E94D702D093A2
:10062000BA00C093B800DF91CF910895CF92DF92C6
:10063000EF92FF920F931F93CF93DF93D091D90343
:1006400081E0D13208F09CC0C091D8030E945501CE
:100650006B017C018091B00381116CC082E08093BA
:10066000B00381E08093AF038FEF8093AE031092CD
:10067000AD03D093AC03A8EBB3E0ECE8F3E080E08B
:10068000D8138DC010928B0380918B03CC0FC82B95
:10069000C0938B0380918A03813009F084C010924B
:1006A0008A030E9455016B017C0180918B0380932A
:1006B000BB008091B2039091B303A091B403B091B9
:1006C000B503892B8A2B8B2BA1F00E945501009139
:1006D000B2031091B3032091B4033091B5036C19A8
:1006E0007D098E099F09061717072807390708F49F
:1006F00042C08091BC0083FDD8CF85EC8093BC00C4
:100700000E9455016B017C018091B003823009F495
:100710004CC08091AE038F3F09F469C08091AE0355
:10072000803209F466C08091AE03803309F463C05F
:1007300084E026C08091B2039091B303A091B403EA
:10074000B091B503892B8A2B8B2B09F483CF0E94A0
:1007500055010091B2031091B3032091B40330917D
:10076000B5036C197D098E099F090617170728071D
:10077000390708F06FCF8091B1030E94F50285E040
:100780001092B7031092D9031092B603DF91CF9164
:100790001F910F91FF90EF90DF90CF9008959D9162
:1007A00091938F5F6DCF85EEA9CF8091B203909129
:1007B000B303A091B403B091B503892B8A2B8B2B83
:1007C00009F4A2CF0E9455010091B2031091B30326
:1007D0002091B4033091B5036C197D098E099F09EE
:1007E000061717072807390708F08ECFC4CF80E017
:1007F000C7CF82E0C5CF83E0C3CF0895E091E50283
:100800008091E402E81730F4F0E0E358FD4F808176
:1008100090E008958FEF9FEF08959091E502809109
:10082000E4022FEF3FEF981748F4E92FF0E0E35888
:10083000FD4F208130E09F5F9093E502C90108954C
:100840008091E4029091E502891B990B0895CF9263
:10085000DF92EF92FF920F931F93CF93DF937C0170
:10086000CB018A012091B603222389F0EB016B01B1
:10087000C40ED51ECC15DD0569F06991D701ED9147
:10088000FC910190F081E02DC7010995F3CF642F11
:100890000E94B002C801DF91CF911F910F91FF908C
:1008A000EF90DF90CF900895CF93DF931F92CDB755
:1008B000DEB769832091B6032223F9F02091D90392
:1008C000203258F021E030E0FC013383228390E0B5
:1008D00080E00F90DF91CF9108958091B703E82FCA
:1008E000F0E0E854FC4F998190838F5F8093B703C9
:1008F0008093D90381E090E0ECCF61E0CE010196D6
:100900000E94B002F7CF90E080E008958F929F920E
:10091000AF92BF92CF92DF92EF92FF920F931F930D
:10092000CF93DF934A015B0168017901CEEED2E0FB
:10093000AEE2B3E06EE073E0AC01405E5F4F299140
:1009400039912D933D93FC0121913191CF01FB0110
:1009500021933193BF018417950789F70E947A018B
:1009600060934E0370934F03809350039093510311
:100970008092040190920501A0920601B0920701B5
:10098000C0920001D0920101E0920201F0920301B5
:1009900081E080935203DF91CF911F910F91FF90DF
:1009A000EF90DF90CF90BF90AF909F908F90089581
:1009B0000F931F9308E017E020E030E044EF51E090
:1009C00060E070E08CEF91E00E94860481E080930B
:1009D000E8021F910F910895CF93DF93D62FC72F71
:1009E00091E09093B60390E49093D8031092B703EC
:1009F0001092D90394E0899FB00111246A5F7F4F60
:100A000087E794E00E94540460E087E794E00E9446
:100A1000540460E087E794E00E9454046D2F87E758
:100A200094E00E9454046C2F87E794E00E945404E1
:100A30000E94160391E0811190E0892FDF91CF9100
:100A40000895CF93DF93109265031092E9021092FC
:100A50005203109260031092E702C0E0D1E060E020
:100A600070E18C2F0E94EC04811101C0D0E0CF5FB7
:100A7000C031A9F7E5E4F2E085E692E01192119227
:100A80008E179F07D9F78D2FDF91CF910895CF93C0
:100A9000C62F91E09093B60390E49093D803109200
:100AA000B7031092D903682F87E794E00E9454049B
:100AB0006C2F87E794E00E9454040E94160391E093
:100AC000811190E0892FCF9108957F928F929F920C
:100AD000AF92BF92CF92DF92EF92FF920F931F934C
:100AE000CF93DF93D82EA7E5EA2EA3E0FA2ED0E02D
:100AF000C0E0082F10E0C090E7022C2FCC2061F05E
:100B0000809144028D2590E00C2E02C0959587952A
:100B10000A94E2F780FF50C07C2E770CBE016F5F15
:100B20007F4F660F771FA80102C0559547952A95FC
:100B3000E2F74A0181E088229924872D90E0861708
:100B4000970794F59C01220F331FF901EB59FD4FD4
:100B5000C11005C0FC01EE0FFF1FEA50FD4F0190D0
:100B6000F081E02DD901AB58BD4FED93FC93A90165
:100B70004B595D4FDA01ED93FC938114910489F494
:100B8000880F991FFC01EC5FFD4F808191812359F3
:100B90003D4FF901918380837394CFCFC1E0D0E0C2
:100BA000AACF8CED95E0F3CF0E947A01D7016D9327
:100BB0007D938D939C931397B4E0EB0EF11C2197DA
:100BC00069F7D092440281E0E3E0DE1280E0809396
:100BD0005F0381E08093E702DF91CF911F910F9136
:100BE000FF90EF90DF90CF90BF90AF909F908F904D
:100BF0007F90089542E050E060E472E08AED93E077
:100C00000C948801CF93DF930E947502EC010E943F
:100C1000FA058C0F9D1FDF91CF9108951092660306
:100C20000E94210588E690E00C9402062F923F92E4
:100C30004F925F926F927F928F929F92AF92BF92EC
:100C4000CF92DF92EF92FF920F931F93CF93DF9398
:100C500000D000D000D0CDB7DEB78091E702882366
:100C600009F493C025E732E03A8329838DE692E0C8
:100C70009C838B8375E6872E72E0972EE6EF2E2EEF
:100C8000E2E03E2E10E00E947A01E12FE69524E09A
:100C9000E29FF0011124E95AFC4FC080D180E2802C
:100CA000F3806C197D098E099F090E94D91120E0FB
:100CB00030E040EA52E40E94311120E030E040E8A8
:100CC0005FE30E94671218160CF4D1C00E947A01EB
:100CD0006C197D098E099F090E94D91120E030E02E
:100CE00040EA52E40E9431116B017C01E981FA81F2
:100CF00021913191FA83E9833E832D83EB81FC813D
:100D0000A190B190FC83EB83A7019601C701B601C6
:100D10000E94C5109B01AC0160E070E080E490E4AB
:100D20000E94C4102B013C01A7019601C701B60126
:100D30000E946C129B01AC01C301B2010E946C12B3
:100D40006B017C01B5012D813E81621B730B072E67
:100D5000000C880B990B0E94DB119B01AC01C701B1
:100D6000B6010E946C120E94A311ED81FE816E0FEC
:100D70007F1FF401619371934F01F10161937193AE
:100D80001F011F5F143009F07ECF2EEE32E03C834E
:100D90002B838CEC91E09A83898335E4E32E32E057
:100DA000F32E0CEE11E04CEAC42E41E0D42E50E2BA
:100DB000452E5EE4552E612C712CEB81FC818191D6
:100DC0009191FC83EB83E981FA8161917191FA83BE
:100DD000E983861797073CF0F601608171818617D9
:100DE00097070CF4BC01EB81FC813297718360831F
:100DF000072E000C880B990B2CE0660F771F881FBD
:100E0000991F2A95D1F7605F784D8F4F9F4FA301AF
:100E100092010E9461104901F701819191917F0136
:100E20008217930779F1B901F80180810E94EC04DF
:100E3000382E811123C00E940E06832D26960FB6F0
:100E4000F894DEBF0FBECDBFDF91CF911F910F9100
:100E5000FF90EF90DF90CF90BF90AF909F908F90DA
:100E60007F906F905F904F903F902F900895C12C8E
:100E7000D12C60E8E62E6FE3F62E38CFF7013297DB
:100E8000918280820F5F1F4FF2E0CF0ED11C2B8129
:100E90003C812E50334009F090CF33243394CDCF92
:100EA000AF92BF92CF92DF92EF92FF920F931F9378
:100EB000CF93DF93CDB7DEB7A0970FB6F894DEBF20
:100EC0000FBECDBF20917C03222309F443C0213003
:100ED00089F410916703103309F0E2C10E942105E3
:100EE000811103C00E940E0635C084E491E00E9487
:100EF000020630C0223009F00BC2809167038534AE
:100F0000D1F5909168039053943008F08AC0809195
:100F100066038823F9F080916503811114C0ECEF1A
:100F2000F1E0AEEEB2E08CE192E0219131912D93AF
:100F30003D938E179F07C9F70E941606882351F02C
:100F400081E0809365031092600380916803805371
:100F50000E946505A0960FB6F894DEBF0FBECDBF08
:100F6000DF91CF911F910F91FF90EF90DF90CF9085
:100F7000BF90AF900895813409F053C090916803F9
:100F80009053923008F04DC080916603882311F38E
:100F900080916503811114C0ECEFF1E0AEEEB2E098
:100FA0008CE192E0219131912D933D938E179F0713
:100FB000C9F70E941606882369F281E080936503D1
:100FC00081E090916803913309F080E080936003A1
:100FD00080E00E9465050E947A016B017C010E94FD
:100FE000091029EB3BE040E050E00E9461106C5397
:100FF000764F8F4F9F4FC60ED71EE81EF91EC09228
:101000005303D0925403E0925503F092560380911B
:101010006003882319F086E391E069CF87E291E0CD
:1010200066CF8F7D823409F095CF8091680380531D
:10103000823008F08FCF80916603882309F48ACF2D
:1010400080916503811115C0ECEFF1E0AEEEB2E0E6
:101050008CE192E0219131912D933D938E179F0762
:10106000C9F70E941606882309F474CF81E08093A3
:101070006503109168031092600383E0113309F057
:1010800080E00E9465058AE191E0113309F42FCFD9
:101090008FE091E02CCF662309F45CCF921708F023
:1010A00059CF303209F056CFECEEF1E050E040E09D
:1010B0000FEF1FEF31913C151D0409F48A014F5FBA
:1010C0005F4F40315105B1F70F3F100719F48EEE15
:1010D00090E00DCF9F5FE92FF0E0E959FC4F30E041
:1010E000F12CE12CAAE0291751F1719140ED470F45
:1010F0004A3058F0E92FF0E0E959FC4F9217D0F050
:1011000031116DC085EC90E0F2CE9F5FAE9DA001E5
:10111000AF9D500D11247A01E70EF11C77FDFA9472
:1011200030E3E31AF108362F41EDE41647E0F40608
:10113000D4F210CF4191403229F79F5FDFCF3323A4
:1011400009F35801AA0CBB1CF501E453FE4F2081A2
:101150003181E216F306B4F2F501E455FE4F208129
:1011600031812E153F0574F28B34E1F50E94210583
:10117000882309F4B7CEF501E251FD4FF182E082F8
:10118000B7010F2C000C880B990B2CE0660F771F12
:10119000881F991F2A95D1F7605F784D8F4F9F4F19
:1011A00020E23EE440E050E00E946110F801E4518A
:1011B000FE4FB90180810E94EC04882309F492CE8D
:1011C0008EEB90E00E947502C6010E94360C86EB01
:1011D00090E00E947502C7010E94200CBBCE29132B
:1011E00091CFAFCF80916503811115C0ECEFF1E095
:1011F000AEEEB2E08CE192E0219131912D933D93DE
:101200008E179F07C9F70E941606882309F4A2CEFD
:1012100081E0809365031092E90260915203FE0120
:10122000319630E020E0CF01D9016623B1F1A25F11
:10123000BC4F4D915C91419351932E5F3F4F2032B3
:10124000310591F7FC01EA0DFB1DF182E0820450AB
:1012500011090430110520F4109260031092E70286
:1012600096012450310942E850E060E070E02430FB
:10127000310520F04AE550E060E070E000E010E069
:1012800098010E9486048DEA90E00E947502C601D2
:101290000E94360C85EA90E09CCFA251BD4FC9CF89
:1012A0008FEC810F823008F055CE80916603882341
:1012B00009F450CE80916503811115C0ECEFF1E087
:1012C000AEEEB2E08CE192E0219131912D933D930D
:1012D0008E179F07C9F70E941606882309F43ACE95
:1012E00081E080936503123359F4109260031092E9
:1012F000E7021092E9020E94D8048DE990E0F7CD50
:1013000081E08093E9020E94D80485E990E0EFCD66
:10131000263008F41FCE80916703982F977F93346F
:1013200019F0833609F016CE70916603772309F41D
:1013300011CEE8E6F3E060E0D12CC12C91E0AAE008
:10134000319140ED430F4A3008F0A5CE9F5FAC9D30
:10135000A001AD9D500D11246A01C30ED11C37FDB3
:10136000DA9430E3C31AD108672F2913E9CFF2CDFD
:1013700085ED8093BC008091B2039091B303A0915E
:10138000B403B091B5030796A11DB11D23E0B69536
:10139000A795979587952A95D1F72091BC0024FDB4
:1013A00003C01092B00308954091B2035091B3036B
:1013B0006091B4037091B503452B462B472B69F31D
:1013C0000097A105B10541F02AE22A95F1F700C086
:1013D0000197A109B109E1CF8091B1030C94F50205
:1013E0001F920F920FB60F9211242F933F938F935A
:1013F0009F93AF93BF938091820390918303A091B9
:101400008403B09185033091810323E0230F2D37AE
:1014100058F50196A11DB11D20938103809382038D
:1014200090938303A0938403B093850380918603F4
:1014300090918703A0918803B09189030196A11D23
:10144000B11D8093860390938703A0938803B09384
:101450008903BF91AF919F918F913F912F910F90F1
:101460000FBE0F901F90189526E8230F0296A11D1E
:10147000B11DD2CF1F920F920FB60F9211242F934E
:101480003F934F935F936F937F938F939F93AF930C
:10149000BF93EF93FF938AED93E00E940602FF91C2
:1014A000EF91BF91AF919F918F917F916F915F91DC
:1014B0004F913F912F910F900FBE0F901F90189555
:1014C0001F920F920FB60F9211242F938F939F9319
:1014D000EF93FF93E091EA03F091EB038081E091B9
:1014E000F003F091F10382FD1BC090818091F30322
:1014F0008F5F8F732091F403821741F0E091F30323
:10150000F0E0E652FC4F958F8093F303FF91EF914B
:101510009F918F912F910F900FBE0F901F90189554
:101520008081F4CF1F920F920FB60F9211242F9348
:101530003F934F935F936F937F938F939F93AF935B
:10154000BF93EF93FF938091B900887F803609F4B1
:101550004AC0F0F5883209F4A7C018F5803109F4C3
:101560009BC0B8F4882309F4F9C0883009F494C00A
:10157000FF91EF91BF91AF919F918F917F916F916B
:101580005F914F913F912F910F900FBE0F901F9041
:101590001895883109F488C0803251F78093AE03E2
:1015A00014C0803409F49DC040F48033B9F388330B
:1015B000F9F68093AE0385ECB0C0803509F485C0A0
:1015C000883509F496C0883499F60E94B809D0CFBE
:1015D000883909F48CC038F5883729F050F48836FA
:1015E00011F0803729F683E08093B0031092DF0278
:1015F00057C0883809F47BC0803919F0803809F069
:10160000B7CF8091DF02803208F071C0E091DF0235
:1016100081E08E0F8093DF028091BB00F0E0E15407
:10162000FD4F80833DC0803B39F0E0F4803A09F4FF
:1016300079C0883A09F09CCF84E08093B00310927F
:10164000BE021092BD02E091E202F091E302099520
:101650008091BD0281110FC081E08093BD02109284
:101660009D0209C0803C09F4A6CF883C09F4A3CFB1
:10167000883B09F07DCFE091BE0281E08E0F809320
:10168000BE02F0E0E356FD4F80818093BB00909155
:10169000BE028091BD0229C080918B038093BB0064
:1016A00085EC8093BC0064CF9091AD038091AC0336
:1016B000981758F5E091AD0381E08E0F8093AD034C
:1016C000F0E0E457FC4F8081E9CFE091AD0381E089
:1016D0008E0F8093AD038091BB00F0E0E457FC4F88
:1016E00080839091AD038091AC039817C8F285E890
:1016F000D8CFE091AD0381E08E0F8093AD03809150
:10170000BB00F0E0E457FC4F80838091AF03811170
:101710005CCF81E080938A0384EA8093BC001092BE
:10172000B00326CF85EC8093BC001092B00380916B
:10173000DF02803230F4E091DF02F0E0E154FD4F4F
:1017400010826091DF0270E0E091E002F091E1022E
:101750008FEB92E009951092DF020ACF1092AE0350
:1017600034CF8F929F92AF92BF920F931F93CF93DC
:10177000DF93CDB7DEB7A1970FB6F894DEBF0FBEEB
:10178000CDBF19A2423008F44AE08E010F5D1F4F11
:10179000842E912CB12CA12CA50194010E949310B0
:1017A000E62FB901CA01EA3044F5E05DD801EE93B5
:1017B0008D01232B242B252B79F790E080E01097C7
:1017C00069F0FD0101900020E9F73197AF014A1B54
:1017D0005B0BBD018AED93E00E948801A1960FB6D4
:1017E000F894DEBF0FBECDBFDF91CF911F910F9157
:1017F000BF90AF909F908F900895E95CD7CFCF9224
:10180000DF92EF92FF92CF93DF936B017C016DE249
:101810008AED93E00E942802EC0166277727CB012E
:101820006C197D098E099F094AE00E94B10B8C0F4B
:101830009D1FDF91CF91FF90EF90DF90CF900895A3
:10184000CF93DF93BC01990F880B990B97FF0AC0C8
:101850000E94FF0BEC010E94FA058C0F9D1FDF9187
:10186000CF9108954AE00E94B10BF4CFBC01990FCB
:10187000880B990B97FD0C94FF0B4AE00C94B10B6D
:10188000EAEDF3E01382128288EE93E0A0E0B0E08C
:1018900084839583A683B78320E232E0318320835B
:1018A00025EC30E03587248724EC30E03787268725
:1018B00020EC30E0318B208B21EC30E0338B228B1D
:1018C00022EC30E0358B248B26EC30E0378B268BF6
:1018D000118E128E138E148EE7E7F4E013821282BB
:1018E00084839583A683B78382E392E09183808388
:1018F0000895CF93DF93CDB7DEB7C45AD1090FB6A1
:10190000F894DEBF0FBECDBF789484B5826084BDED
:1019100084B5816084BD85B5826085BD85B58160F3
:1019200085BD80916E00816080936E001092810071
:10193000809181008260809381008091810081602C
:1019400080938100809180008160809380008091ED
:10195000B10084608093B1008091B0008160809379
:10196000B00080917A00846080937A0080917A0040
:10197000826080937A0080917A00816080937A00FF
:1019800080917A00806880937A001092C100E09183
:10199000EA03F091EB0382E08083E091E603F091AB
:1019A000E7031082E091E803F091E90380E180838E
:1019B0001092F203E091EE03F091EF0386E0808352
:1019C000E091EC03F091ED03808180618083E091F0
:1019D000EC03F091ED03808188608083E091EC035B
:1019E000F091ED03808180688083E091EC03F091B9
:1019F000ED0380818F7D80831092E5021092E402D6
:101A00001092B7031092D9030E94D70286E891E0A2
:101A10009093E3028093E20287E891E09093E102E1
:101A20008093E00288E48093B8001092E60288EA8E
:101A300091E6A0E0B0E08093B2039093B303A0934B
:101A4000B403B093B50381E08093B1030E942105F4
:101A500081112CC00E940E068AED93E00E94E601DF
:101A600000917C03892B09F4A3C08AED93E00E94C6
:101A7000C401182F0E947A0160937D0370937E0346
:101A800080937F039093800380917B031D3019F036
:101A90001A3009F07CC0002321F0811102C00E949D
:101AA000500710927C0310927B03D6CF60E180E058
:101AB0000E944705882371F269E78EEF0E9447056F
:101AC000882341F260E280E00E944705882311F2FA
:101AD0000E9455014B015C0165E0C62ED12CE12C22
:101AE000F12C0E945501681979098A099B09683E01
:101AF000734081059105A8F321E0C21AD108E108DD
:101B0000F10838EE830E33E0931EA11CB11CC11402
:101B1000D104E104F10429F760EA80E00E9447055E
:101B2000882309F497CF0E942105882309F492CFD6
:101B300080E480937C0080917A00806480937A00B6
:101B400080917A0086FDFCCF6091780070917900D9
:101B5000072E000C880B990B611571058105910505
:101B600011F00E945810ECEFF1E0AEEEB2E081917E
:101B700091918D939D9352E0EC31F507C1F781E08F
:101B80008093660388E491E00E94020665CF81118C
:101B900063CF81E0043148F4800F80937C03E02F11
:101BA000F0E0E959FC4F108357CF80937B0354CF6B
:101BB000011104C080917B038823E9F00E947A011F
:101BC00000917D0310917E0320917F03309180036B
:101BD000601B710B820B930B6832710581059105B7
:101BE00050F080917B03811102C00E945007109237
:101BF0007C0310927B0380916603882309F42BC138
:101C000080916503882309F426C10E947A016B0143
:101C10007C018091610390916203A0916303B09174
:101C20006403A7019601281B390B4A0B5B0BDA01F1
:101C3000C9014497A105B10508F40DC1C092610323
:101C4000D0926203E0926303F09264038091600398
:101C50008823A9F180915F03882309F409C1809149
:101C6000570390915803A0915903B0915A03A701CB
:101C70009601281B390B4A0B5B0BDA01C901843B27
:101C80009105A105B105D8F080E00E9465050E948C
:101C9000091029EB3BE040E050E00E9461106C53DA
:101CA000764F8F4F9F4F6C0D7D1D8E1D9F1D609336
:101CB000530370935403809355039093560380917C
:101CC0005203882309F4EAC080914E0390914F0398
:101CD000A0915003B0915103A7019601281B390B25
:101CE0004A0B5B0BCF55DF4F288339834A835B83D5
:101CF000C15AD040CA01B9010E94D9114B015C01FF
:101D00006091040170910501809106019091070195
:101D10000E94D9119B01AC01C501B4010E9431118F
:101D20004B015C0120E030E040E85FE30E94671275
:101D3000181634F4812C912C50E8A52E5FE3B52EB3
:101D400020E030E040EC50E4C501B4010E946C1288
:101D500020E030E040E751E40E94C410A501940166
:101D60000E946C1220E030E040E251E40E94C51075
:101D70002B013C01A5019401C501B4010E946C1224
:101D8000A50194010E946C129B01AC01C301B20138
:101D90000E946C122B013C013EE2832E33E0932E15
:101DA0004EE0242E43E0342E0EEE12E0F401A1901A
:101DB000B1904F01F101619171911F016A197B0985
:101DC000072E000C880B990B0E94DB11A3019201D6
:101DD0000E946C120E94A3116A0D7B1DF801619391
:101DE00071938F012EE433E028153905F9F60E942E
:101DF0001606882381F18091040190910501A0913C
:101E00000601B0910701CF55DF4F288139814A8102
:101E10005B81C15AD040281739074A075B07B0F0E9
:101E2000109252038091000190910101A091020152
:101E3000B09103018C0D9D1DAE1DBF1D8093EA0264
:101E40009093EB02A093EC02B093ED028091E70235
:101E500081110E94160620E030E0232B09F4FCCD0E
:101E60000E94F201882309F4F7CD0E940000F4CD0E
:101E70008091530390915403A0915503B091560360
:101E8000A7019601281B390B4A0B5B0BDA01C9012C
:101E9000B7FD15CF83E00E94650511CF8091E9025F
:101EA0008823A1F28091EA029091EB02A091EC02CA
:101EB000B091ED02C81AD90AEA0AFB0AF7FCC6CFAC
:101EC0008091E802882309F452C080EAECE0F1E056
:101ED000DE01119601900D928A95E1F70E9409109A
:101EE0004B015C010E9409106B017C010E940910EA
:101EF0002B013C01C501B4012DE434E040E050E089
:101F00000E9461104B015C013CEB830E32E0931E9A
:101F1000A11CB11CC701B6012BEF30E040E050E03E
:101F20000E9461106B017C0142ECC40E41E0D41EA2
:101F3000E11CF11CC301B20125E030E040E050E0BB
:101F40000E946110CB0125E0880F991F2A95E1F7C7
:101F500095018401B701A601E1E0F0E0EC0FFD1F5F
:101F60008E0F9F1F0E9486041092E8026FCF0E947E
:101F7000D804F1E0F093E80269CF8F929F92AF927C
:101F8000BF92CF92DF92EF92FF92CF93DF93EC015B
:101F9000688179818A819B8161157105810591052F
:101FA00021F464E279ED8BE597E02DE133EF41E038
:101FB00050E00E94611049015A019B01AC01A7EA5F
:101FC000B1E40E9480106B017C01ACEEB4EFA5017E
:101FD00094010E948E10C60ED71EE81EF91EF7FE51
:101FE00006C081E0C81AD108E10880E8F80AC88272
:101FF000D982EA82FB82C701B6019F77DF91CF9138
:10200000FF90EF90DF90CF90BF90AF909F908F9018
:1020100008958F929F92AF92BF92CF92DF92EF92EC
:10202000FF92609108017091090180910A019091DD
:102030000B01611571058105910521F464E279EDCB
:102040008BE597E02DE133EF41E050E00E94611015
:1020500049015A019B01AC01A7EAB1E40E9480103A
:102060006B017C01ACEEB4EFA50194010E948E10CF
:10207000C60ED71EE81EF91EF7FE06C081E0C81A7C
:10208000D108E10880E8F80AC0920801D09209015D
:10209000E0920A01F0920B01C701B6019F77FF9011
:1020A000EF90DF90CF90BF90AF909F908F9008956A
:1020B000609308017093090180930A0190930B01CA
:1020C0000895052E97FB1EF400940E94781057FD8A
:1020D00007D00E94931007FC03D04EF40C947810A4
:1020E00050954095309521953F4F4F4F5F4F089544
:1020F00090958095709561957F4F8F4F9F4F089574
:102100000E94B510A59F900DB49F900DA49F800DC7
:10211000911D11240895B7FF0C9480100E94801027
:10212000821B930B0895A1E21A2EAA1BBB1BFD0173
:102130000DC0AA1FBB1FEE1FFF1FA217B307E407A6
:10214000F50720F0A21BB30BE40BF50B661F771FFE
:10215000881F991F1A9469F76095709580959095DE
:102160009B01AC01BD01CF010895A29FB001B39FB7
:10217000C001A39F700D811D1124911DB29F700D90
:10218000811D1124911D08955058BB27AA270E9434
:10219000DC100C942D120E941F1238F00E9426129F
:1021A00020F039F49F3F19F426F40C941C120EF41D
:1021B000E095E7FB0C941612E92F0E943E1258F3AB
:1021C000BA17620773078407950720F079F4A6F51C
:1021D0000C9460120EF4E0950B2EBA2FA02D0B017B
:1021E000B90190010C01CA01A0011124FF27591B5C
:1021F00099F0593F50F4503E68F11A16F040A22F62
:10220000232F342F4427585FF3CF469537952795D2
:10221000A795F0405395C9F77EF41F16BA0B620BD1
:10222000730B840BBAF09150A1F0FF0FBB1F661F18
:10223000771F881FC2F70EC0BA0F621F731F841F5B
:1022400048F4879577956795B795F7959E3F08F081
:10225000B0CF9395880F08F09927EE0F9795879543
:1022600008950E9445110C942D120E94261258F0D8
:102270000E941F1240F029F45F3F29F00C941612BF
:1022800051110C9461120C941C120E943E1268F3BE
:102290009923B1F3552391F3951B550BBB27AA271F
:1022A00062177307840738F09F5F5F4F220F331F59
:1022B000441FAA1FA9F335D00E2E3AF0E0E832D021
:1022C00091505040E695001CCAF72BD0FE2F29D024
:1022D000660F771F881FBB1F261737074807AB07F6
:1022E000B0E809F0BB0B802DBF01FF2793585F4F6B
:1022F0003AF09E3F510578F00C9416120C9461123E
:102300005F3FE4F3983ED4F3869577956795B7954C
:10231000F7959F5FC9F7880F911D9695879597F957
:102320000895E1E0660F771F881FBB1F62177307D0
:102330008407BA0720F0621B730B840BBA0BEE1FE5
:1023400088F7E09508950E94AA116894B1110C9441
:10235000611208950E94461288F09F5798F0B92F95
:102360009927B751B0F0E1F0660F771F881F991FCA
:102370001AF0BA95C9F714C0B13091F00E946012FA
:10238000B1E008950C946012672F782F8827B85F0A
:1023900039F0B93FCCF3869577956795B395D9F722
:1023A0003EF490958095709561957F4F8F4F9F4F2C
:1023B0000895E89409C097FB3EF490958095709538
:1023C00061957F4F8F4F9F4F9923A9F0F92F96E981
:1023D000BB279395F695879577956795B795F111F6
:1023E000F8CFFAF4BB0F11F460FF1BC06F5F7F4F93
:1023F0008F4F9F4F16C0882311F096E911C07723A5
:1024000021F09EE8872F762F05C0662371F096E8AD
:10241000862F70E060E02AF09A95660F771F881F7C
:10242000DAF7880F9695879597F9089597F99F673A
:1024300080E870E060E008959FEF80EC089500244C
:102440000A941616170618060906089500240A9419
:1024500012161306140605060895092E0394000C9F
:1024600011F4882352F0BB0F40F4BF2B11F460FF2E
:1024700004C06F5F7F4F8F4F9F4F089557FD905857
:10248000440F551F59F05F3F71F04795880F97FB38
:10249000991F61F09F3F79F08795089512161306F2
:1024A0001406551FF2CF4695F1DF08C01616170621
:1024B0001806991FF1CF8695710561050894089556
:1024C000E894BB2766277727CB0197F908950E94E8
:1024D000D91208F48FEF08950E947F120C942D12E8
:1024E0000E941F1238F00E94261220F0952311F04E
:1024F0000C9416120C941C1211240C9461120E945C
:102500003E1270F3959FC1F3950F50E0551F629FE7
:10251000F001729FBB27F00DB11D639FAA27F00D3C
:10252000B11DAA1F649F6627B00DA11D661F829F63
:102530002227B00DA11D621F739FB00DA11D621F48
:10254000839FA00D611D221F749F3327A00D611D65
:10255000231F849F600D211D822F762F6A2F112447
:102560009F5750409AF0F1F088234AF0EE0FFF1F7A
:10257000BB1F661F771F881F91505040A9F79E3FD1
:10258000510580F00C9416120C9461125F3FE4F335
:10259000983ED4F3869577956795B795F795E79527
:1025A0009F5FC1F7FE2B880F911D9695879597F930
:1025B0000895990F0008550FAA0BE0E8FEEF1616D4
:1025C0001706E807F907C0F012161306E407F50727
:1025D00098F0621B730B840B950B39F40A2661F09B
:1025E000232B242B252B21F408950A2609F4A1403E
:1025F000A6958FEF811D811D0895EE0FFF1F059099
:10260000F491E02D0994F894FFCFB0040000BC02CF
:102610000000010000008E05DC058E05F2052A058C
:10262000A406A4062A052A05A406A4062A058305ED
:102630008C05500568061306D7051306F7052A050D
:10264000A406A4062A052A052A05A4064B06830526
:10265000C805780590067805E0057805EE052A0599
:10266000A406A4062A058D06A40640052A058305AE
:10267000640568065005C5059905C50535062A0592
:10268000A406A4062A052A05A406A4062A05B4055C
:1026900054068C052C06E7050806A405C605830527
:1026A0004006A4062A058D06A40640052A056C05E9
:1026B00050055005A005A406A406A406A406DC0542
:1026C000A406A406DC058D06A406A4064B06DC05BC
:1026D000A406A406A40614051405140514052A0569
:1026E000DC05DC052A052A052A0540052A055605CC
:1026F0001405140514050001020304050607080962
:102700000C0D0A0B0E0FC505DC05C505F2052A05E3
:10271000A406A4062A05DC05DC05AF051E06830514
:102720001405DC05DC050000000028028801B50165
:102730009002E601C401D8010000000054042704FF
:0E2740008304FD0320040D04FE030D0A0000B7
:107E0000112484B714BE81FFF0D085E080938100F7
:107E100082E08093C00088E18093C10086E0809377
:107E2000C20080E18093C4008EE0C9D0259A86E02C
:107E300020E33CEF91E0309385002093840096BBD3
:107E4000B09BFECF1D9AA8958150A9F7CC24DD24C4
:107E500088248394B5E0AB2EA1E19A2EF3E0BF2EE7
:107E6000A2D0813461F49FD0082FAFD0023811F036
:107E7000013811F484E001C083E08DD089C08234E0
:107E800011F484E103C0853419F485E0A6D080C0E4
:107E9000853579F488D0E82EFF2485D0082F10E0AE
:107EA000102F00270E291F29000F111F8ED06801E7
:107EB0006FC0863521F484E090D080E0DECF843638
:107EC00009F040C070D06FD0082F6DD080E0C81688
:107ED00080E7D80618F4F601B7BEE895C0E0D1E017
:107EE00062D089930C17E1F7F0E0CF16F0E7DF06D8
:107EF00018F0F601B7BEE89568D007B600FCFDCFD4
:107F0000A601A0E0B1E02C9130E011968C91119780
:107F100090E0982F8827822B932B1296FA010C0160
:107F200087BEE89511244E5F5F4FF1E0A038BF0790
:107F300051F7F601A7BEE89507B600FCFDCF97BE46
:107F4000E89526C08437B1F42ED02DD0F82E2BD052
:107F50003CD0F601EF2C8F010F5F1F4F84911BD097
:107F6000EA94F801C1F70894C11CD11CFA94CF0C13
:107F7000D11C0EC0853739F428D08EE10CD085E9AC
:107F80000AD08FE07ACF813511F488E018D01DD067
:107F900080E101D065CF982F8091C00085FFFCCF94
:107FA0009093C60008958091C00087FFFCCF809118
:107FB000C00084FD01C0A8958091C6000895E0E648
:107FC000F0E098E1908380830895EDDF803219F02E
:107FD00088E0F5DFFFCF84E1DECF1F93182FE3DFCA
:107FE0001150E9F7F2DF1F91089580E0E8DFEE27F6
:047FF000FF270994CA
:027FFE00040479
:00000001FF
