:100000000C949D000C94C5000C94C5000C94C50084
:100010000C94C5000C94C5000C94C5000C94C5004C
:100020000C94C5000C94C5000C94C5000C94C5003C
:100030000C94C5000C94C5000C94C5000C94C5002C
:100040000C947A060C94C5000C94EA060C94C40631
:100050000C94C5000C94C5000C94C5000C94C5000C
:100060000C941C070C94C5004641554C543A204949
:100070003243206572726F722E204375742073654F
:1000800072766F20706F77657220616E642063688E
:1000900065636B20776972696E673B207265736573
:1000A0007420746F2072657472792E004E45555419
:1000B00052414C0052554E4E494E47004F46460065
:1000C0005245414459206E61747572616C206661BD
:1000D00063652046554C4C204C494D49542053579C
:1000E000454550202D206F757470757473204F46F0
:1000F000460000000000250028002B000404040432
:1001000004040404020202020202030303030303C1
:10011000010204081020408001020408102001029E
:10012000040810200000000800020100000304077A
:1001300000000000000000003B0811241FBECFEFAC
:10014000D8E0DEBFCDBF11E0A0E0B1E0E6E4FEE123
:1001500002C005900D92A038B107D9F723E0A0E8BE
:10016000B1E001C01D92A732B207E1F710E0CDE97E
:10017000D0E004C02197FE010E941B0FCC39D107AB
:10018000C9F70E9474080C94210F0C94000090E0B1
:10019000FC01EC5DFE4F2491FC01E05FFE4F3491C9
:1001A000FC01E450FF4FE491EE23C9F0222339F023
:1001B000233001F1A8F4213019F1223029F1F0E0C7
:1001C000EE0FFF1FEE50FF4FA591B4918FB7F8943B
:1001D000EC91611126C030953E233C938FBF08956A
:1001E0002730A9F02830C9F0243049F780918000E9
:1001F0008F7D03C0809180008F7780938000DFCF58
:1002000084B58F7784BDDBCF84B58F7DFBCF8091A4
:10021000B0008F778093B000D2CF8091B0008F7DF7
:10022000F9CF3E2BDACF3FB7F89480912A02909114
:100230002B02A0912C02B0912D0226B5A89B05C0DF
:100240002F3F19F00196A11DB11D3FBFBA2FA92F55
:10025000982F8827BC01CD01620F711D811D911D52
:1002600042E0660F771F881F991F4A95D1F70895BE
:1002700008950895AF92BF92CF92DF92EF92FF92CE
:100280000F931F93CF93DF936C017B018B01040FBE
:10029000151FEB015E01AE18BF08C017D10759F05A
:1002A0006991D601ED91FC910190F081E02DC6019C
:1002B0000995892B79F7C501DF91CF911F910F9196
:1002C000FF90EF90DF90CF90BF90AF900895FC012A
:1002D000538D448D252F30E0842F90E0821B930BAB
:1002E000541710F0CF96089501970895FC01918D51
:1002F000828D981761F0A28DAE0FBF2FB11D5D9654
:100300008C91928D9F5F9F73928F90E008958FEFF5
:100310009FEF0895FC01918D828D981731F0828DA9
:10032000E80FF11D858D90E008958FEF9FEF089500
:10033000FC01918D228D892F90E0805C9F4F821B64
:1003400091098F73992708958EE792E00E94980192
:1003500021E0892B09F420E0822F089580E090E0CD
:10036000892B29F00E94A40181110C9400000895AA
:10037000FC01A48DA80FB92FB11DA35ABF4F2C911A
:10038000848D90E001968F739927848FA689B78911
:100390002C93A089B1898C91837080648C93938D08
:1003A000848D981306C00288F389E02D80818F7DAB
:1003B00080830895EF92FF920F931F93CF93DF9363
:1003C000EC0181E0888F9B8D8C8D98131AC0E88991
:1003D000F989808185FF15C09FB7F894EE89FF8960
:1003E0006083E889F98980818370806480839FBFFE
:1003F00081E090E0DF91CF911F910F91FF90EF90FE
:100400000895F62E0B8D10E00F5F1F4F0F7311270D
:10041000E02E8C8D8E110CC00FB607FCFACFE88948
:10042000F989808185FFF5CFCE010E94B801F1CF17
:10043000EB8DEC0FFD2FF11DE35AFF4FF0829FB7BC
:10044000F8940B8FEA89FB8980818062CFCF0F936C
:100450001F93CF93DF938C01D0E0C0E0F801EC0F45
:10046000FD1F6491662341F08EE792E00E94DA015D
:10047000892B11F02196F2CF42E050E06CE771E059
:100480008EE792E00E943A018C0F9D1FDF91CF9181
:100490001F910F910895CF93DF93EC01888D8823EE
:1004A000B9F0AA89BB89E889F9898C9185FD03C0D7
:1004B000808186FD0DC00FB607FCF7CF8C9185FFBC
:1004C000F2CF808185FFEDCFCE010E94B801E9CF48
:1004D000DF91CF9108952091C801260F3327331F54
:1004E00021323105ECF420915402FC0190E080E0CF
:1004F000243069F082E00895A091C8012191AC01F7
:1005000048555E4FA40FB52FB11D2C930196861749
:1005100098F38091C801680F6093C80180E0089546
:1005200081E008951092540281E08093530210926A
:100530002E0261E082E10E94C70061E083E10E9437
:10054000C700E9EBF0E080818E7F808380818D7F22
:10055000808388E48093B80085E48093BC0008958C
:10056000CF93DF9391E09093F1018823B9F0C0918C
:10057000B800D091BA008091BC008A7B8093BC0007
:1005800060E082E10E94C70060E083E10E94C70052
:100590000E949202D093BA00C093B800DF91CF912D
:1005A0000895CF92DF92EF92FF920F931F93CF9314
:1005B000DF93D0917D0281E0D13208F09CC0C091E0
:1005C0007C020E9413016B017C0180915402811115
:1005D0006CC082E08093540281E0809353028FEFDD
:1005E0008093520210925102D0935002ACE5B2E0D7
:1005F000E0E3F2E080E0D8138DC010922F028091EA
:100600002F02CC0FC82BC0932F0280912E02813075
:1006100009F084C010922E020E9413016B017C012C
:1006200080912F028093BB008091560290915702D7
:10063000A0915802B0915902892B8A2B8B2BA1F0E3
:100640000E94130100915602109157022091580206
:10065000309159026C197D098E099F0906171707F9
:100660002807390708F442C08091BC0083FDD8CF29
:1006700085EC8093BC000E9413016B017C0180918A
:100680005402823009F44CC0809152028F3F09F429
:1006900069C080915202803209F466C08091520292
:1006A000803309F463C084E026C0809156029091A3
:1006B0005702A0915802B0915902892B8A2B8B2B9B
:1006C00009F483CF0E941301009156021091570242
:1006D00020915802309159026C197D098E099F09A9
:1006E000061717072807390708F06FCF80915502C2
:1006F0000E94B00285E010925B0210927D0210927F
:100700005A02DF91CF911F910F91FF90EF90DF90F0
:10071000CF9008959D9191938F5F6DCF85EEA9CF76
:100720008091560290915702A0915802B0915902BF
:10073000892B8A2B8B2B09F4A2CF0E9413010091E5
:1007400056021091570220915802309159026C19AB
:100750007D098E099F09061717072807390708F032
:100760008ECFC4CF80E0C7CF82E0C5CF83E0C3CFB8
:100770000895E091F0018091EF01E81730F4F0E086
:10078000E857FE4F808190E008958FEF9FEF089526
:100790009091F0018091EF012FEF3FEF981748F40F
:1007A000E92FF0E0E857FE4F208130E09F5F909303
:1007B000F001C90108958091EF019091F001891B2A
:1007C000990B0895CF92DF92EF92FF920F931F93B0
:1007D000CF93DF937C01CB018A0120915A0222231F
:1007E00089F0EB016B01C40ED51ECC15DD0569F057
:1007F0006991D701ED91FC910190F081E02DC70145
:100800000995F3CF642F0E946B02C801DF91CF914D
:100810001F910F91FF90EF90DF90CF900895CF93AD
:10082000DF931F92CDB7DEB7698320915A0222234E
:10083000F9F020917D02203258F021E030E0FC01F7
:100840003383228390E080E00F90DF91CF91089571
:1008500080915B02E82FF0E0E45AFD4F998190838C
:100860008F5F80935B0280937D0281E090E0ECCF0C
:1008700061E0CE0101960E946B02F7CF90E080E02C
:1008800008954F925F926F927F928F929F92AF9254
:10089000BF92CF92DF92EF92FF920F931F93CF936D
:1008A000DF93C0E0D1E0E2E1EE2EE2E0FE2EF4E4E0
:1008B000CF2EF1E0DF2EAAE04A2EA2E05A2EECE382
:1008C000F1E05C01A8E0AA0EB11C89909990D701D3
:1008D0008D929D927D01DC016D907D90CD01D601C0
:1008E0008D909D906D016814790434F08080918022
:1008F000681479040CF44301D2018D929D922D016C
:1009000032968A159B0509F7EFB7F8948091260275
:1009100090912702A0912802B0912902EFBF809305
:100920001A0290931B02A0931C02B0931D024093E5
:1009300008015093090160930A0170930B01009321
:10094000060210930702209308023093090281E007
:1009500080931E02DF91CF911F910F91FF90EF9036
:10096000DF90CF90BF90AF909F908F907F906F90CF
:100970005F904F900895CF93DF93D62FC72F91E0CC
:1009800090935A0290E490937C0210925B02109232
:100990007D0294E0899FB00111246A5F7F4F8BE153
:1009A00093E00E940F0460E08BE193E00E940F044B
:1009B00060E08BE193E00E940F046D2F8BE193E0E8
:1009C0000E940F046C2F8BE193E00E940F040E94A1
:1009D000D10291E0811190E0892FDF91CF910895AC
:1009E000CF93DF931092010210921E021092230205
:1009F000C0E0D1E060E070E18C2F0E94BB04811167
:100A000001C0D0E0CF5FC031A9F7109281011092F0
:100A10008001109283011092820110928501109240
:100A2000840110928701109286018D2FDF91CF9162
:100A30000895109224020E94F00488E690E00C943D
:100A400027023F924F925F926F927F928F929F9276
:100A5000AF92BF92CF92DF92EF92FF920F931F93CC
:100A6000CF93DF9300D000D0CDB7DEB780E091E028
:100A70009C838B83E4E4F1E0FA83E98330E8E32E9E
:100A800031E0F32E08E311E04CE3C42E41E0D42E14
:100A900050E2452E5EE4552E612C712CEB81FC81D9
:100AA00081919191FC83EB83E981FA81619171914C
:100AB000FA83E983861797073CF0F601608171811C
:100AC000861797070CF4BC01EB81FC813297718388
:100AD0006083072E000C880B990B2CE0660F771FA4
:100AE000881F991F2A95D1F7605F784D8F4F9F4FD0
:100AF000A30192010E94AA0C4901F70181919191F1
:100B00007F018217930729F1B901F80180810E94C2
:100B1000BB04382E811119C00E941905832D0F9036
:100B20000F900F900F90DF91CF911F910F91FF9039
:100B3000EF90DF90CF90BF90AF909F908F907F907D
:100B40006F905F904F903F900895F7013297918298
:100B500080820F5F1F4FF2E0CF0ED11C8B819C81F2
:100B60008850914009F09ACF33243394D7CF0F9314
:100B70001F93CF938091FA01811162C0C091FB0154
:100B8000C13009F05DC08091F201803381F40E9490
:100B9000F004811105C0CF911F910F910C9419059C
:100BA0008CEB90E0CF911F910F910C9427029091C4
:100BB0002402992309F444C08153823008F040C0D4
:100BC0008091230281111EC082EF95E09093010174
:100BD0008093000185EC95E09093030180930201DE
:100BE00083E895E0909305018093040181E696E007
:100BF00090930701809306010E942105882301F14B
:100C0000C0932302C091F20181E0C13309F080E07A
:100C1000809301021092000208E512E020E030E02B
:100C20004CE251E060E070E08CE491E00E9441040D
:100C30008CEA90E0C13309F0B5CF84EB90E0B2CFFD
:100C4000CF911F910F910895CF93C62F91E090936C
:100C50005A0290E490937C0210925B0210927D0203
:100C6000682F8BE193E00E940F046C2F8BE193E0DF
:100C70000E940F040E94D10291E0811190E0892F1F
:100C8000CF91089585ED8093BC008091560290919C
:100C90005702A0915802B09159020796A11DB11DAB
:100CA00023E0B695A795979587952A95D1F720913A
:100CB000BC0024FD03C010925402089540915602D6
:100CC000509157026091580270915902452B462B62
:100CD000472B69F30097A105B10541F02AE22A9557
:100CE000F1F700C00197A109B109E1CF8091550248
:100CF0000C94B0021F920F920FB60F9211242F93F3
:100D00003F938F939F93AF93BF93809126029091CF
:100D10002702A0912802B09129023091250223E0F8
:100D2000230F2D3758F50196A11DB11D20932502E3
:100D30008093260290932702A0932802B093290261
:100D400080912A0290912B02A0912C02B0912D0249
:100D50000196A11DB11D80932A0290932B02A093AE
:100D60002C02B0932D02BF91AF919F918F913F9133
:100D70002F910F900FBE0F901F90189526E8230F0C
:100D80000296A11DB11DD2CF1F920F920FB60F92E6
:100D900011242F933F934F935F936F937F938F9380
:100DA0009F93AF93BF93EF93FF938EE792E00E94E0
:100DB000B801FF91EF91BF91AF919F918F917F917A
:100DC0006F915F914F913F912F910F900FBE0F90B8
:100DD0001F9018951F920F920FB60F9211242F9308
:100DE0008F939F93EF93FF93E0918E02F0918F0288
:100DF0008081E0919402F091950282FD1BC0908168
:100E0000809197028F5F8F7320919802821741F033
:100E1000E0919702F0E0E258FD4F958F80939702A2
:100E2000FF91EF919F918F912F910F900FBE0F9097
:100E30001F9018958081F4CF1F920F920FB60F92DA
:100E400011242F933F934F935F936F937F938F93CF
:100E50009F93AF93BF93EF93FF938091B900887FE7
:100E6000803609F44AC0F0F5883209F4A7C018F5B5
:100E7000803109F49BC0B8F4882309F4F9C08830A4
:100E800009F494C0FF91EF91BF91AF919F918F9121
:100E90007F916F915F914F913F912F910F900FBE76
:100EA0000F901F901895883109F488C0803251F74F
:100EB0008093520214C0803409F49DC040F4803302
:100EC000B9F38833F9F68093520285ECB0C08035CF
:100ED00009F485C0883509F496C0883499F60E94D3
:100EE0004206D0CF883909F48CC038F5883729F00C
:100EF00050F4883611F0803729F683E0809354024D
:100F00001092EA0157C0883809F47BC0803919F083
:100F1000803809F0B7CF8091EA01803208F071C0C3
:100F2000E091EA0181E08E0F8093EA018091BB009D
:100F3000F0E0E653FE4F80833DC0803B39F0E0F4A3
:100F4000803A09F479C0883A09F09CCF84E0809314
:100F500054021092C9011092C801E091ED01F09184
:100F6000EE0109958091C80181110FC081E0809345
:100F7000C8011092A80109C0803C09F4A6CF883CA2
:100F800009F4A3CF883B09F07DCFE091C90181E04E
:100F90008E0F8093C901F0E0E855FE4F8081809369
:100FA000BB009091C9018091C80129C080912F0296
:100FB0008093BB0085EC8093BC0064CF909151027C
:100FC00080915002981758F5E091510281E08E0F00
:100FD00080935102F0E0E05DFD4F8081E9CFE09128
:100FE000510281E08E0F809351028091BB00F0E0AE
:100FF000E05DFD4F808390915102809150029817DF
:10100000C8F285E8D8CFE091510281E08E0F80933D
:1010100051028091BB00F0E0E05DFD4F8083809144
:10102000530281115CCF81E080932E0284EA809389
:10103000BC001092540226CF85EC8093BC00109225
:1010400054028091EA01803230F4E091EA01F0E04C
:10105000E653FE4F10826091EA0170E0E091EB01EF
:10106000F091EC018AEC91E009951092EA010ACF27
:101070001092520234CFEEE7F2E01382128288EE31
:1010800093E0A0E0B0E084839583A683B7832CE54A
:1010900031E03183208325EC30E03587248724EC50
:1010A00030E03787268720EC30E0318B208B21EC35
:1010B00030E0338B228B22EC30E0358B248B26EC16
:1010C00030E0378B268B118E128E138E148EEBE14F
:1010D000F3E01382128284839583A683B7838EE61E
:1010E00091E0918380830895CF93DF93CDB7DEB7EE
:1010F000C054D1090FB6F894DEBF0FBECDBF7894AF
:1011000084B5826084BD84B5816084BD85B582600C
:1011100085BD85B5816085BD80916E0081608093BD
:101120006E00109281008091810082608093810026
:101130008091810081608093810080918000816036
:10114000809380008091B10084608093B100809191
:10115000B00081608093B00080917A0084608093B9
:101160007A0080917A00826080937A0080917A0080
:10117000816080937A0080917A00806880937A0001
:101180001092C100E0918E02F0918F0282E0808384
:10119000E0918A02F0918B021082E0918C02F09132
:1011A0008D0280E1808310929602E0919202F0918C
:1011B000930286E08083E0919002F0919102808119
:1011C00080618083E0919002F0919102808188603B
:1011D0008083E0919002F091910280818068808309
:1011E000E0919002F091910280818F7D8083109236
:1011F000F0011092EF0110925B0210927D020E94AA
:10120000920288E391E09093EE018093ED0189E3EF
:1012100091E09093EC018093EB011092F10188EA48
:1012200091E6A0E0B0E08093560290935702A0931D
:101230005802B093590281E0809355020E94F00455
:1012400081112CC00E9419058EE792E00E9498013E
:10125000892B09F49DC08EE792E00E9476019FB72A
:10126000F8944091260250912702609128027091D3
:1012700029029FBF4093FC015093FD016093FE0142
:101280007093FF018A3019F08D3009F06CC00E9414
:10129000B7051092FB011092FA01D6CF60E180E011
:1012A0000E942406882371F269E78EEF0E942406CB
:1012B000882341F260E280E00E942406882311F234
:1012C0000E9413014B015C0125E0C22ED12CE12CC0
:1012D000F12C0E941301681979098A099B09683E5B
:1012E000734081059105A8F321E0C21AD108E108F5
:1012F000F10838EE830E33E0931EA11CB11CC1141B
:10130000D104E104F10429F760EA80E00E94240698
:10131000882309F497CF0E94F004882309F492CF20
:1013200080E480937C0080917A00806480937A00CE
:1013300080917A0086FDFCCF6091780070917900F1
:10134000072E000C880B990B61157105810591051D
:1013500011F00E946F0C81E08093240280EC90E0F9
:101360000E94270271CF9091FA0191116DCFE09107
:10137000FB01E83048F491E09E0F9093FB01F0E010
:10138000EE50FE4F808360CF51E05093FA015CCF66
:101390008091FB01811104C08091FA01882311F131
:1013A0002FB7F8948091260290912702A0912802ED
:1013B000B09129022FBF4091FC015091FD01609135
:1013C000FE017091FF01841B950BA60BB70B8B34AC
:1013D0009105A105B10530F00E94B7051092FB01FF
:1013E0001092FA0180912402882309F419C1809196
:1013F0002302882309F414C18FB7F8948090260241
:1014000090902702A0902802B09029028FBF80916F
:101410001F0290912002A0912102B0912202A50109
:101420009401281B390B4A0B5B0BDA01C901449765
:10143000A105B10508F4F4C080921F029092200229
:10144000A0922102B092220280911E02882309F408
:10145000FBC080911A0290911B02A0911C02B091D6
:101460001D0224013501481A590A6A0A7B0A809133
:10147000080190910901A0910A01B0910B018FAB75
:1014800098AFA9AFBAAF94E5292E91E0392EA2E129
:10149000B2E0BEABADABEAE0F2E0FCABEBAB20E020
:1014A00031E03AAB29ABD1018D911D0190E0B0E064
:1014B000A0E0C12CD12C760184159505A605B705B1
:1014C00018F5A3019201281B390B4A0B5B0BCA01CB
:1014D000B9010E94F00D6B017C016FA978AD89AD57
:1014E0009AAD0E94F00D9B01AC01C701B6010E94AC
:1014F000480D6B017C0120E030E040E85FE30E9492
:101500007E0E18160CF499C0ADA9BEA90D911D91BF
:10151000BEABADABEBA9FCA921913191FCABEBAB20
:101520003CAF2BAF20E030E040EC50E4C701B60107
:101530000E94830E20E030E040E751E40E94DB0C83
:10154000A70196010E94830E20E030E040E251E4C2
:101550000E94DC0C21966CAF7DAF8EAF9FAF2197C0
:10156000A7019601C701B6010E94830EA70196014B
:101570000E94830E9B01AC0121966CAD7DAD8EADBA
:101580009FAD21970E94830E6B017C016BAD7CADFA
:10159000601B710B072E000C880B990B0E94F20D3B
:1015A0009B01AC01C701B6010E94830E0E94BA0DD7
:1015B000600F711FA9A9BAA96D937D93BAABA9ABAE
:1015C000E8E5F1E0E215F30509F06DCF0E94210591
:1015D000882331F18091080190910901A0910A01BD
:1015E000B0910B014496A11DB11D481659066A061B
:1015F0007B06B0F010921E028091060290910702C5
:10160000A0910802B0910902880D991DAA1DBB1D69
:101610008093020290930302A0930402B093050208
:1016200020E030E0232B09F40FCE0E94A401882390
:1016300009F40ACE0E94000007CEC12CD12C80E80C
:10164000E82E8FE3F82E60CF80910102882341F3CA
:101650008091020290910302A0910402B0910502D0
:10166000881A990AAA0ABB0AB7FCDACF809100024D
:10167000882379F10E94200C6B017C010E94200CD0
:101680004B015C01C701B60125E833E040E050E0C2
:101690000E94780C6B017C01FCEBCF0EF2E0DF1EA8
:1016A000E11CF11CC501B40125EB30E040E050E045
:1016B0000E94780CAB01BC0144525F4F6F4F7F4FCB
:1016C000970186018CE491E00E944104109200028F
:1016D000A7CF88E2E0E1F1E0DE01119601900D92E2
:1016E0008A95E1F70E94200C7E0129E2E20EF11CAE
:1016F00025E030E040E050E00E94780C38E0639F45
:101700006001112410E000E05701F601E00FF11F25
:1017100041E050E04C0F5D1FE40FF51FA081B18147
:1017200020E931E00E94140F24EB30E040E050E06B
:101730000E94780C2C5E3A4FD7012D933D937D018A
:101740000E5F1F4F0830110501F70E94200C6B013E
:101750007C010E94200C2B013C01C701B6012DEB3E
:1017600032E040E050E00E94780C6B017C01B4EF65
:10177000CB0EB1E0DB1EE11CF11CC301B2012BEF6B
:1017800030E040E050E00E94780CAB01BC014E53C9
:101790005E4F6F4F7F4F97018601C5010E94410444
:1017A000E1E0E09300023CCF8F929F92AF92BF9214
:1017B000CF92DF92EF92FF92CF93DF93EC0168819B
:1017C00079818A819B81611571058105910521F4DB
:1017D00064E279ED8BE597E02DE133EF41E050E0F5
:1017E0000E94780C49015A019B01AC01A7EAB1E4BF
:1017F0000E94970C6B017C01ACEEB4EFA501940143
:101800000E94A50CC60ED71EE81EF91EF7FE06C0E4
:1018100081E0C81AD108E10880E8F80AC882D982B4
:10182000EA82FB82C701B6019F77DF91CF91FF90DB
:10183000EF90DF90CF90BF90AF909F908F900895E2
:101840008F929F92AF92BF92CF92DF92EF92FF92D0
:1018500060910C0170910D0180910E0190910F012A
:10186000611571058105910521F464E279ED8BE53F
:1018700097E02DE133EF41E050E00E94780C490100
:101880005A019B01AC01A7EAB1E40E94970C6B01DD
:101890007C01ACEEB4EFA50194010E94A50CC60E2C
:1018A000D71EE81EF91EF7FE06C081E0C81AD1084F
:1018B000E10880E8F80AC0920C01D0920D01E09294
:1018C0000E01F0920F01C701B6019F77FF90EF90D4
:1018D000DF90CF90BF90AF909F908F9008956093CE
:1018E0000C0170930D0180930E0190930F010895E8
:1018F000052E97FB1EF400940E948F0C57FD07D015
:101900000E94AA0C07FC03D04EF40C948F0C509547
:101910004095309521953F4F4F4F5F4F08959095DB
:101920008095709561957F4F8F4F9F4F08950E94CE
:10193000CC0CA59F900DB49F900DA49F800D911D80
:1019400011240895B7FF0C94970C0E94970C821BEA
:10195000930B0895A1E21A2EAA1BBB1BFD010DC01B
:10196000AA1FBB1FEE1FFF1FA217B307E407F5074F
:1019700020F0A21BB30BE40BF50B661F771F881F2B
:10198000991F1A9469F760957095809590959B01C1
:10199000AC01BD01CF010895A29FB001B39FC0016A
:1019A000A39F700D811D1124911DB29F700D811D8B
:1019B0001124911D08955058BB27AA270E94F30CAB
:1019C0000C94440E0E94360E38F00E943D0E20F01A
:1019D00039F49F3F19F426F40C94330E0EF4E0957D
:1019E000E7FB0C942D0EE92F0E94550E58F3BA1701
:1019F000620773078407950720F079F4A6F50C9425
:101A0000770E0EF4E0950B2EBA2FA02D0B01B90125
:101A100090010C01CA01A0011124FF27591B99F064
:101A2000593F50F4503E68F11A16F040A22F232F70
:101A3000342F4427585FF3CF469537952795A795C0
:101A4000F0405395C9F77EF41F16BA0B620B730B67
:101A5000840BBAF09150A1F0FF0FBB1F661F771FD8
:101A6000881FC2F70EC0BA0F621F731F841F48F48D
:101A7000879577956795B795F7959E3F08F0B0CF16
:101A80009395880F08F09927EE0F979587950895FD
:101A90000E945C0D0C94440E0E943D0E58F00E9472
:101AA000360E40F029F45F3F29F00C942D0E5111B1
:101AB0000C94780E0C94330E0E94550E68F3992303
:101AC000B1F3552391F3951B550BBB27AA2762173A
:101AD0007307840738F09F5F5F4F220F331F441F47
:101AE000AA1FA9F335D00E2E3AF0E0E832D091507B
:101AF0005040E695001CCAF72BD0FE2F29D0660F68
:101B0000771F881FBB1F261737074807AB07B0E8AA
:101B100009F0BB0B802DBF01FF2793585F4F3AF0B0
:101B20009E3F510578F00C942D0E0C94780E5F3F7B
:101B3000E4F3983ED4F3869577956795B795F79536
:101B40009F5FC9F7880F911D9695879597F908951E
:101B5000E1E0660F771F881FBB1F621773078407BA
:101B6000BA0720F0621B730B840BBA0BEE1F88F7C9
:101B7000E09508950E94C10D6894B1110C94780EFF
:101B800008950E945D0E88F09F5798F0B92F99270D
:101B9000B751B0F0E1F0660F771F881F991F1AF058
:101BA000BA95C9F714C0B13091F00E94770EB1E038
:101BB00008950C94770E672F782F8827B85F39F037
:101BC000B93FCCF3869577956795B395D9F73EF4F1
:101BD00090958095709561957F4F8F4F9F4F089599
:101BE000E89409C097FB3EF49095809570956195B7
:101BF0007F4F8F4F9F4F9923A9F0F92F96E9BB276D
:101C00009395F695879577956795B795F111F8CFE8
:101C1000FAF4BB0F11F460FF1BC06F5F7F4F8F4F53
:101C20009F4F16C0882311F096E911C0772321F049
:101C30009EE8872F762F05C0662371F096E8862FE1
:101C400070E060E02AF09A95660F771F881FDAF738
:101C5000880F9695879597F9089597F99F6780E87B
:101C600070E060E008959FEF80EC089500240A94EE
:101C70001616170618060906089500240A94121667
:101C80001306140605060895092E0394000C11F49A
:101C9000882352F0BB0F40F4BF2B11F460FF04C047
:101CA0006F5F7F4F8F4F9F4F089557FD9058440FA0
:101CB000551F59F05F3F71F04795880F97FB991FAB
:101CC00061F09F3F79F08795089512161306140668
:101CD000551FF2CF4695F1DF08C0161617061806F5
:101CE000991FF1CF86957105610508940895E894D0
:101CF000BB2766277727CB0197F908950E94F00E3E
:101D000008F48FEF08950E94960E0C94440E0E94E2
:101D1000360E38F00E943D0E20F0952311F00C9401
:101D20002D0E0C94330E11240C94780E0E94550E37
:101D300070F3959FC1F3950F50E0551F629FF0011E
:101D4000729FBB27F00DB11D639FAA27F00DB11D37
:101D5000AA1F649F6627B00DA11D661F829F2227C0
:101D6000B00DA11D621F739FB00DA11D621F839F47
:101D7000A00D611D221F749F3327A00D611D231F1D
:101D8000849F600D211D822F762F6A2F11249F576B
:101D900050409AF0F1F088234AF0EE0FFF1FBB1F6E
:101DA000661F771F881F91505040A9F79E3F51052D
:101DB00080F00C942D0E0C94780E5F3FE4F3983E67
:101DC000D4F3869577956795B795F795E7959F5FD7
:101DD000C1F7FE2B880F911D9695879597F9089569
:101DE000990F0008550FAA0BE0E8FEEF161617062C
:101DF000E807F907C0F012161306E407F50798F094
:101E0000621B730B840B950B39F40A2661F0232BAC
:101E1000242B252B21F408950A2609F4A140A69528
:101E20008FEF811D811D08950E94CC0CB7FF08958E
:101E3000821B930B0895EE0FFF1F0590F491E02D88
:061E40000994F894FFCFA5
:101E4600F205C50583056106E803000001000000F0
:101E5600B4000000B40000000000B4000000B400AC
:101E6600A0001400AA0014001400A0001400A00092
:101E7600B40000001400A00008090C0DA406A40676
:101E8600A406A4061405140514051405F205C505D3
:101E960083056106000A0F1400000000DA013A010A
:101EA60067014B02980176018A01000000000F04C9
:101EB600E2033E04B803DB03C803B9030D0A0000BE
:00000001FF
