:020000040000FA
:100000000C94A1000C94C9000C94C9000C94C90074
:100010000C94C9000C94C9000C94C9000C94C9003C
:100020000C94C9000C94C9000C94C9000C94C9002C
:100030000C94C9000C94C9000C94C9000C94C9001C
:100040000C946D050C94C9000C94DD050C94B70557
:100050000C94C9000C94C9000C94C9000C94C900FC
:100060000C940F060C94C9005245414459206579FF
:1000700065206368616E6E656C7320302D333B20A4
:100080006F757470757473204F464600504341205D
:100090005345545550204641494C45440050434136
:1000A000204E4F5420464F554E44206174203078E6
:1000B00034302C20493243207374617475732000EE
:1000C000207573002070756C7365200020706F734D
:1000D0006974696F6E2000204348004579652000EF
:1000E000504341205752495445204641494C4544CC
:1000F0000045594553204F464600000000002500AA
:1001000028002B0004040404040404040202020274
:1001100002020303030303030102040810204080CA
:100120000102040810200102040810200000000849
:1001300000020100000304070000000000000000AE
:100140002E0711241FBECFEFD8E0DEBFCDBF11E0D8
:10015000A0E0B1E0EEE2F3E102C005900D92AC3216
:10016000B107D9F722E0ACE2B1E001C01D92A63A96
:10017000B207E1F710E0C1EAD0E004C02197FE0128
:100180000E948009C03AD107C9F70E9467070C9402
:1001900095090C94000090E0FC01E45DFE4F249171
:1001A000FC01E85EFE4F3491FC01EC5FFE4FE491F0
:1001B000EE23C9F0222339F0233001F1A8F42130D5
:1001C00019F1223029F1F0E0EE0FFF1FE650FF4F4A
:1001D000A591B4918FB7F894EC91611126C0309538
:1001E0003E233C938FBF08952730A9F02830C9F0F3
:1001F000243049F7809180008F7D03C0809180007A
:100200008F7780938000DFCF84B58F7784BDDBCF7D
:1002100084B58F7DFBCF8091B0008F778093B00045
:10022000D2CF8091B0008F7DF9CF3E2BDACF3FB790
:10023000F8948091A9019091AA01A091AB01B0918D
:10024000AC0126B5A89B05C02F3F19F00196A11D52
:10025000B11D3FBFBA2FA92F982F8827BC01CD0110
:10026000620F711D811D911D42E0660F771F881F6F
:10027000991F4A95D1F7089508950895AF92BF92B6
:10028000CF92DF92EF92FF920F931F93CF93DF9362
:100290006C017B018B01040F151FEB015E01AE1891
:1002A000BF08C017D10759F06991D601ED91FC91B3
:1002B0000190F081E02DC6010995892B79F7C501E0
:1002C000DF91CF911F910F91FF90EF90DF90CF9032
:1002D000BF90AF900895FC01538D448D252F30E0E1
:1002E000842F90E0821B930B541710F0CF96089543
:1002F00001970895FC01918D828D981761F0A28D70
:10030000AE0FBF2FB11D5D968C91928D9F5F9F7335
:10031000928F90E008958FEF9FEF0895FC01918DEB
:10032000828D981731F0828DE80FF11D858D90E058
:1003300008958FEF9FEF0895FC01918D228D892FF5
:1003400090E0805C9F4F821B91098F7399270895DD
:100350008DEF91E00E949C0121E0892B09F420E0BF
:10036000822F089580E090E0892B29F00E94A80157
:1003700081110C9400000895FC01A48DA80FB92FE1
:10038000B11DA35ABF4F2C91848D90E001968F73BD
:100390009927848FA689B7892C93A089B1898C91DC
:1003A000837080648C93938D848D981306C002882B
:1003B000F389E02D80818F7D80830895EF92FF92F5
:1003C0000F931F93CF93DF93EC0181E0888F9B8D78
:1003D0008C8D98131AC0E889F989808185FF15C032
:1003E0009FB7F894EE89FF896083E889F989808155
:1003F0008370806480839FBF81E090E0DF91CF9124
:100400001F910F91FF90EF900895F62E0B8D10E045
:100410000F5F1F4F0F731127E02E8C8D8E110CC0B4
:100420000FB607FCFACFE889F989808185FFF5CFFF
:10043000CE010E94BC01F1CFEB8DEC0FFD2FF11D21
:10044000E35AFF4FF0829FB7F8940B8FEA89FB893C
:1004500080818062CFCF0F931F93CF93DF938C0166
:10046000D0E0C0E0F801EC0FFD1F6491662341F07D
:100470008DEF91E00E94DE01892B11F02196F2CFE1
:10048000CE01DF91CF911F910F910895CF93DF930C
:10049000EC01888D8823B9F0AA89BB89E889F9899C
:1004A0008C9185FD03C0808186FD0DC00FB607FCD1
:1004B000F7CF8C9185FFF2CF808185FFEDCFCE0104
:1004C0000E94BC01E9CFDF91CF91089520916D0189
:1004D000260F3327331F21323105ECF42091D3014D
:1004E000FC0190E080E0243069F082E00895A09162
:1004F0006D012191AC01435B5E4FA40FB52FB11D7F
:100500002C930196861798F380916D01680F609384
:100510006D0180E0089581E008951092D30181E09B
:100520008093D2011092AD0161E082E10E94CB0084
:1005300061E083E10E94CB00E9EBF0E080818E7FF7
:10054000808380818D7F808388E48093B80085E4F8
:100550008093BC000895CF93DF9391E090934C017A
:100560008823B9F0C091B800D091BA008091BC0046
:100570008A7B8093BC0060E082E10E94CB0060E057
:1005800083E10E94CB000E948D02D093BA00C093F9
:10059000B800DF91CF910895CF92DF92EF92FF9252
:1005A0000F931F93CF93DF93D091FC0181E0D13261
:1005B00008F09CC0C091FB010E9417016B017C01F7
:1005C0008091D30181116CC082E08093D30181E0DE
:1005D0008093D2018FEF8093D1011092D001D093FC
:1005E000CF01ABEDB1E0EFEAF1E080E0D8138DC0D0
:1005F0001092AE018091AE01CC0FC82BC093AE011A
:100600008091AD01813009F084C01092AD010E944B
:1006100017016B017C018091AE018093BB0080913A
:10062000D5019091D601A091D701B091D801892B25
:100630008A2B8B2BA1F00E9417010091D5011091FC
:10064000D6012091D7013091D8016C197D098E090E
:100650009F09061717072807390708F442C0809139
:10066000BC0083FDD8CF85EC8093BC000E941701AD
:100670006B017C018091D301823009F44CC08091E0
:10068000D1018F3F09F469C08091D101803209F412
:1006900066C08091D101803309F463C084E026C034
:1006A0008091D5019091D601A091D701B091D80148
:1006B000892B8A2B8B2B09F483CF0E941701009181
:1006C000D5011091D6012091D7013091D8016C1934
:1006D0007D098E099F09061717072807390708F0B3
:1006E0006FCF8091D4010E94AB0285E01092DA01B5
:1006F0001092FC011092D901DF91CF911F910F91BF
:10070000FF90EF90DF90CF9008959D9191938F5F30
:100710006DCF85EEA9CF8091D5019091D601A091A2
:10072000D701B091D801892B8A2B8B2B09F4A2CF4A
:100730000E9417010091D5011091D6012091D70197
:100740003091D8016C197D098E099F09061717078A
:100750002807390708F08ECFC4CF80E0C7CF82E0EA
:10076000C5CF83E0C3CF0895E091950180919401B6
:10077000E81730F4F0E0E45DFE4F808190E00895EA
:100780008FEF9FEF089590919501809194012FEF45
:100790003FEF981748F4E92FF0E0E45DFE4F208129
:1007A00030E09F5F90939501C90108958091940175
:1007B00090919501891B990B0895CF92DF92EF924A
:1007C000FF920F931F93CF93DF937C01CB018A019C
:1007D0002091D901222389F0EB016B01C40ED51EB3
:1007E000CC15DD0569F06991D701ED91FC9101907F
:1007F000F081E02DC7010995F3CF642F0E946602B6
:10080000C801DF91CF911F910F91FF90EF90DF9082
:10081000CF900895CF93DF931F92CDB7DEB7698352
:100820002091D9012223F9F02091FC01203258F0C7
:1008300021E030E0FC013383228390E080E00F90E0
:10084000DF91CF9108958091DA01E82FF0E0E55231
:10085000FE4F998190838F5F8093DA018093FC0132
:1008600081E090E0ECCF61E0CE0101960E9466024B
:10087000F7CF90E080E00895CF93DF93D62FC72F76
:1008800091E09093D90190E49093FB011092DA01EA
:100890001092FC0194E0899FB00111246A5F7F4FA0
:1008A0008AE992E00E940A0460E08AE992E00E94EC
:1008B0000A0460E08AE992E00E940A046D2F8AE946
:1008C00092E00E940A046C2F8AE992E00E940A04D6
:1008D0000E94CC0291E0811190E0892FDF91CF91AD
:1008E000089560E070E180E00E943C0460E070E107
:1008F00081E00E943C0460E070E182E00E943C04E0
:1009000060E070E183E00C943C04CF93C62F91E04B
:100910009093D90190E49093FB011092DA01109228
:10092000FC01682F8AE992E00E940A046C2F8AE990
:1009300092E00E940A040E94CC0291E0811190E0B2
:10094000892FCF9108958F929F92AF92BF920F936C
:100950001F93CF93DF93CDB7DEB7A1970FB6F8946F
:10096000DEBF0FBECDBF19A2423008F44AE08E01AF
:100970000F5D1F4F842E912CB12CA12CA501940149
:100980000E943809E62FB901CA01EA3044F5E05D5A
:10099000D801EE938D01232B242B252B79F790E0A2
:1009A00080E0109769F0FD0101900020E9F7319790
:1009B000AF014A1B5B0BBD018DEF91E00E943E0130
:1009C000A1960FB6F894DEBF0FBECDBFDF91CF91D9
:1009D0001F910F91BF90AF909F908F900895E95C09
:1009E000D7CF42E050E068E271E08DEF91E00C94E7
:1009F0003E01CF93DF930E942B02EC010E94F10491
:100A00008C0F9D1FDF91CF910895CF92DF92EF92CF
:100A1000FF92CF93DF936C01990FEE08FF08F7FE6A
:100A200019C06DE28DEF91E00E94DE01EC016627B6
:100A30007727CB016C197D098E099F094AE00E9436
:100A4000A3048C0F9D1FDF91CF91FF90EF90DF905B
:100A5000CF9008954AE0C701B601DF91CF91FF9092
:100A6000EF90DF90CF900C94A30485ED8093BC00B1
:100A70008091D5019091D601A091D701B091D80174
:100A80000796A11DB11D23E0B695A795979587956B
:100A90002A95D1F72091BC0024FD03C01092D30108
:100AA00008954091D5015091D6016091D701709180
:100AB000D801452B462B472B69F30097A105B105BB
:100AC00041F02AE22A95F1F700C00197A109B10986
:100AD000E1CF8091D4010C94AB021F920F920FB61C
:100AE0000F9211242F933F938F939F93AF93BF93B4
:100AF0008091A5019091A601A091A701B091A801B4
:100B00003091A40123E0230F2D3758F50196A11D44
:100B1000B11D2093A4018093A5019093A601A093F9
:100B2000A701B093A8018091A9019091AA01A09179
:100B3000AB01B091AC010196A11DB11D8093A9013B
:100B40009093AA01A093AB01B093AC01BF91AF9178
:100B50009F918F913F912F910F900FBE0F901F90FB
:100B6000189526E8230F0296A11DB11DD2CF1F9222
:100B70000F920FB60F9211242F933F934F935F93D1
:100B80006F937F938F939F93AF93BF93EF93FF9355
:100B90008DEF91E00E94BC01FF91EF91BF91AF9169
:100BA0009F918F917F916F915F914F913F912F9185
:100BB0000F900FBE0F901F9018951F920F920FB6B7
:100BC0000F9211242F938F939F93EF93FF93E091B4
:100BD0000D02F0910E028081E0911302F091140257
:100BE00082FD1BC09081809116028F5F8F732091D0
:100BF0001702821741F0E0911602F0E0E350FE4F39
:100C0000958F80931602FF91EF919F918F912F9175
:100C10000F900FBE0F901F9018958081F4CF1F92F8
:100C20000F920FB60F9211242F933F934F935F9320
:100C30006F937F938F939F93AF93BF93EF93FF93A4
:100C40008091B900887F803609F44AC0F0F5883277
:100C500009F4A7C018F5803109F49BC0B8F48823C3
:100C600009F4F9C0883009F494C0FF91EF91BF9165
:100C7000AF919F918F917F916F915F914F913F9134
:100C80002F910F900FBE0F901F901895883109F487
:100C900088C0803251F78093D10114C0803409F4A8
:100CA0009DC040F48033B9F38833F9F68093D101C5
:100CB00085ECB0C0803509F485C0883509F496C04C
:100CC000883499F60E943505D0CF883909F48CC054
:100CD00038F5883729F050F4883611F0803729F636
:100CE00083E08093D30110928F0157C0883809F4B4
:100CF0007BC0803919F0803809F0B7CF80918F011F
:100D0000803208F071C0E0918F0181E08E0F8093F6
:100D10008F018091BB00F0E0E159FE4F80833DC020
:100D2000803B39F0E0F4803A09F479C0883A09F060
:100D30009CCF84E08093D30110926E0110926D01DC
:100D4000E0919201F0919301099580916D018111DB
:100D50000FC081E080936D0110924D0109C0803C6D
:100D600009F4A6CF883C09F4A3CF883B09F07DCFD6
:100D7000E0916E0181E08E0F80936E01F0E0E35B05
:100D8000FE4F80818093BB0090916E0180916D0138
:100D900029C08091AE018093BB0085EC8093BC009C
:100DA00064CF9091D0018091CF01981758F5E091D0
:100DB000D00181E08E0F8093D001F0E0E155FE4F2D
:100DC0008081E9CFE091D00181E08E0F8093D00146
:100DD0008091BB00F0E0E155FE4F80839091D001FF
:100DE0008091CF019817C8F285E8D8CFE091D00163
:100DF00081E08E0F8093D0018091BB00F0E0E1553F
:100E0000FE4F80838091D20181115CCF81E080937D
:100E1000AD0184EA8093BC001092D30126CF85EC0B
:100E20008093BC001092D30180918F01803230F406
:100E3000E0918F01F0E0E159FE4F108260918F0147
:100E400070E0E0919001F09191018FE691E00995B9
:100E500010928F010ACF1092D10134CFEDEFF1E063
:100E60001382128288EE93E0A0E0B0E08483958341
:100E7000A683B78328E031E03183208325EC30E07E
:100E80003587248724EC30E03787268720EC30E054
:100E9000318B208B21EC30E0338B228B22EC30E045
:100EA000358B248B26EC30E0378B268B118E128EFF
:100EB000138E148EEAE9F2E0138212828483958302
:100EC000A683B7838AE191E0918380830895789423
:100ED00084B5826084BD84B5816084BD85B582603F
:100EE00085BD85B5816085BD80916E0081608093F0
:100EF0006E00109281008091810082608093810059
:100F00008091810081608093810080918000816068
:100F1000809380008091B10084608093B1008091C3
:100F2000B00081608093B00080917A0084608093EB
:100F30007A0080917A00826080937A0080917A00B2
:100F4000816080937A0080917A00806880937A0033
:100F50001092C100E0910D02F0910E0282E08083B8
:100F6000E0910902F0910A021082E0910B02F091E7
:100F70000C0280E1808310921502E0911102F09141
:100F8000120286E08083E0910F02F09110028081CE
:100F900080618083E0910F02F0911002808188606F
:100FA0008083E0910F02F09110028081806880833D
:100FB000E0910F02F091100280818F7D808310926A
:100FC0009501109294010E948D028CE391E0909320
:100FD0009301809392018DE391E09093910180932E
:100FE000900188E48093B8000E9417014B015C01D6
:100FF00068ECC62ED12CE12CF12C0E941701681947
:1010000079098A099B09683E734081059105A8F317
:1010100021E0C21AD108E108F10888EE880E83E0C9
:10102000981EA11CB11CC114D104E104F10429F7DC
:10103000D1E0D093D90180E48093FB011092DA01D2
:101040001092FC010E94CC02C82F8823E1F18DE9A7
:1010500090E00E942B026C2F70E090E080E04AE06C
:101060000E94A3040E94F1043AE0232E44EB842E54
:10107000912CA12CB12C50E2452E5EE4552E612C12
:10108000712C8DEF91E00E949C01892B09F4E3C043
:101090008DEF91E00E947A01E091A3018D3019F06B
:1010A0008A3009F0CDC0EE2309F4A1C0E13079F512
:1010B00080919701803359F50E94710481EF90E08F
:1010C0000E94F90494C060E180E00E9485048111CF
:1010D00005C08CE890E00E94F904C6CF69E78EEF66
:1010E0000E9485048823A9F360E280E00E948504C1
:1010F000882379F360EA80E00E948504882349F31D
:101100000E947104D093960188E690E0E4CF30917C
:101110009601332309F46BC0E33008F468C00091F2
:1011200097010153043008F062C080919801803229
:1011300009F05DC0A9E9B1E080E0D0E0C0E022E0C4
:101140004D9190ED940F9A3068F0A22FB0E0A9561F
:10115000BE4F2E1708F047C09D91903209F047C04E
:101160002F5FF7CF2F5F2C9EC0012D9E900D112475
:10117000EC01C40FD11D47FDDA95E097832F2E13A4
:10118000DFCFC53BD1059CF520E931E0DE010E94AF
:101190007909A50194010E945A092C5E3A4F690110
:1011A000F12CE12C0E94710410E0F801E050FF4F97
:1011B0003080C701B6012CE0660F771F881F991F8A
:1011C0002A95D1F7605F784D8F4F9F4FA301920111
:1011D0000E943809B901832D0E943C0481110AC084
:1011E00080EE90E06DCF882311F02E1751F210920F
:1011F000A30147CF8BED90E00E942B02C80101961E
:101200000E94050587ED90E00E942B02632D70E09F
:1012100090E080E04AE00E94A3048CEC90E00E9401
:101220002B02CE010E94050584EC90E00E942B0267
:101230004AE0C701B6010E94A30480EC90E040CFD1
:10124000EC30A8F691E09E0F9093A301F0E0E956F0
:10125000FE4F808316CF80E090E0892B09F411CFF8
:101260000E94A801882309F40CCF0E94000009CF36
:10127000A1E21A2EAA1BBB1BFD010DC0AA1FBB1F9A
:10128000EE1FFF1FA217B307E407F50720F0A21B0C
:10129000B30BE40BF50B661F771F881F991F1A9479
:1012A00069F760957095809590959B01AC01BD01A3
:1012B000CF010895052E97FB1EF400940E9471093A
:1012C00057FD07D00E94380907FC03D04EF40C9458
:1012D000710950954095309521953F4F4F4F5F4F85
:1012E000089590958095709561957F4F8F4F9F4F92
:1012F00008950E948609B7FF0895821B930B0895F5
:10130000EE0FFF1F0590F491E02D0994A29FB0010C
:10131000B39FC001A39F700D811D1124911DB29F29
:10132000700D811D1124911D0895F894FFCF0001C7
:10133000020300000000DE013E016B0146029C0139
:101340007A018E01000000000A04DD033904B303B2
:0A135000D603C303B4030D0A000026
:107E0000112484B714BE81FFF0D085E080938100F7
:107E100082E08093C00088E18093C10086E0809377
:107E2000C20080E18093C4008EE0C9D0259A86E02C
:107E300020E33CEF91E0309385002093840096BBD3
:107E4000B09BFECF1D9AA8958150A9F7CC24DD24C4
:107E500088248394B5E0AB2EA1E19A2EF3E0BF2EE7
:107E6000A2D0813461F49FD0082FAFD0023811F036
:107E7000013811F484E001C083E08DD089C08234E0
:107E800011F484E103C0853419F485E0A6D080C0E4
:107E9000853579F488D0E82EFF2485D0082F10E0AE
:107EA000102F00270E291F29000F111F8ED06801E7
:107EB0006FC0863521F484E090D080E0DECF843638
:107EC00009F040C070D06FD0082F6DD080E0C81688
:107ED00080E7D80618F4F601B7BEE895C0E0D1E017
:107EE00062D089930C17E1F7F0E0CF16F0E7DF06D8
:107EF00018F0F601B7BEE89568D007B600FCFDCFD4
:107F0000A601A0E0B1E02C9130E011968C91119780
:107F100090E0982F8827822B932B1296FA010C0160
:107F200087BEE89511244E5F5F4FF1E0A038BF0790
:107F300051F7F601A7BEE89507B600FCFDCF97BE46
:107F4000E89526C08437B1F42ED02DD0F82E2BD052
:107F50003CD0F601EF2C8F010F5F1F4F84911BD097
:107F6000EA94F801C1F70894C11CD11CFA94CF0C13
:107F7000D11C0EC0853739F428D08EE10CD085E9AC
:107F80000AD08FE07ACF813511F488E018D01DD067
:107F900080E101D065CF982F8091C00085FFFCCF94
:107FA0009093C60008958091C00087FFFCCF809118
:107FB000C00084FD01C0A8958091C6000895E0E648
:107FC000F0E098E1908380830895EDDF803219F02E
:107FD00088E0F5DFFFCF84E1DECF1F93182FE3DFCA
:107FE0001150E9F7F2DF1F91089580E0E8DFEE27F6
:047FF000FF270994CA
:027FFE00040479
:00000001FF
