:100000000C94A3000C94CB000C94CB000C94CB006C
:100010000C94CB000C94CB000C94CB000C94CB0034
:100020000C94CB000C94CB000C94CB000C94CB0024
:100030000C94CB000C94CB000C94CB000C94CB0014
:100040000C947B060C94CB000C94EB060C94C50628
:100050000C94CB000C94CB000C94CB000C94CB00F4
:100060000C941D070C94CB00493243204641554C5B
:10007000543A2063757420736572766F20706F77C1
:10008000657220616E6420636865636B20776972B6
:10009000696E672E00414E494D4154494F4E2053E1
:1000A000544152544544004E45555452414C004F22
:1000B0004646003120616E696D617465207C203296
:1000C000206E65757472616C207C2030206F6666CE
:1000D0000052454144592063616C696272617465E4
:1000E000642062726F772F666F7265686561642045
:1000F0002D206F757470757473204F464600000094
:100100000000250028002B00040404040404040457
:1001100002020202020203030303030301020408B2
:100120001020408001020408102001020408102061
:1001300000000008000201000003040700000000A6
:10014000000000003C0811241FBECFEFD8E0DEBF46
:10015000CDBF11E0A0E0B1E0EAE5FDE102C005900D
:100160000D92A837B107D9F723E0A8E7B1E001C0A5
:100170001D92A331B207E1F710E0C3EAD0E004C05A
:100180002197FE010E94A50EC23AD107C9F70E942D
:1001900075080C94AB0E0C94000090E0FC01E05D3F
:1001A000FE4F2491FC01E45EFE4F3491FC01E85FB8
:1001B000FE4FE491EE23C9F0222339F0233001F100
:1001C000A8F4213019F1223029F1F0E0EE0FFF1FE1
:1001D000E250FF4FA591B4918FB7F894EC91611163
:1001E00026C030953E233C938FBF08952730A9F059
:1001F0002830C9F0243049F7809180008F7D03C0FA
:10020000809180008F7780938000DFCF84B58F77D7
:1002100084BDDBCF84B58F7DFBCF8091B0008F771D
:100220008093B000D2CF8091B0008F7DF9CF3E2B6C
:10023000DACF3FB7F8948091160290911702A091FF
:100240001802B091190226B5A89B05C02F3F19F0DE
:100250000196A11DB11D3FBFBA2FA92F982F882746
:10026000BC01CD01620F711D811D911D42E0660F21
:10027000771F881F991F4A95D1F70895089508950B
:10028000AF92BF92CF92DF92EF92FF920F931F93A4
:10029000CF93DF936C017B018B01040F151FEB01E2
:1002A0005E01AE18BF08C017D10759F06991D60199
:1002B000ED91FC910190F081E02DC6010995892B0B
:1002C00079F7C501DF91CF911F910F91FF90EF90CA
:1002D000DF90CF90BF90AF900895FC01538D448D77
:1002E000252F30E0842F90E0821B930B541710F0E1
:1002F000CF96089501970895FC01918D828D9817EE
:1003000061F0A28DAE0FBF2FB11D5D968C91928DC5
:100310009F5F9F73928F90E008958FEF9FEF0895F6
:10032000FC01918D828D981731F0828DE80FF11DBF
:10033000858D90E008958FEF9FEF0895FC01918DDA
:10034000228D892F90E0805C9F4F821B91098F73D3
:10035000992708958AE692E00E949E0121E0892B68
:1003600009F420E0822F089580E090E0892B29F0A5
:100370000E94AA0181110C9400000895FC01A48D33
:10038000A80FB92FB11DA35ABF4F2C91848D90E0B7
:1003900001968F739927848FA689B7892C93A0899A
:1003A000B1898C91837080648C93938D848D981324
:1003B00006C00288F389E02D80818F7D80830895B7
:1003C000EF92FF920F931F93CF93DF93EC0181E0A5
:1003D000888F9B8D8C8D98131AC0E889F98980814C
:1003E00085FF15C09FB7F894EE89FF896083E8897F
:1003F000F98980818370806480839FBF81E090E071
:10040000DF91CF911F910F91FF90EF900895F62EFD
:100410000B8D10E00F5F1F4F0F731127E02E8C8D97
:100420008E110CC00FB607FCFACFE889F9898081DC
:1004300085FFF5CFCE010E94BE01F1CFEB8DEC0F11
:10044000FD2FF11DE35AFF4FF0829FB7F8940B8FF9
:10045000EA89FB8980818062CFCF0F931F93CF936E
:10046000DF938C01D0E0C0E0F801EC0FFD1F649138
:10047000662341F08AE692E00E94E001892B11F0A8
:100480002196F2CF42E050E064E771E08AE692E024
:100490000E9440018C0F9D1FDF91CF911F910F9102
:1004A0000895CF93DF93EC01888D8823B9F0AA8952
:1004B000BB89E889F9898C9185FD03C0808186FD1F
:1004C0000DC00FB607FCF7CF8C9185FFF2CF80816E
:1004D00085FFEDCFCE010E94BE01E9CFDF91CF9124
:1004E00008952091C001260F3327331F2132310593
:1004F000ECF420914002FC0190E080E0243069F0AF
:1005000082E00895A091C0012191AC0140565E4F58
:10051000A40FB52FB11D2C930196861798F38091E7
:10052000C001680F6093C00180E0089581E00895E4
:100530001092400281E080933F0210921A0261E023
:1005400082E10E94CD0061E083E10E94CD00E9EBF1
:10055000F0E080818E7F808380818D7F808388E43E
:100560008093B80085E48093BC000895CF93DF9317
:1005700091E09093E9018823B9F0C091B800D0913F
:10058000BA008091BC008A7B8093BC0060E082E16D
:100590000E94CD0060E083E10E94CD000E9498029D
:1005A000D093BA00C093B800DF91CF910895CF9255
:1005B000DF92EF92FF920F931F93CF93DF93D0912F
:1005C000690281E0D13208F09CC0C09168020E94AB
:1005D00019016B017C018091400281116CC082E0A5
:1005E0008093400281E080933F028FEF80933E0230
:1005F00010923D02D0933C02A8E4B2E0ECE1F2E0BC
:1006000080E0D8138DC010921B0280911B02CC0F8A
:10061000C82BC0931B0280911A02813009F084C05C
:1006200010921A020E9419016B017C0180911B0239
:100630008093BB008091420290914302A0914402BA
:10064000B0914502892B8A2B8B2BA1F00E941901B6
:1006500000914202109143022091440230914502E0
:100660006C197D098E099F09061717072807390796
:1006700008F442C08091BC0083FDD8CF85EC809304
:10068000BC000E9419016B017C0180914002823004
:1006900009F44CC080913E028F3F09F469C08091FB
:1006A0003E02803209F466C080913E02803309F434
:1006B00063C084E026C08091420290914302A091E1
:1006C0004402B0914502892B8A2B8B2B09F483CFEE
:1006D0000E941901009142021091430220914402AC
:1006E000309145026C197D098E099F09061717077D
:1006F0002807390708F06FCF809141020E94B602A7
:1007000085E0109247021092690210924602DF9132
:10071000CF911F910F91FF90EF90DF90CF900895B0
:100720009D9191938F5F6DCF85EEA9CF809142020D
:1007300090914302A0914402B0914502892B8A2BEB
:100740008B2B09F4A2CF0E94190100914202109153
:10075000430220914402309145026C197D098E09B3
:100760009F09061717072807390708F08ECFC4CF4F
:1007700080E0C7CF82E0C5CF83E0C3CF0895E0918A
:10078000E8018091E701E81730F4F0E0E058FE4F0F
:10079000808190E008958FEF9FEF08959091E80198
:1007A0008091E7012FEF3FEF981748F4E92FF0E031
:1007B000E058FE4F208130E09F5F9093E801C9012F
:1007C00008958091E7019091E801891B990B0895A4
:1007D000CF92DF92EF92FF920F931F93CF93DF930D
:1007E0007C01CB018A0120914602222389F0EB0192
:1007F0006B01C40ED51ECC15DD0569F06991D701DA
:10080000ED91FC910190F081E02DC7010995F3CFA6
:10081000642F0E947102C801DF91CF911F910F9147
:10082000FF90EF90DF90CF900895CF93DF931F92CA
:10083000CDB7DEB76983209146022223F9F02091DB
:100840006902203258F021E030E0FC01338322833A
:1008500090E080E00F90DF91CF9108958091470262
:10086000E82FF0E0E85BFD4F998190838F5F8093E4
:1008700047028093690281E090E0ECCF61E0CE0115
:1008800001960E947102F7CF90E080E008958F9268
:100890009F92AF92BF92EF92FF920F931F93CF93CD
:1008A000DF93C4E0D1E0A8EFB1E0E0EF8E2EE1E00D
:1008B0009E2E5C01E8E0AE0EB11CE990F990ED923D
:1008C000FD92FC01E190F190CF01F401E192F192EF
:1008D0004F018A159B0589F7EFB7F89480911202B2
:1008E00090911302A0911402B0911502EFBF809372
:1008F000000290930102A0930202B093030240937E
:100900000C0150930D0160930E0170930F01009341
:10091000000110930101209302013093030181E053
:1009200080930402DF91CF911F910F91FF90EF9080
:10093000BF90AF909F908F900895CF93DF93D62F65
:10094000C72F91E09093460290E490936802109232
:1009500047021092690294E0899FB00111246A5FF6
:100960007F4F87E093E00E94150460E087E093E00A
:100970000E94150460E087E093E00E9415046D2F4B
:1009800087E093E00E9415046C2F87E093E00E94BB
:1009900015040E94D70291E0811190E0892FDF9128
:1009A000CF910895CF93DF931092EB011092040240
:1009B00010920902C0E0D1E060E070E18C2F0E944B
:1009C0009D04811101C0D0E0CF5FC031A9F7109222
:1009D00079011092780110927B0110927A011092A5
:1009E0007D0110927C0110927F0110927E018D2F6B
:1009F000DF91CF91089510920A020E94D20488E6F6
:100A000090E00C942D023F924F925F926F927F92F2
:100A10008F929F92AF92BF92CF92DF92EF92FF920E
:100A20000F931F93CF93DF9300D000D0CDB7DEB7E5
:100A300030E4C32E31E0D32E88E391E09A8389839A
:100A400004E011E048E7E42E41E0F42EE4E3F1E0B5
:100A5000FC83EB8350E2452E5EE4552E612C712C15
:100A6000F601819191916F01E981FA816191719112
:100A7000FA83E983861797072CF4382F292FCB01A7
:100A8000632F722FF80120813181261737072CF050
:100A9000B901821793070CF4BC01F80161937193BB
:100AA0008F01072E000C880B990B2CE0660F771F27
:100AB000881F991F2A95D1F7605F784D8F4F9F4F00
:100AC000A30192010E943B0C4901F7018191919190
:100AD0007F018217930731F1B901EB81FC8180819D
:100AE0000E949D04382E811119C00E94FB04832DA1
:100AF0000F900F900F900F90DF91CF911F910F915A
:100B0000FF90EF90DF90CF90BF90AF909F908F902D
:100B10007F906F905F904F903F900895F7013297CC
:100B2000918280828B819C8101969C838B83E8E4F7
:100B3000F1E0EC15FD0509F093CF33243394D7CFC2
:100B4000CF93C62F91E09093460290E49093680271
:100B50001092470210926902682F87E093E00E948A
:100B600015046C2F87E093E00E9415040E94D702C1
:100B700091E0811190E0892FCF910895CF92DF927B
:100B8000EF92FF920F931F936B017C010E94B10BB8
:100B900027E930E040E050E00E94090CAB01BC01C5
:100BA000445D5E4F6F4F7F4F9701860188E491E06F
:100BB0000E9447041F910F91FF90EF90DF90CF901C
:100BC0000895CF93C0910C02C13009F05AC08091B2
:100BD0000B02803361F40E94D204811103C0CF91D3
:100BE0000C94FB048FEA90E0CF910C942D0290912D
:100BF0000A02992309F445C08153823008F041C0AC
:100C00008091090281111FC08CED95E09093050140
:100C10008093040190930701809306018FEA95E089
:100C200090930901809308018EE196E090930B0167
:100C300080930A010E9403058111C09309028091EB
:100C400009028823F1F080910B02823361F4109243
:100C5000EB011092EA0160E070E0CB010E94BE055A
:100C600087EA90E0C1CF81E08093EB011092EA0126
:100C700064EF71E080E090E00E94BE0585E990E0BD
:100C8000B3CFCF91089585ED8093BC00809142024F
:100C900090914302A0914402B09145020796A11D94
:100CA000B11D23E0B695A795979587952A95D1F71D
:100CB0002091BC0024FD03C0109240020895409191
:100CC0004202509143026091440270914502452BCB
:100CD000462B472B69F30097A105B10541F02AE2A5
:100CE0002A95F1F700C00197A109B109E1CF8091E0
:100CF00041020C94B6021F920F920FB60F9211246C
:100D00002F933F938F939F93AF93BF938091120242
:100D100090911302A0911402B0911502309111022A
:100D200023E0230F2D3758F50196A11DB11D209307
:100D300011028093120290931302A0931402B093B5
:100D400015028091160290911702A0911802B0919D
:100D500019020196A11DB11D8093160290931702EE
:100D6000A0931802B0931902BF91AF919F918F91F8
:100D70003F912F910F900FBE0F901F90189526E86E
:100D8000230F0296A11DB11DD2CF1F920F920FB655
:100D90000F9211242F933F934F935F936F937F9301
:100DA0008F939F93AF93BF93EF93FF938AE692E065
:100DB0000E94BE01FF91EF91BF91AF919F918F91E2
:100DC0007F916F915F914F913F912F910F900FBE47
:100DD0000F901F9018951F920F920FB60F9211242B
:100DE0002F938F939F93EF93FF93E0917A02F0916B
:100DF0007B028081E0918002F091810282FD1BC024
:100E00009081809183028F5F8F732091840282177B
:100E100041F0E0918302F0E0E659FD4F958F809319
:100E20008302FF91EF919F918F912F910F900FBEB1
:100E30000F901F9018958081F4CF1F920F920FB6DC
:100E40000F9211242F933F934F935F936F937F9350
:100E50008F939F93AF93BF93EF93FF938091B900CC
:100E6000887F803609F44AC0F0F5883209F4A7C0BB
:100E700018F5803109F49BC0B8F4882309F4F9C04F
:100E8000883009F494C0FF91EF91BF91AF919F9189
:100E90008F917F916F915F914F913F912F910F9023
:100EA0000FBE0F901F901895883109F488C08032CA
:100EB00051F780933E0214C0803409F49DC040F481
:100EC0008033B9F38833F9F680933E0285ECB0C0E5
:100ED000803509F485C0883509F496C0883499F6C0
:100EE0000E944306D0CF883909F48CC038F5883782
:100EF00029F050F4883611F0803729F683E080938A
:100F000040021092E20157C0883809F47BC0803952
:100F100019F0803809F0B7CF8091E201803208F0F3
:100F200071C0E091E20181E08E0F8093E201809137
:100F3000BB00F0E0EE53FE4F80833DC0803B39F0B4
:100F4000E0F4803A09F479C0883A09F09CCF84E053
:100F5000809340021092C1011092C001E091E5011E
:100F6000F091E60109958091C00181110FC081E0E7
:100F70008093C0011092A00109C0803C09F4A6CF63
:100F8000883C09F4A3CF883B09F07DCFE091C101F3
:100F900081E08E0F8093C101F0E0E056FE4F80812A
:100FA0008093BB009091C1018091C00129C08091C4
:100FB0001B028093BB0085EC8093BC0064CF9091B2
:100FC0003D0280913C02981758F5E0913D0281E086
:100FD0008E0F80933D02F0E0E45EFD4F8081E9CF0B
:100FE000E0913D0281E08E0F80933D028091BB0035
:100FF000F0E0E45EFD4F808390913D0280913C02E1
:101000009817C8F285E8D8CFE0913D0281E08E0FB5
:1010100080933D028091BB00F0E0E45EFD4F808351
:1010200080913F0281115CCF81E080931A0284EAB3
:101030008093BC001092400226CF85EC8093BC00C8
:10104000109240028091E201803230F4E091E2019E
:10105000F0E0EE53FE4F10826091E20170E0E0910B
:10106000E301F091E40182EC91E009951092E20134
:101070000ACF10923E0234CFEAE6F2E013821282E7
:1010800088EE93E0A0E0B0E084839583A683B783E5
:1010900024E531E03183208325EC30E03587248757
:1010A00024EC30E03787268720EC30E0318B208B32
:1010B00021EC30E0338B228B22EC30E0358B248B1B
:1010C00026EC30E0378B268B118E128E138E148E09
:1010D000E7E0F3E01382128284839583A683B783CB
:1010E00086E691E0918380830895CF93DF93CDB717
:1010F000DEB7A4970FB6F894DEBF0FBECDBF7894CD
:1011000084B5826084BD84B5816084BD85B582600C
:1011100085BD85B5816085BD80916E0081608093BD
:101120006E00109281008091810082608093810026
:101130008091810081608093810080918000816036
:10114000809380008091B10084608093B100809191
:10115000B00081608093B00080917A0084608093B9
:101160007A0080917A00826080937A0080917A0080
:10117000816080937A0080917A00806880937A0001
:101180001092C100E0917A02F0917B0282E08083AC
:10119000E0917602F09177021082E0917802F0916E
:1011A000790280E1808310928202E0917E02F091C8
:1011B0007F0286E08083E0917C02F0917D02808155
:1011C00080618083E0917C02F0917D028081886063
:1011D0008083E0917C02F0917D0280818068808331
:1011E000E0917C02F0917D0280818F7D808310925E
:1011F000E8011092E7010E9498028EE391E090933B
:10120000E6018093E5018FE391E09093E401809300
:10121000E30188E48093B8001092E90188EA91E63E
:10122000A0E0B0E08093420290934302A093440276
:10123000B093450281E0809341028093460280E4AE
:101240008093680210924702109269020E94D702AE
:10125000882369F10E94FB048AE692E00E949E01C5
:10126000892B09F497C08AE692E00E947C019FB71F
:10127000F8944091120250911302609114027091FF
:1012800015029FBF40930D0250930E0260930F0210
:101290007093100290910C028D3019F08A3009F091
:1012A00070C091110E94E10510920C02D5CF60E14F
:1012B00080E00E94A005882369F269E78EEF0E9412
:1012C000A005882339F260E280E00E94A00588230F
:1012D00009F4C0CF0E9419014B015C0165E0C62EE4
:1012E000D12CE12CF12C0E941901681979098A0985
:1012F0009B09683E734081059105A8F321E0C21A5D
:10130000D108E108F10838EE830E33E0931EA11CEA
:10131000B11CC114D104E104F10429F760EA80E0B2
:101320000E94A005882309F495CF0E94D204882347
:1013300009F490CF80E480937C0080917A008064EF
:1013400080937A0080917A0086FDFCCF60917800CE
:1013500070917900072E000C880B990B61157105AF
:101360008105910511F00E94000C81E080930A0232
:1013700081ED90E00E942D0283EB90E00E942D020F
:101380006BCF80930B02923008F066CF9F5F9093F3
:101390000C0262CF80910C028823F9F02FB7F894E9
:1013A0008091120290911302A0911402B091150243
:1013B0002FBF40910D0250910E0260910F0270916B
:1013C0001002841B950BA60BB70B8897A105B105DE
:1013D00020F00E94E10510920C0280910A028823FD
:1013E00009F4ECC080910902882309F4E7C08FB7A3
:1013F000F894C0901202D0901302E0901402F09082
:1014000015028FBF8091050290910602A0910702FC
:10141000B0910802A7019601281B390B4A0B5B0B00
:10142000DA01C9014497A105B10508F4C7C0C0920B
:101430000502D0920602E0920702F0920802809123
:101440000402882309F4C7C0809100029091010230
:10145000A0910202B0910302A7019601281B390B4B
:101460004A0B5B0B29A33AA34BA35CA3CA01B901A6
:101470000E94810D4B015C0160910C0170910D0186
:1014800080910E0190910F010E94810D9B01AC0192
:10149000C501B4010E94D90C4B015C0120E030E091
:1014A00040E85FE30E940F0E181634F4812C912C53
:1014B00050E8A52E5FE3B52E20E030E040EC50E48C
:1014C000C501B4010E94140E20E030E040E751E471
:1014D0000E946C0CA50194010E94140E20E030E0E3
:1014E00040E251E40E946D0C2B013C01A5019401E6
:1014F000C501B4010E94140EA50194010E94140EAE
:101500009B01AC01C301B2010E94140E2B013C01EE
:1015100038EF832E31E0932E40EF242E41E0342E1D
:1015200004E011E0F401A190B1904F01F10161914B
:1015300071911F016A197B09072E000C880B990B0A
:101540000E94830DA30192010E94140E0E944B0D74
:101550006A0D7B1DF801619371938F0120E032E0E9
:1015600028153905F9F60E940305882339F1809181
:101570000C0190910D01A0910E01B0910F0129A1D4
:101580003AA14BA15CA1281739074A075B07B0F0C5
:10159000109204028091000190910101A09102013A
:1015A000B09103018C0D9D1DAE1DBF1D8093EC01FC
:1015B0009093ED01A093EE01B093EF0120E030E0B5
:1015C000232B09F449CE0E94AA01882309F444CEB2
:1015D0000E94000041CE8091EB01882379F3809135
:1015E000EC019091ED01A091EE01B091EF01C81ACC
:1015F000D90AEA0AFB0AF7FCE1CF8091EA018823C5
:1016000089F00E94B10B25E833E040E050E00E94F1
:10161000090C64547D4F8F4F9F4F0E94BE0510925E
:10162000EA01CCCF80E2E4E1F1E0DE011196019025
:101630000D928A95E1F70E94B10B4B015C010E946B
:10164000B10B6B017C010E94B10B2B013C01C50168
:10165000B40125EF31E040E050E00E94090C4B015D
:101660005C0134EF830E31E0931EA11CB11CC70155
:10167000B60129EC30E040E050E00E94090C6B011B
:101680007C014CE2C40E41E0D41EE11CF11CC301FC
:10169000B20124E030E040E050E00E94090CCB01B0
:1016A00023E0880F991F2A95E1F795018401B7017E
:1016B000A601E1E0F0E0EC0FFD1F8E0F9F1F0E94DE
:1016C0004704F1E0F093EA0179CF8F929F92AF92B5
:1016D000BF92CF92DF92EF92FF92CF93DF93EC0114
:1016E000688179818A819B816115710581059105E8
:1016F00021F464E279ED8BE597E02DE133EF41E0F1
:1017000050E00E94090C49015A019B01AC01A7EA73
:10171000B1E40E94280C6B017C01ACEEB4EFA50192
:1017200094010E94360CC60ED71EE81EF91EF7FE65
:1017300006C081E0C81AD108E10880E8F80AC8822A
:10174000D982EA82FB82C701B6019F77DF91CF91F0
:10175000FF90EF90DF90CF90BF90AF909F908F90D1
:1017600008958F929F92AF92BF92CF92DF92EF92A5
:10177000FF9260911001709111018091120190917E
:101780001301611571058105910521F464E279ED7C
:101790008BE597E02DE133EF41E050E00E94090C2A
:1017A00049015A019B01AC01A7EAB1E40E94280C4F
:1017B0006B017C01ACEEB4EFA50194010E94360CE4
:1017C000C60ED71EE81EF91EF7FE06C081E0C81A35
:1017D000D108E10880E8F80AC0921001D092110106
:1017E000E0921201F0921301C701B6019F77FF90BA
:1017F000EF90DF90CF90BF90AF909F908F90089523
:101800006093100170931101809312019093130162
:101810000895052E97FB1EF400940E94200C57FD9E
:1018200007D00E943B0C07FC03D04EF40C94200C14
:1018300050954095309521953F4F4F4F5F4F0895FC
:1018400090958095709561957F4F8F4F9F4F08952C
:101850000E945D0CA59F900DB49F900DA49F800DDC
:10186000911D11240895B7FF0C94280C0E94280C98
:10187000821B930B0895A1E21A2EAA1BBB1BFD012C
:101880000DC0AA1FBB1FEE1FFF1FA217B307E4075F
:10189000F50720F0A21BB30BE40BF50B661F771FB7
:1018A000881F991F1A9469F7609570958095909597
:1018B0009B01AC01BD01CF010895A29FB001B39F70
:1018C000C001A39F700D811D1124911DB29F700D49
:1018D000811D1124911D08955058BB27AA270E94ED
:1018E000840C0C94D50D0E94C70D38F00E94CE0DCB
:1018F00020F039F49F3F19F426F40C94C40D0EF433
:10190000E095E7FB0C94BE0DE92F0E94E60D58F31D
:10191000BA17620773078407950720F079F4A6F5D4
:101920000C94080E0EF4E0950B2EBA2FA02D0B018F
:10193000B90190010C01CA01A0011124FF27591B14
:1019400099F0593F50F4503E68F11A16F040A22F1A
:10195000232F342F4427585FF3CF4695379527958B
:10196000A795F0405395C9F77EF41F16BA0B620B8A
:10197000730B840BBAF09150A1F0FF0FBB1F661FD1
:10198000771F881FC2F70EC0BA0F621F731F841F14
:1019900048F4879577956795B795F7959E3F08F03A
:1019A000B0CF9395880F08F09927EE0F97958795FC
:1019B00008950E94ED0C0C94D50D0E94CE0D58F0A8
:1019C0000E94C70D40F029F45F3F29F00C94BE0D32
:1019D00051110C94090E0C94C40D0E94E60D68F38D
:1019E0009923B1F3552391F3951B550BBB27AA27D8
:1019F00062177307840738F09F5F5F4F220F331F12
:101A0000441FAA1FA9F335D00E2E3AF0E0E832D0D9
:101A100091505040E695001CCAF72BD0FE2F29D0DC
:101A2000660F771F881FBB1F261737074807AB07AE
:101A3000B0E809F0BB0B802DBF01FF2793585F4F23
:101A40003AF09E3F510578F00C94BE0D0C94090EAF
:101A50005F3FE4F3983ED4F3869577956795B79505
:101A6000F7959F5FC9F7880F911D9695879597F910
:101A70000895E1E0660F771F881FBB1F6217730789
:101A80008407BA0720F0621B730B840BBA0BEE1F9E
:101A900088F7E09508950E94520D6894B1110C9456
:101AA000090E08950E94EE0D88F09F5798F0B92F07
:101AB0009927B751B0F0E1F0660F771F881F991F83
:101AC0001AF0BA95C9F714C0B13091F00E94080E0F
:101AD000B1E008950C94080E672F782F8827B85F1F
:101AE00039F0B93FCCF3869577956795B395D9F7DB
:101AF0003EF490958095709561957F4F8F4F9F4FE5
:101B00000895E89409C097FB3EF4909580957095F0
:101B100061957F4F8F4F9F4F9923A9F0F92F96E939
:101B2000BB279395F695879577956795B795F111AE
:101B3000F8CFFAF4BB0F11F460FF1BC06F5F7F4F4B
:101B40008F4F9F4F16C0882311F096E911C077235D
:101B500021F09EE8872F762F05C0662371F096E866
:101B6000862F70E060E02AF09A95660F771F881F35
:101B7000DAF7880F9695879597F9089597F99F67F3
:101B800080E870E060E008959FEF80EC0895002405
:101B90000A941616170618060906089500240A94D2
:101BA00012161306140605060895092E0394000C58
:101BB00011F4882352F0BB0F40F4BF2B11F460FFE7
:101BC00004C06F5F7F4F8F4F9F4F089557FD905810
:101BD000440F551F59F05F3F71F04795880F97FBF1
:101BE000991F61F09F3F79F08795089512161306AB
:101BF0001406551FF2CF4695F1DF08C016161706DA
:101C00001806991FF1CF869571056105089408950E
:101C1000E894BB2766277727CB0197F908950E94A0
:101C2000810E08F48FEF08950E94270E0C94D50DB5
:101C30000E94C70D38F00E94CE0D20F0952311F0C0
:101C40000C94BE0D0C94C40D11240C94090E0E942A
:101C5000E60D70F3959FC1F3950F50E0551F629FFD
:101C6000F001729FBB27F00DB11D639FAA27F00DF5
:101C7000B11DAA1F649F6627B00DA11D661F829F1C
:101C80002227B00DA11D621F739FB00DA11D621F01
:101C9000839FA00D611D221F749F3327A00D611D1E
:101CA000231F849F600D211D822F762F6A2F112400
:101CB0009F5750409AF0F1F088234AF0EE0FFF1F33
:101CC000BB1F661F771F881F91505040A9F79E3F8A
:101CD000510580F00C94BE0D0C94090E5F3FE4F3A7
:101CE000983ED4F3869577956795B795F795E795E0
:101CF0009F5FC1F7FE2B880F911D9695879597F9E9
:101D00000895990F0008550FAA0BE0E8FEEF16168C
:101D10001706E807F907C0F012161306E407F507DF
:101D200098F0621B730B840B950B39F40A2661F053
:101D3000232B242B252B21F408950A2609F4A140F6
:101D4000A6958FEF811D811D0895EE0FFF1F059051
:0A1D5000F491E02D0994F894FFCF00
:101D5A00BC020000DC05DC05AF051E069001000090
:101D6A00010000002A05A406A4062A058D062A05F4
:101D7A0040054B062A052A05A4064B068D06A4062D
:101D8A0040052A0508090C0D2A05A406A4062A05F9
:101D9A008D062A0540054B06DC05DC05AF051E0647
:101DAA0000000000E00140016D0151029E017C012A
:101DBA009001000000001504E8034404BE03E10397
:081DCA00CE03BF030D0A000067
:00000001FF
