:020000040000FA
:100000000C94CB000C94F3000C94F3000C94F300CC
:100010000C94F3000C94F3000C94F3000C94F30094
:100020000C94F3000C94F3000C94F3000C94F30084
:100030000C94F3000C94F3000C94F3000C94F30074
:100040000C9436070C94F3000C94A6070C948007CC
:100050000C94F3000C94F3000C94F3000C94F30054
:100060000C94D8070C94F300493243204641554C78
:10007000543A20636865636B205643432C20474EF7
:10008000442C205344413D413420616E642053434D
:100090004C3D41352E00736572766F2C6368616E3E
:1000A0006E656C2C6C6F7765725F75732C6E657501
:1000B0007472616C5F75732C75707065725F7573A7
:1000C00000207573002070756C7365200020706FC0
:1000D000736974696F6E20002043480020757300B7
:1000E00020736176656420617420004F4646004DA0
:1000F0006F7665203120313030207C205361766569
:100100002031204E2F4C2F55207C205072696E7468
:100110002050207C204F66662030005245414459D3
:1001200020666173742062726F772F666F726568E4
:100130006561642063616C6962726174696F6E20CD
:100140002D206F757470757473204F464600000043
:100150000000250028002B00040404040404040407
:100160000202020202020303030303030102040862
:100170001020408001020408102001020408102011
:100180000000000800020100000304070000000056
:1001900000000000F70811241FBECFEFD8E0DEBF3B
:1001A000CDBF11E0A0E0B1E0EAEAF6E102C00590BF
:1001B0000D92A437B107D9F723E0A4E7B1E001C05D
:1001C0001D92AF30B207E1F710E0CBECD0E004C0F5
:1001D0002197FE010E943E0BCA3CD107C9F70E943D
:1001E00030090C94530B0C94000090E0FC01E05893
:1001F000FE4F2491FC01E459FE4F3491FC01E85A72
:10020000FE4FE491EE23C9F0222339F0233001F1AF
:10021000A8F4213019F1223029F1F0E0EE0FFF1F90
:10022000E25BFE4FA591B4918FB7F894EC91611108
:1002300026C030953E233C938FBF08952730A9F008
:100240002830C9F0243049F7809180008F7D03C0A9
:10025000809180008F7780938000DFCF84B58F7787
:1002600084BDDBCF84B58F7DFBCF8091B0008F77CD
:100270008093B000D2CF8091B0008F7DF9CF3E2B1C
:10028000DACF3FB7F8948091120290911302A091B7
:100290001402B091150226B5A89B05C02F3F19F096
:1002A0000196A11DB11D3FBFBA2FA92F982F8827F6
:1002B000BC01CD01620F711D811D911D42E0660FD1
:1002C000771F881F991F4A95D1F7089508950895BB
:1002D000AF92BF92CF92DF92EF92FF920F931F9354
:1002E000CF93DF936C017B018B01040F151FEB0192
:1002F0005E01AE18BF08C017D10759F06991D60149
:10030000ED91FC910190F081E02DC6010995892BBA
:1003100079F7C501DF91CF911F910F91FF90EF9079
:10032000DF90CF90BF90AF900895FC01538D448D26
:10033000252F30E0842F90E0821B930B541710F090
:10034000CF96089501970895FC01918D828D98179D
:1003500061F0A28DAE0FBF2FB11D5D968C91928D75
:100360009F5F9F73928F90E008958FEF9FEF0895A6
:10037000FC01918D828D981731F0828DE80FF11D6F
:10038000858D90E008958FEF9FEF0895FC01918D8A
:10039000228D892F90E0805C9F4F821B91098F7383
:1003A0009927089586E692E00E94C60121E0892BF4
:1003B00009F420E0822F089580E090E0892B29F055
:1003C0000E94D20181110C9400000895FC01A48DBB
:1003D000A80FB92FB11DA35ABF4F2C91848D90E067
:1003E00001968F739927848FA689B7892C93A0894A
:1003F000B1898C91837080648C93938D848D9813D4
:1004000006C00288F389E02D80818F7D8083089566
:10041000EF92FF920F931F93CF93DF93EC0181E054
:10042000888F9B8D8C8D98131AC0E889F9898081FB
:1004300085FF15C09FB7F894EE89FF896083E8892E
:10044000F98980818370806480839FBF81E090E020
:10045000DF91CF911F910F91FF90EF900895F62EAD
:100460000B8D10E00F5F1F4F0F731127E02E8C8D47
:100470008E110CC00FB607FCFACFE889F98980818C
:1004800085FFF5CFCE010E94E601F1CFEB8DEC0F99
:10049000FD2FF11DE35AFF4FF0829FB7F8940B8FA9
:1004A000EA89FB8980818062CFCF682F86E692E05F
:1004B0000C9408020F931F93CF93DF938C01D0E02D
:1004C000C0E0F801EC0FFD1F6491662341F086E661
:1004D00092E00E940802892B11F02196F2CFCE0102
:1004E000DF91CF911F910F910895CF93DF93EC018E
:1004F000888D8823B9F0AA89BB89E889F9898C910C
:1005000085FD03C0808186FD0DC00FB607FCF7CFC7
:100510008C9185FFF2CF808185FFEDCFCE010E94C7
:10052000E601E9CFDF91CF9108952091B401260F24
:100530003327331F21323105ECF420913C02FC01BA
:1005400090E080E0243069F082E00895A091B40149
:100550002191AC014C565E4FA40FB52FB11D2C93C9
:100560000196861798F38091B401680F6093B401E7
:1005700080E0089581E0089510923C0281E080932C
:100580003B021092160261E082E10E94F50061E0F8
:1005900083E10E94F500E9EBF0E080818E7F8083AB
:1005A00080818D7F808388E48093B80085E4809388
:1005B000BC000895CF93DF9391E09093DD018823F1
:1005C000B9F0C091B800D091BA008091BC008A7B8C
:1005D0008093BC0060E082E10E94F50060E083E16E
:1005E0000E94F5000E94BC02D093BA00C093B800EC
:1005F000DF91CF910895CF92DF92EF92FF920F9308
:100600001F93CF93DF93D091650281E0D13208F040
:100610009CC0C09164020E9441016B017C018091E9
:100620003C0281116CC082E080933C0281E08093A7
:100630003B028FEF80933A0210923902D093380236
:10064000A4E4B2E0E8E1F2E080E0D8138DC01092BB
:10065000170280911702CC0FC82BC093170280910C
:100660001602813009F084C0109216020E944101E6
:100670006B017C01809117028093BB0080913E0248
:1006800090913F02A0914002B0914102892B8A2BA8
:100690008B2BA1F00E94410100913E0210913F027C
:1006A00020914002309141026C197D098E099F0909
:1006B000061717072807390708F442C08091BC00C5
:1006C00083FDD8CF85EC8093BC000E9441016B0173
:1006D0007C0180913C02823009F44CC080913A0246
:1006E0008F3F09F469C080913A02803209F466C0F4
:1006F00080913A02803309F463C084E026C080917F
:100700003E0290913F02A0914002B0914102892B9C
:100710008A2B8B2B09F483CF0E94410100913E026A
:1007200010913F0220914002309141026C197D09E5
:100730008E099F09061717072807390708F06FCF9A
:1007400080913D020E94DA0285E0109243021092ED
:10075000650210924202DF91CF911F910F91FF909D
:10076000EF90DF90CF9008959D9191938F5F6DCF23
:1007700085EEA9CF80913E0290913F02A091400268
:10078000B0914102892B8A2B8B2B09F4A2CF0E94B6
:10079000410100913E0210913F02209140023091B0
:1007A00041026C197D098E099F0906171707280752
:1007B000390708F08ECFC4CF80E0C7CF82E0C5CF25
:1007C00083E0C3CF0895E091DC018091DB01E8175D
:1007D00030F4F0E0EC58FE4F808190E008958FEF08
:1007E0009FEF08959091DC018091DB012FEF3FEFA7
:1007F000981748F4E92FF0E0EC58FE4F208130E0E4
:100800009F5F9093DC01C90108958091DB01909175
:10081000DC01891B990B0895CF92DF92EF92FF9232
:100820000F931F93CF93DF937C01CB018A0120911B
:100830004202222389F0EB016B01C40ED51ECC15B8
:10084000DD0569F06991D701ED91FC910190F0818E
:10085000E02DC7010995F3CF642F0E949502C801CE
:10086000DF91CF911F910F91FF90EF90DF90CF908C
:100870000895CF93DF931F92CDB7DEB769832091A0
:1008800042022223F9F020916502203258F021E043
:1008900030E0FC013383228390E080E00F90DF9111
:1008A000CF91089580914302E82FF0E0EC5BFD4F7B
:1008B000998190838F5F809343028093650281E0EA
:1008C00090E0ECCF61E0CE0101960E949502F7CF57
:1008D00090E080E00895CF93DF93D62FC72F91E06B
:1008E0009093420290E4909364021092430210921B
:1008F000650294E0899FB00111246A5F7F4F83E015
:1009000093E00E94390460E083E093E00E943904A0
:1009100060E083E093E00E9439046D2F83E093E070
:100920000E9439046C2F83E093E00E9439040E94F6
:10093000FB0291E0811190E0892FDF91CF91089522
:10094000CF93DF93C0E0D1E060E070E18C2F0E9494
:100950006B04811101C0D0E0CF5FC031A9F78D2FAA
:10096000DF91CF910895CF93C62F91E090934202EB
:1009700090E4909364021092430210926502682FF3
:1009800083E093E00E9439046C2F83E093E00E949F
:1009900039040E94FB0291E0811190E0892FCF91F0
:1009A0000895FC0101900020E9F73197AF01481B41
:1009B000590BBC0186E692E00C9468018F929F92DD
:1009C000AF92BF920F931F93CF93DF93CDB7DEB754
:1009D000A1970FB6F894DEBF0FBECDBF19A242306B
:1009E00008F44AE08E010F5D1F4F842E912CB12C2C
:1009F000A12CA50194010E94F60AE62FB901CA01B3
:100A0000EA30F4F4E05DD801EE938D01232B242B22
:100A1000252B79F790E080E0109719F0CD010E9426
:100A2000D104A1960FB6F894DEBF0FBECDBFDF9103
:100A3000CF911F910F91BF90AF909F908F9008958D
:100A4000E95CE1CFCF93DF930E945A02EC0188E387
:100A500091E00E94D1048C0F9D1FDF91CF910895EA
:100A60001092F6010E94A00488E690E00C94220502
:100A700085ED8093BC0080913E0290913F02A09151
:100A80004002B09141020796A11DB11D23E0B69529
:100A9000A795979587952A95D1F72091BC0024FDBD
:100AA00003C010923C02089540913E0250913F02D3
:100AB0006091400270914102452B462B472B69F310
:100AC0000097A105B10541F02AE22A95F1F700C08F
:100AD0000197A109B109E1CF80913D020C94DA029E
:100AE000BF92CF92DF92EF92FF920F931F93CF931B
:100AF000DF9320910802222309F472C0213009F00B
:100B000079C08091F7018033E1F40E94A004811143
:100B10000BC0DF91CF911F910F91FF90EF90DF906D
:100B2000CF90BF900C9430058BEE90E0DF91CF9189
:100B30001F910F91FF90EF90DF90CF90BF900C949A
:100B400022058F7D803509F055C086E990E00E942E
:100B5000220508E011E0CEEDD1E0C12CD12C7601C8
:100B6000C3944AE0C701B6010E94DE048CE20E94F1
:100B70005502F80161918F0170E090E080E04AE059
:100B80000E94DE048CE20E9455026881798190E027
:100B900080E04AE00E94DE048CE20E9455026A81F5
:100BA0007B8190E080E04AE00E94DE048CE20E94BB
:100BB00055026C817D8190E080E04AE00E94DE0475
:100BC00088E391E00E94D104FFEFCF1ADF0AEF0A19
:100BD000FF0A269685E0C816D104E104F10409F65F
:100BE000DF91CF911F910F91FF90EF90DF90CF9009
:100BF000BF9008954091F601442391F3233080F390
:100C00008091F7018153843058F79091F801903228
:100C100039F7E9EFF1E092E03191303219F49F5F5A
:100C20002913FACFE92FF0E0BF016F5F7F4FE95042
:100C3000FE4F2617170609F07DC090819F7D9E34D8
:100C400009F04FC0E82FF0E096E0899FD001112411
:100C5000A252BE4FEE0FFF1FE050FF4F20813181A7
:100C600013963C932E931297C82FD0E0E6E08E9F08
:100C7000800111246801F0E5CF0ED11CC801825219
:100C80009E4F7C010A5A1F4FF701B1907F01C601A8
:100C90000E94E00AB81621F06B2DC6010E94E80AF6
:100CA000FFEFCF1ADF0AC016D10671F7CC0FDD1F98
:100CB000FE01E45FFE4F80819181009711F00E9458
:100CC000D10480EE90E00E945A02C050DF4F68814C
:100CD000798190E080E04AE00E94DE048CED90E0B3
:100CE00025CF9C3489F4E82FF0E096E0899FD0016D
:100CF0001124A252BE4FEE0FFF1FE050FF4F208184
:100D000031812D933C93B0CF953509F069CFE82F11
:100D1000F0E096E0899FD0011124A252BE4FEE0F61
:100D2000FF1FE050FF4F2081318115963C932E9399
:100D300014979ACF30E0D0E0C0E0AAE0921788F490
:100D4000519160ED650F6A3008F47EC0E92FF0E044
:100D5000E950FE4F4191403209F042CF9F5F921718
:100D6000C8F3332309F43CCF29133ACFE82EF12CF2
:100D700020E931E0DE010E94370B24EB30E040E057
:100D800050E00E94180B69018CEEC81A8AEFD80A4D
:100D90008701000F111FF801E050FF4FD182C08280
:100DA0000E94A004882309F4B4CEF701E85FFE4F47
:100DB000F080B60190E080E02CE0660F771F881F7E
:100DC000991F2A95D1F7605F784D8F4F9F4F20E292
:100DD0003EE440E050E00E94F60AB9018F2D0E94E7
:100DE0006B04882309F495CEF801E45FFE4F8081FF
:100DF0009181009711F00E94D10488ED90E00E944B
:100E00005A026F2D70E090E080E04AE00E94DE041C
:100E10008DEC90E00E945A02BE01DD0F880B990B09
:100E20004AE00E94DE0485EC90E00E945A02F8013C
:100E3000E050FF4F6081718190E080E04AE00E94C5
:100E4000DE0481EC90E072CE9F5FAC9FB001AD9F5D
:100E5000700D1124EB01C50FD11D57FDDA95E097F8
:100E6000342FC53BD1050CF469CFBACE1F920F9237
:100E70000FB60F9211242F933F938F939F93AF93AD
:100E8000BF9380910E0290910F02A0911002B09139
:100E9000110230910D0223E0230F2D3758F50196F2
:100EA000A11DB11D20930D0280930E0290930F029D
:100EB000A0931002B093110280911202909113023C
:100EC000A0911402B09115020196A11DB11D80934D
:100ED000120290931302A0931402B0931502BF91D3
:100EE000AF919F918F913F912F910F900FBE0F90D7
:100EF0001F90189526E8230F0296A11DB11DD2CF91
:100F00001F920F920FB60F9211242F933F934F937E
:100F10005F936F937F938F939F93AF93BF93EF9361
:100F2000FF9386E692E00E94E601FF91EF91BF9168
:100F3000AF919F918F917F916F915F914F913F9171
:100F40002F910F900FBE0F901F9018951F920F9228
:100F50000FB60F9211242F938F939F93EF93FF93CC
:100F6000E0917602F09177028081E0917C02F0912D
:100F70007D0282FD1BC0908180917F028F5F8F7305
:100F800020918002821741F0E0917F02F0E0EA595F
:100F9000FD4F958F80937F02FF91EF919F918F91ED
:100FA0002F910F900FBE0F901F9018958081F4CF56
:100FB0001F920F920FB60F9211242F933F934F93CE
:100FC0005F936F937F938F939F93AF93BF93EF93B1
:100FD000FF938091B900887F803609F44AC0F0F50C
:100FE000883209F4A7C018F5803109F49BC0B8F421
:100FF000882309F4F9C0883009F494C0FF91EF9177
:10100000BF91AF919F918F917F916F915F914F9120
:101010003F912F910F900FBE0F901F901895883120
:1010200009F488C0803251F780933A0214C08034AA
:1010300009F49DC040F48033B9F38833F9F6809306
:101040003A0285ECB0C0803509F485C0883509F4D2
:1010500096C0883499F60E943805D0CF883909F4B3
:101060008CC038F5883729F050F4883611F0803775
:1010700029F683E080933C021092D60157C088384D
:1010800009F47BC0803919F0803809F0B7CF80911E
:10109000D601803208F071C0E091D60181E08E0F58
:1010A0008093D6018091BB00F0E0EA54FE4F80832C
:1010B0003DC0803B39F0E0F4803A09F479C0883AC9
:1010C00009F09CCF84E080933C021092B50110920D
:1010D000B401E091D901F091DA0109958091B40150
:1010E00081110FC081E08093B4011092940109C076
:1010F000803C09F4A6CF883C09F4A3CF883B09F0D3
:101100007DCFE091B50181E08E0F8093B501F0E0D5
:10111000EC56FE4F80818093BB009091B501809189
:10112000B40129C0809117028093BB0085EC8093A5
:10113000BC0064CF9091390280913802981758F51D
:10114000E091390281E08E0F80933902F0E0E85E91
:10115000FD4F8081E9CFE091390281E08E0F8093CD
:1011600039028091BB00F0E0E85EFD4F80839091F2
:101170003902809138029817C8F285E8D8CFE091FB
:10118000390281E08E0F809339028091BB00F0E03C
:10119000E85EFD4F808380913B0281115CCF81E04E
:1011A0008093160284EA8093BC0010923C0226CF02
:1011B00085EC8093BC0010923C028091D601803275
:1011C00030F4E091D601F0E0EA54FE4F10826091D5
:1011D000D60170E0E091D701F091D80186EB91E063
:1011E00009951092D6010ACF10923A0234CFE6E662
:1011F000F2E01382128288EE93E0A0E0B0E08483F4
:101200009583A683B78328E131E03183208325ECE1
:1012100030E03587248724EC30E03787268720ECC0
:1012200030E0318B208B21EC30E0338B228B22ECB1
:1012300030E0358B248B26EC30E0378B268B118EFB
:10124000128E138E148EE3E0F3E0138212828483F5
:101250009583A683B7838AE291E091838083089582
:10126000789484B5826084BD84B5816084BD85B581
:10127000826085BD85B5816085BD80916E0081608D
:1012800080936E0010928100809181008260809333
:101290008100809181008160809381008091800035
:1012A0008160809380008091B10084608093B10060
:1012B0008091B00081608093B00080917A0084605A
:1012C00080937A0080917A00826080937A00809186
:1012D0007A00816080937A0080917A0080688093A0
:1012E0007A001092C100E0917602F091770282E0DC
:1012F0008083E0917202F09173021082E091740297
:10130000F091750280E1808310927E02E0917A0272
:10131000F0917B0286E08083E0917802F09179027F
:10132000808180618083E0917802F09179028081F0
:1013300088608083E0917802F091790280818068F2
:101340008083E0917802F091790280818F7D8083A3
:101350001092DC011092DB010E94BC0286E691E053
:101360009093DA018093D90187E691E09093D801B8
:101370008093D70188E48093B8001092DD0188EA59
:1013800091E6A0E0B0E080933E0290933F02A093EC
:101390004002B093410281E080933D02809342027B
:1013A00080E48093640210924302109265020E94CE
:1013B000FB028823B9F10E943005C0E0D0E011E0C3
:1013C00086E692E00E94C601892B09F4C1C086E638
:1013D00092E00E94A4019FB7F89440910E025091B0
:1013E0000F0260911002709111029FBF4093090299
:1013F00050930A0260930B0270930C0290910702C3
:101400008D3019F08A3009F091C08091080288234C
:1014100021F0911102C00E947005109208021092F2
:101420000702CECF60E180E00E94B304882319F266
:1014300069E78EEF0E94B304882309F4BCCF60E211
:1014400080E00E94B304882309F4B5CF0E944101D3
:101450006B017C0185E0882E912CA12CB12C0E947F
:1014600041016C197D098E099F09683E7340810511
:101470009105A8F321E0821A9108A108B10888EE2D
:10148000C80E83E0D81EE11CF11C81149104A10454
:10149000B10429F760EA80E00E94B304882309F4CC
:1014A0008ACF0E94A004882309F485CFCEEDD1E035
:1014B00000E510E07801F6E0EF0EF11C6E01C801C6
:1014C0000E94E00AF60181936F010F5F1F4F0E1516
:1014D0001F05A9F7888199818451954081399140F0
:1014E00010F0198218828A819B818451954081393C
:1014F000914010F01B821A828C819D81845195400D
:101500008139914010F01D821C8226968701083691
:10151000110581F681E08093F6018BE191E00E9454
:1015200022058FEE90E00E94220547CF911148CF0F
:10153000E0910802E03148F491E09E0F9093080298
:10154000F0E0E950FE4F80833BCF1093070238CF85
:1015500080910802811104C080910702882329F13B
:101560002FB7F89480910E0290910F02A091100273
:10157000B09111022FBF4091090250910A0260916F
:101580000B0270910C02841B950BA60BB70B88976E
:10159000A105B10550F080910702811102C00E949F
:1015A00070051092080210920702209709F408CFE4
:1015B0000E94D201882309F403CF0E94000000CFCB
:1015C000F999FECF92BD81BDF89A992780B508950B
:1015D000262FF999FECF1FBA92BD81BD20BD0FB64F
:1015E000F894FA9AF99A0FBE01960895A1E21A2E7C
:1015F000AA1BBB1BFD010DC0AA1FBB1FEE1FFF1FB7
:10160000A217B307E407F50720F0A21BB30BE40B06
:10161000F50B661F771F881F991F1A9469F760954D
:101620007095809590959B01AC01BD01CF01089507
:10163000052E97FB1EF400940E942F0B57FD07D038
:101640000E94F60A07FC03D04EF40C942F0B509521
:101650004095309521953F4F4F4F5F4F089590959E
:101660008095709561957F4F8F4F9F4F08950E9491
:10167000440BB7FF0895821B930B0895EE0FFF1FD5
:101680000590F491E02D0994A29FB001B39FC00191
:10169000A39F700D811D1124911DB29F700D811D9E
:1016A0001124911D0895F894FFCFF205C505830517
:1016B000610608090C0D3B01480156016401000058
:1016C00000000802680195017502C601A401B80175
:1016D0000000000039040C046804E2030504F2036E
:1016E000E3030D0A006C6566742065796562726FAC
:1016F000770072696768742065796562726F770038
:101700006C65667420666F726568656164007269F5
:0E17100067687420666F72656865616400002A
:107E0000112484B714BE81FFF0D085E080938100F7
:107E100082E08093C00088E18093C10086E0809377
:107E2000C20080E18093C4008EE0C9D0259A86E02C
:107E300020E33CEF91E0309385002093840096BBD3
:107E4000B09BFECF1D9AA8958150A9F7CC24DD24C4
:107E500088248394B5E0AB2EA1E19A2EF3E0BF2EE7
:107E6000A2D0813461F49FD0082FAFD0023811F036
:107E7000013811F484E001C083E08DD089C08234E0
:107E800011F484E103C0853419F485E0A6D080C0E4
:107E9000853579F488D0E82EFF2485D0082F10E0AE
:107EA000102F00270E291F29000F111F8ED06801E7
:107EB0006FC0863521F484E090D080E0DECF843638
:107EC00009F040C070D06FD0082F6DD080E0C81688
:107ED00080E7D80618F4F601B7BEE895C0E0D1E017
:107EE00062D089930C17E1F7F0E0CF16F0E7DF06D8
:107EF00018F0F601B7BEE89568D007B600FCFDCFD4
:107F0000A601A0E0B1E02C9130E011968C91119780
:107F100090E0982F8827822B932B1296FA010C0160
:107F200087BEE89511244E5F5F4FF1E0A038BF0790
:107F300051F7F601A7BEE89507B600FCFDCF97BE46
:107F4000E89526C08437B1F42ED02DD0F82E2BD052
:107F50003CD0F601EF2C8F010F5F1F4F84911BD097
:107F6000EA94F801C1F70894C11CD11CFA94CF0C13
:107F7000D11C0EC0853739F428D08EE10CD085E9AC
:107F80000AD08FE07ACF813511F488E018D01DD067
:107F900080E101D065CF982F8091C00085FFFCCF94
:107FA0009093C60008958091C00087FFFCCF809118
:107FB000C00084FD01C0A8958091C6000895E0E648
:107FC000F0E098E1908380830895EDDF803219F02E
:107FD00088E0F5DFFFCF84E1DECF1F93182FE3DFCA
:107FE0001150E9F7F2DF1F91089580E0E8DFEE27F6
:047FF000FF270994CA
:027FFE00040479
:00000001FF
