:020000040000FA
:100000000C9425010C944D010C944D010C944D0160
:100010000C944D010C944D010C944D010C944D0128
:100020000C944D010C944D010C944D010C944D0118
:100030000C944D010C944D010C944D010C944D0108
:100040000C94EE070C944D010C945E080C94380847
:100050000C944D010C944D010C944D010C944D01E8
:100060000C9490080C944D0141207A65726F206DBC
:1000700065616E7320746861742076616C756520AB
:10008000686173206E6F74206265656E20726563AF
:100090006F726465642E006A6F696E742C636861A8
:1000A0006E6E656C2C6C6F7765725F75732C726504
:1000B00073745F75732C75707065725F757300492A
:1000C0003243207772697465206661696C65642EBD
:1000D000204F757470757420737461746520697332
:1000E00020756E6B6E6F776E2E0020286E6F7420F9
:1000F0006D656173757265642064656772656573AB
:100100002900207573207C2063616C6962726174C0
:10011000696F6E20706F736974696F6E2000207C48
:100120002070756C73652000207C206368616E6EA2
:10013000656C200053656C65637465643A200053F8
:100140006176656420746F20454550524F4D2E00F6
:100150004F4646004D6F76653A2031203930207C7D
:1001600020536176653A2031204E2C2031204C2CD2
:1001700020312055207C205072696E743A20502026
:100180007C204F66663A2030005245414459202D6C
:1001900020616C6C206F757470757473204F4646C7
:1001A00000436F756C64206E6F742073657420500B
:1001B000434139363835206672657175656E6379ED
:1001C0002E005043413936383520726573657420EE
:1001D0006661696C65642E005043413936383520BC
:1001E0006E6F742064657465637465642061742047
:1001F000307834303B20493243206572726F722070
:100200000000000000250028002B00040404040462
:1002100004040402020202020203030303030301B3
:10022000020408102040800102040810200102048A
:10023000081020000000080002010000030407006D
:100240000000000000000000C30911241FBECFEF12
:10025000D8E0DEBFCDBF11E0A0E0B1E0E8E3FEE111
:1002600002C005900D92AC38B107D9F723E0ACE895
:10027000B1E001C01D92AF30B207E1F711E0C5E275
:10028000D1E004C02197FE010E94140FC432D107AF
:10029000C9F70E94FC090C941A0F0C94000090E01E
:1002A000FC01ED5CFD4F2491FC01E15EFD4F3491BA
:1002B000FC01E55FFD4FE491EE23C9F0222339F004
:1002C000233001F1A8F4213019F1223029F1F0E0B6
:1002D000EE0FFF1FEF5FFD4FA591B4918FB7F8941C
:1002E000EC91611126C030953E233C938FBF089559
:1002F0002730A9F02830C9F0243049F780918000D8
:100300008F7D03C0809180008F7780938000DFCF46
:1003100084B58F7784BDDBCF84B58F7DFBCF809193
:10032000B0008F778093B000D2CF8091B0008F7DE6
:10033000F9CF3E2BDACF3FB7F8948091120290911B
:100340001302A0911402B091150226B5A89B05C016
:100350002F3F19F00196A11DB11D3FBFBA2FA92F44
:10036000982F8827BC01CD01620F711D811D911D41
:1003700042E0660F771F881F991F4A95D1F70895AD
:100380008F929F92AF92BF92CF92DF92EF92FF92A5
:100390004B015C010E949B016B017C010E949B014F
:1003A0006C197D098E099F09683E7340810591058E
:1003B000A8F321E0821A9108A108B10888EEC80EBE
:1003C00083E0D81EE11CF11C81149104A104B10446
:1003D00029F7FF90EF90DF90CF90BF90AF909F9064
:1003E0008F90089508950895AF92BF92CF92DF92B3
:1003F000EF92FF920F931F93CF93DF936C017B01DA
:100400008B01040F151FEB015E01AE18BF08C0176A
:10041000D10759F06991D601ED91FC910190F081DD
:10042000E02DC6010995892B79F7C501DF91CF91A0
:100430001F910F91FF90EF90DF90CF90BF90AF9002
:100440000895FC01538D448D252F30E0842F90E0DA
:10045000821B930B541710F0CF96089501970895BF
:10046000FC01918D828D981761F0A28DAE0FBF2F88
:10047000B11D5D968C91928D9F5F9F73928F90E0DE
:1004800008958FEF9FEF0895FC01918D828D98174D
:1004900031F0828DE80FF11D858D90E008958FEF8A
:1004A0009FEF0895FC01918D228D892F90E0805C53
:1004B0009F4F821B91098F739927089586E692E0DA
:1004C0000E94520221E0892B09F420E0822F089536
:1004D00080E090E0892B29F00E945E0281110C944B
:1004E00000000895FC01A48DA80FB92FB11DA35AD7
:1004F000BF4F2C91848D90E001968F739927848F44
:10050000A689B7892C93A089B1898C918370806466
:100510008C93938D848D981306C00288F389E02D07
:1005200080818F7D80830895EF92FF920F931F93B8
:10053000CF93DF93EC0181E0888F9B8D8C8D981396
:100540001AC0E889F989808185FF15C09FB7F894A2
:10055000EE89FF896083E889F989808183708064EE
:1005600080839FBF81E090E0DF91CF911F910F9139
:10057000FF90EF900895F62E0B8D10E00F5F1F4F48
:100580000F731127E02E8C8D8E110CC00FB607FC57
:10059000FACFE889F989808185FFF5CFCE010E94E5
:1005A0007202F1CFEB8DEC0FFD2FF11DE35AFF4FDF
:1005B000F0829FB7F8940B8FEA89FB898081806273
:1005C000CFCF0F931F93CF93DF938C01D0E0C0E088
:1005D000F801EC0FFD1F6491662341F086E692E07E
:1005E0000E949402892B11F02196F2CFCE01DF9167
:1005F000CF911F910F910895682F86E692E00C9499
:100600009402CF93DF93EC01888D8823B9F0AA89F7
:10061000BB89E889F9898C9185FD03C0808186FDBD
:100620000DC00FB607FCF7CF8C9185FFF2CF80810C
:1006300085FFEDCFCE010E947202E9CFDF91CF910D
:1006400008952091AE01260F3327331F2132310543
:10065000ECF420913C02FC0190E080E0243069F051
:1006600082E00895A091AE012191AC0142575E4F06
:10067000A40FB52FB11D2C930196861798F3809186
:10068000AE01680F6093AE0180E0089581E00895A7
:1006900010923C0281E080933B021092160261E0CE
:1006A00082E10E944F0161E083E10E944F01E9EB8A
:1006B000F0E080818E7F808380818D7F808388E4DD
:1006C0008093B80085E48093BC000895CF93DF93B6
:1006D00091E090938D018823B9F0C091B800D0913A
:1006E000BA008091BC008A7B8093BC0060E082E10C
:1006F0000E944F0160E083E10E944F010E94480385
:10070000D093BA00C093B800DF91CF9108958F9233
:100710009F92AF92BF92CF92DF92EF92FF920F9390
:100720001F93CF93DF93D0916502D13208F0D7C0E9
:10073000182FC09164020E949B016B017C01809183
:100740003C0281116BC082E080933C0210933B021B
:100750008FEF80933A0210923902D0933802A4E4CA
:10076000B2E0E8E1F2E080E0D81391C01092170205
:1007700080911702CC0FC82BC093170280911602EC
:10078000813009F088C0109216020E949B016B0113
:100790007C01809117028093BB0080913E02909172
:1007A0003F02A0914002B0914102892B8A2B8B2BF2
:1007B000A1F00E949B0100913E0210913F02209106
:1007C0004002309141026C197D098E099F0906177C
:1007D00017072807390708F442C08091BC0083FD41
:1007E000D8CF85EC8093BC000E949B016B017C01FB
:1007F00080913C02823009F450C080913A028F3FD0
:1008000009F46FC080913A02803209F46CC0809183
:100810003A02803309F469C084E026C080913E0228
:1008200090913F02A0914002B0914102892B8A2B06
:100830008B2B09F484CF0E949B0180903E02909004
:100840003F02A0904002B09041026C197D098E09D0
:100850009F0986169706A806B90608F070CF809102
:100860003D020E94660385E01092430210926502E9
:1008700010924202DF91CF911F910F91FF90EF9064
:10088000DF90CF90BF90AF909F908F9008959D91F3
:1008900091938F5F69CF85EEA5CF80913E029091B5
:1008A0003F02A0914002B0914102892B8A2B8B2BF1
:1008B00009F49ECF0E949B0100913E0210913F02DD
:1008C00020914002309141026C197D098E099F09E7
:1008D000061717072807390708F08ACFC0CF81E02D
:1008E000C3CF80E0C1CF82E0BFCF83E0BDCF08950A
:1008F000E091D6018091D501E81730F4F0E0E9529B
:10090000FE4F808190E008958FEF9FEF08959091C2
:10091000D6018091D5012FEF3FEF981748F4E92FCA
:10092000F0E0E952FE4F208130E09F5F9093D601C6
:10093000C90108958091D5019091D601891B990B29
:100940000895CF92DF92EF92FF920F931F93CF9370
:10095000DF937C01CB018A0120914202222389F09E
:10096000EB016B01C40ED51ECC15DD0569F0699154
:10097000D701ED91FC910190F081E02DC70109951F
:10098000F3CF642F0E942103C801DF91CF911F9103
:100990000F91FF90EF90DF90CF900895CF93DF936A
:1009A0001F92CDB7DEB76983209142022223F9F06E
:1009B00020916502203258F021E030E0FC013383C1
:1009C000228390E080E00F90DF91CF910895809195
:1009D0004302E82FF0E0EC5BFD4F998190838F5F3D
:1009E000809343028093650281E090E0ECCF61E068
:1009F000CE0101960E942103F7CF682F83E093E098
:100A00000C94CE04CF93DF93EB0191E090934202DC
:100A100090E490936402109243021092650294E075
:100A2000899FB00111246A5F7F4F83E093E00E94A9
:100A3000CE0490E080E00E94FD0490E080E00E94FF
:100A4000FD04CE0199270E94FD048D2F90E00E94A5
:100A5000FD0481E00E94870391E0811190E0892FDD
:100A6000DF91CF91089590E080E00895CF93C0E0AA
:100A700060E070E18C2F0E940205CF5FC031C1F7AA
:100A8000CF910895CF93C62F91E09093420290E4C6
:100A9000909364021092430210926502682F83E0E3
:100AA00093E00E94CE046C2F83E093E00E94CE047A
:100AB00081E00E94870391E0811190E0892FCF911E
:100AC0000895FC0101900020E9F73197AF01481B20
:100AD000590BBC0186E692E00C94F401CF93DF93AE
:100AE0000E94E102EC0180E591E00E9461058C0F1B
:100AF0009D1FDF91CF9108958F929F92AF92BF92E9
:100B00000F931F93CF93DF93CDB7DEB7A1970FB6A7
:100B1000F894DEBF0FBECDBF19A2423008F44AE000
:100B20008E010F5D1F4F842E912CB12CA12CA5019D
:100B300094010E94D50DE62FB901CA01EA30F4F400
:100B4000E05DD801EE938D01232B242B252B79F723
:100B500090E080E0109719F0CD010E946105A19608
:100B60000FB6F894DEBF0FBECDBFDF91CF911F91BE
:100B70000F91BF90AF909F908F900895E95CE1CF67
:100B800085ED8093BC0080913E0290913F02A09140
:100B90004002B09141020796A11DB11D23E0B69518
:100BA000A795979587952A95D1F72091BC0024FDAC
:100BB00003C010923C02089540913E0250913F02C2
:100BC0006091400270914102452B462B472B69F3FF
:100BD0000097A105B10541F02AE22A95F1F700C07E
:100BE0000197A109B109E1CF80913D020C94660300
:100BF000FF920F931F93CF93DF93EC018B01FB01C7
:100C0000F0800E94950DF81621F06F2DCE010E9404
:100C10009D0DF801F1802196CE010E94950DF816E8
:100C200021F06F2DCE010E949D0DC801DF91CF9163
:100C30001F910F91FF900895CF92DF92EF92FF9254
:100C40000F931F93CF93DF9340910702A42FB0E03F
:100C5000FD01E950FE4F1082413009F057C08091EC
:100C6000F701803371F40E94360580E591E0DF9151
:100C7000CF911F910F91FF90EF90DF90CF900C9448
:100C80006E058F7D803509F05CC087E990E00E9499
:100C90006E05C0E0D1E00CE211E0888199810097F7
:100CA00011F00E9461058CE20E94FC026A8170E0F2
:100CB00090E080E04AE00E947C058CE20E94FC0209
:100CC0006D817E8190E080E04AE00E947C058CE2AC
:100CD0000E94FC026F81788590E080E04AE00E94EB
:100CE0007C058CE20E94FC0269857A8590E080E0B8
:100CF0004AE00E947C0580E591E00E9461052B9608
:100D00000C171D0751F688E690E0B1CF4330C8F0CC
:100D1000C091F701C153C430A0F48091F801803232
:100D200011F08C3271F4E8EFF1E021E030E0822F35
:100D30009191903211F09C3269F42F5F3F4F24174C
:100D4000B0F3DF91CF911F910F91FF90EF90DF9063
:100D5000CF9008952417A8F7C0938C01B9016F5F55
:100D60007F4FA617B70709F051C09F7D9E34A1F1B0
:100D70009C3419F0953509F049C02C2F30E09C3493
:100D8000B1F58BE0829FF001839FF00D1124E050BC
:100D9000FF4F838194819683858386E0C89F80017D
:100DA00011242BE0C29FE0011124BE016B5F7E4F36
:100DB000C8010E94F805BE01695F7E4FC801029616
:100DC0000E94F805BE01675F7E4FC80104960E942D
:100DD000F8058FE391E04BCF2BE0C29FF001112487
:100DE000E050FF4F2381348130872783C6CF95356C
:100DF000A1F68BE0829FF001839FF00D1124E0505B
:100E0000FF4F8381948192878187C7CFF901E95091
:100E1000FE4F90E010E000E06AE0519120ED250FD8
:100E20002A3088F0E82FF0E0E950FE4F841708F4EC
:100E300041C0992309F485CF481383CF053B1105A1
:100E400008F07FCF14C0609F9001619F300D112486
:100E5000890100531109050F111D57FD1A95053B16
:100E6000110508F06ECF8F5F91E04813D6CF0E9436
:100E700036059801A0E9B1E00E94F70D24EB30E0BF
:100E800040E050E00E94AB0DDA01C9018C5E9A4F40
:100E9000AF4FBF4F0C2F10E02BE0C29FF001112489
:100EA000E050FF4F94838383C281C03148F08FEBC1
:100EB00090E0DDCE2191203209F043CF8F5FB6CF95
:100EC000BC0190E080E00E949A0C20E030E048E411
:100ED00052E40E94D70C20E030E040E855E40E9444
:100EE000D70C20E034E244E759E40E94730E20E07E
:100EF00030E040E05FE30E94070E0E94E50E6115BE
:100F000080E1780710F06FEF7FE08C2F0E940205E0
:100F1000882369F28BE0809FE001819FD00D11242E
:100F2000C050DF4F2B813C8150E040E024513540E0
:100F300041095109A4EBB0E00E94CA0D20E931E05B
:100F400040E050E00E94AB0D69017A0184E391E03A
:100F50000E94E10288819981009711F00E94610549
:100F600088E291E00E94E102E0918C01CBE0CE9F0B
:100F7000F0011124E050FF4F628170E090E080E0CA
:100F80004AE00E947C058EE191E00E94E102E0913E
:100F90008C01CE9FF0011124E050FF4F63817481DA
:100FA00090E080E04AE00E947C0582E091E00E94AF
:100FB000E1024AE0C701B601F7FE0BC08DE20E94D4
:100FC000FC0266277727CB016C197D098E099F09E2
:100FD0004AE00E947C058AEE90E049CE1F920F9273
:100FE0000FB60F9211242F933F938F939F93AF933C
:100FF000BF9380910E0290910F02A0911002B091C8
:10100000110230910D0223E0230F2D3758F5019680
:10101000A11DB11D20930D0280930E0290930F022B
:10102000A0931002B09311028091120290911302CA
:10103000A0911402B09115020196A11DB11D8093DB
:10104000120290931302A0931402B0931502BF9161
:10105000AF919F918F913F912F910F900FBE0F9065
:101060001F90189526E8230F0296A11DB11DD2CF1F
:101070001F920F920FB60F9211242F933F934F930D
:101080005F936F937F938F939F93AF93BF93EF93F0
:10109000FF9386E692E00E947202FF91EF91BF916A
:1010A000AF919F918F917F916F915F914F913F9100
:1010B0002F910F900FBE0F901F9018951F920F92B7
:1010C0000FB60F9211242F938F939F93EF93FF935B
:1010D000E0917602F09177028081E0917C02F091BC
:1010E0007D0282FD1BC0908180917F028F5F8F7394
:1010F00020918002821741F0E0917F02F0E0EA59EE
:10110000FD4F958F80937F02FF91EF919F918F917B
:101110002F910F900FBE0F901F9018958081F4CFE4
:101120001F920F920FB60F9211242F933F934F935C
:101130005F936F937F938F939F93AF93BF93EF933F
:10114000FF938091B900887F803609F44AC0F0F59A
:10115000883209F4A7C018F5803109F49BC0B8F4AF
:10116000882309F4F9C0883009F494C0FF91EF9105
:10117000BF91AF919F918F917F916F915F914F91AF
:101180003F912F910F900FBE0F901F9018958831AF
:1011900009F488C0803251F780933A0214C0803439
:1011A00009F49DC040F48033B9F38833F9F6809395
:1011B0003A0285ECB0C0803509F485C0883509F461
:1011C00096C0883499F60E94C005D0CF883909F4BA
:1011D0008CC038F5883729F050F4883611F0803704
:1011E00029F683E080933C021092D00157C08838E2
:1011F00009F47BC0803919F0803809F0B7CF8091AD
:10120000D001803208F071C0E091D00181E08E0FF2
:101210008093D0018091BB00F0E0E055FE4F8083C9
:101220003DC0803B39F0E0F4803A09F479C0883A57
:1012300009F09CCF84E080933C021092AF011092A1
:10124000AE01E091D301F091D40109958091AE01F6
:1012500081110FC081E08093AE0110928E0109C010
:10126000803C09F4A6CF883C09F4A3CF883B09F061
:101270007DCFE091AF0181E08E0F8093AF01F0E070
:10128000E257FE4F80818093BB009091AF01809127
:10129000AE0129C0809117028093BB0085EC80933A
:1012A000BC0064CF9091390280913802981758F5AC
:1012B000E091390281E08E0F80933902F0E0E85E20
:1012C000FD4F8081E9CFE091390281E08E0F80935C
:1012D00039028091BB00F0E0E85EFD4F8083909181
:1012E0003902809138029817C8F285E8D8CFE0918A
:1012F000390281E08E0F809339028091BB00F0E0CB
:10130000E85EFD4F808380913B0281115CCF81E0DC
:101310008093160284EA8093BC0010923C0226CF90
:1013200085EC8093BC0010923C028091D001803209
:1013300030F4E091D001F0E0E055FE4F1082609172
:10134000D00170E0E091D101F091D20180EB91E009
:1013500009951092D0010ACF10923A0234CF0F9320
:101360001F93CF93DF938C01EB010E94950D88832F
:10137000C80101960E94950D8983CE01DF91CF911E
:101380001F910F910895E6E6F2E01382128288EE33
:1013900093E0A0E0B0E084839583A683B78320E345
:1013A00031E03183208325EC30E03587248724EC3D
:1013B00030E03787268720EC30E0318B208B21EC22
:1013C00030E0338B228B22EC30E0358B248B26EC03
:1013D00030E0378B268B118E128E138E148EE3E045
:1013E000F3E01382128284839583A683B78382E419
:1013F00091E0918380830895789484B5826084BD60
:1014000084B5816084BD85B5826085BD85B5816008
:1014100085BD80916E00816080936E001092810086
:101420008091810082608093810080918100816041
:101430008093810080918000816080938000809102
:10144000B10084608093B1008091B000816080938E
:10145000B00080917A00846080937A0080917A0055
:10146000826080937A0080917A00816080937A0014
:1014700080917A00806880937A001092C100E09198
:101480007602F091770282E08083E0917202F0911F
:1014900073021082E0917402F091750280E1808302
:1014A00010927E02E0917A02F0917B0286E08083C6
:1014B000E0917802F0917902808180618083E091EF
:1014C0007802F0917902808188608083E0917802CF
:1014D000F0917902808180688083E0917802F091B8
:1014E000790280818F7D808386E990E0A0E0B0E082
:1014F00080936A0290936B02A0936C02B0936D028A
:101500001092D6011092D5011092430210926502FA
:101510000E94480382EF91E09093D4018093D3011D
:1015200083EF91E09093D2018093D10111E0109369
:101530004202D0E4D093640281E00E948703C82F66
:101540008823B1F088ED91E00E94E1026C2F70E0F9
:1015500090E080E04AE00E947C0580E591E00E94F6
:10156000610568EE73E080E090E00E94C001F9CF71
:1015700060E080E00E94420581110BC082EC91E0A6
:101580000E946E0568EE73E080E090E00E94C0016A
:10159000F9CF6AE070E080E090E00E94C001109313
:1015A0004202D0936402109243021092650260E0FE
:1015B00083E093E00E94CE0480E00E948703C82F5E
:1015C000882359F081EA91E00E946E0568EE73E08D
:1015D00080E090E00E94C001F9CF0E949B016B0166
:1015E0007C0180913C02811162C081E080933C02C9
:1015F00080933B029FEF90933A021092390210922F
:101600003802809317028091170280688093170236
:1016100080911602813009F01AC1109216020E94C0
:101620009B016B017C01809117028093BB0080912C
:101630003E0290913F02A0914002B0914102892B5D
:101640008A2B8B2BA1F00E949B0100913E021091EE
:101650003F0220914002309141026C197D098E09B0
:101660009F09061717072807390708F441C080911A
:10167000BC0083FDD8CF85EC8093BC000E949B0109
:101680006B017C0180913C02813009F4E2C08091C1
:101690003902811100C180913902E8E1F2E0A7ED41
:1016A000B1E0C81749F191919D93CF5FFACF809136
:1016B0003E0290913F02A0914002B0914102892BDD
:1016C0008A2B8B2B09F48DCF0E949B0100913E0247
:1016D00010913F0220914002309141026C197D0926
:1016E0008E099F09061717072807390708F079CFD1
:1016F00080913D020E9466031092D601C093D501ED
:10170000C13009F05FCF83E093E00E948704C82FC7
:10171000682F6F76606180E00E944205882309F49B
:1017200051CF69E78EEF0E944205882309F44ACF22
:101730006C2F80E00E944205882309F443CF65E0C6
:1017400070E080E090E00E94C0016C2F606A80E051
:101750000E944205882309F435CF6AE070E080E0FA
:1017600090E00E94C0010E943605C5E0D1E002E091
:1017700010E0BE01C80102970E94AF09BE016E5F72
:101780007F4FC8010E94AF09BE016C5F7F4FC80147
:1017900002960E94AF0988819981845195408139D0
:1017A000914010F0198218828A819B818451954062
:1017B0008139914010F01B821A828C819D81845165
:1017C00095408139914010F01D821C822B960A5F52
:1017D0001F4F0A31110569F689E891E00E946E05F4
:1017E00084E591E00E946E05C0E0D0E011E086E65D
:1017F00092E00E945202892B09F463C086E692E0CF
:101800000E9430029FB7F89440910E0250910F024F
:1018100060911002709111029FBF40930902509392
:101820000A0260930B0270930C02909108028D30B3
:1018300011F08A3091F5911105C080910702811154
:101840000E941C061092070210920802D0CF85EE6B
:1018500013CF80913E0290913F02A0914002B0913F
:101860004102892B8A2B8B2B09F40CCF0E949B0100
:1018700000913E0210913F022091400230914102BE
:101880006C197D098E099F09061717072807390764
:1018900008F0F8CE2DCF81E000CF9111A8CFE091D4
:1018A0000702EF3048F491E09E0F90930702F0E0BA
:1018B000E950FE4F80839BCF1092070210930802DD
:1018C00096CF80910702811104C08091080288237D
:1018D00031F12FB7F89480910E0290910F02A091F0
:1018E0001002B09111022FBF4091090250910A02DB
:1018F00060910B0270910C02841B950BA60BB70B29
:101900008B349105A105B10550F080910802811139
:1019100002C00E941C061092070210920802209733
:1019200009F465CF0E945E02882309F460CF0E940B
:1019300000005DCFE89409C097FB3EF49095809538
:10194000709561957F4F8F4F9F4F9923A9F0F92F85
:1019500096E9BB279395F695879577956795B79503
:10196000F111F8CFFAF4BB0F11F460FF1BC06F5FE9
:101970007F4F8F4F9F4F16C0882311F096E911C0FB
:10198000772321F09EE8872F762F05C0662371F01C
:1019900096E8862F70E060E02AF09A95660F771F30
:1019A000881FDAF7880F9695879597F908950E9412
:1019B000EA0C0C945B0D0E944D0D38F00E94540D02
:1019C00020F0952311F00C94440D0C944A0D112431
:1019D0000C948F0D0E946C0D70F3959FC1F3950FC1
:1019E00050E0551F629FF001729FBB27F00DB11DA3
:1019F000639FAA27F00DB11DAA1F649F6627B00D33
:101A0000A11D661F829F2227B00DA11D621F739F1B
:101A1000B00DA11D621F839FA00D611D221F749F29
:101A20003327A00D611D231F849F600D211D822F70
:101A3000762F6A2F11249F5750409AF0F1F0882397
:101A40004AF0EE0FFF1FBB1F661F771F881F9150C4
:101A50005040A9F79E3F510580F00C94440D0C9422
:101A60008F0D5F3FE4F3983ED4F3869577956795A5
:101A7000B795F795E7959F5FC1F7FE2B880F911DEE
:101A80009695879597F9089597F99F6780E870E094
:101A900060E008959FEF80EC089500240A941616E4
:101AA000170618060906089500240A94121613064C
:101AB000140605060895092E0394000C11F48823DA
:101AC00052F0BB0F40F4BF2B11F460FF04C06F5FF6
:101AD0007F4F8F4F9F4F089557FD9058440F551FCC
:101AE00059F05F3F71F04795880F97FB991F61F0A0
:101AF0009F3F79F087950895121613061406551F17
:101B0000F2CF4695F1DF08C0161617061806991F82
:101B1000F1CF86957105610508940895E894BB2777
:101B200066277727CB0197F90895F999FECF92BDE3
:101B300081BDF89A992780B50895262FF999FECF8F
:101B40001FBA92BD81BD20BD0FB6F894FA9AF99ADA
:101B50000FBE01960895052E97FB1EF400940E9477
:101B6000C20D57FD07D00E94D50D07FC03D04EF4DF
:101B70000C94C20D50954095309521953F4F4F4F95
:101B80005F4F089590958095709561957F4F8F4F29
:101B90009F4F08950E94F70DA59F900DB49F900D43
:101BA000A49F800D911D11240895A1E21A2EAA1B55
:101BB000BB1BFD010DC0AA1FBB1FEE1FFF1FA217FD
:101BC000B307E407F50720F0A21BB30BE40BF50BFA
:101BD000661F771F881F991F1A9469F76095709583
:101BE000809590959B01AC01BD01CF010895A29F06
:101BF000B001B39FC001A39F700D811D1124911DE1
:101C0000B29F700D811D1124911D08955058BB275E
:101C1000AA270E941E0E0C945B0D0E944D0D38F0F9
:101C20000E94540D20F039F49F3F19F426F40C94CF
:101C30004A0D0EF4E095E7FB0C94440DE92F0E9449
:101C40006C0D58F3BA17620773078407950720F0E5
:101C500079F4A6F50C948E0D0EF4E0950B2EBA2FA8
:101C6000A02D0B01B90190010C01CA01A0011124A2
:101C7000FF27591B99F0593F50F4503E68F11A164E
:101C8000F040A22F232F342F4427585FF3CF4695DF
:101C900037952795A795F0405395C9F77EF41F1601
:101CA000BA0B620B730B840BBAF09150A1F0FF0FCB
:101CB000BB1F661F771F881FC2F70EC0BA0F621FB7
:101CC000731F841F48F4879577956795B795F795A7
:101CD0009E3F08F0B0CF9395880F08F09927EE0F3C
:101CE0009795879508950E94870E0C945B0D0E942E
:101CF000540D58F00E944D0D40F029F45F3F29F03B
:101D00000C94440D51110C948F0D0C944A0D0E94AB
:101D10006C0D68F39923B1F3552391F3951B550B83
:101D2000BB27AA2762177307840738F09F5F5F4FAE
:101D3000220F331F441FAA1FA9F335D00E2E3AF0ED
:101D4000E0E832D091505040E695001CCAF72BD005
:101D5000FE2F29D0660F771F881FBB1F2617370756
:101D60004807AB07B0E809F0BB0B802DBF01FF2788
:101D700093585F4F3AF09E3F510578F00C94440D14
:101D80000C948F0D5F3FE4F3983ED4F386957795DE
:101D90006795B795F7959F5FC9F7880F911D969541
:101DA000879597F90895E1E0660F771F881FBB1F9D
:101DB000621773078407BA0720F0621B730B840B4A
:101DC000BA0BEE1F88F7E09508950E94740D88F015
:101DD0009F5798F0B92F9927B751B0F0E1F0660FEF
:101DE000771F881F991F1AF0BA95C9F714C0B13030
:101DF00091F00E948E0DB1E008950C948E0D672F26
:101E0000782F8827B85F39F0B93FCCF3869577955E
:101E10006795B395D9F73EF4909580957095619547
:101E20007F4F8F4F9F4F0895EE0FFF1F0590F49146
:101E3000E02D0994F894FFCF530108DC0500000061
:101E4000000000600109DC050000000000006E01D8
:101E50000CDC050000000000007C010DDC0500002A
:101E600000000000000000009402F40121020103C0
:101E700052023002440200000000CE04A1043305E7
:101E800077049A04870478040D0A006C6566742050
:101E900065796562726F7700726967687420657929
:101EA0006562726F77006C65667420666F72656834
:101EB00065616400726967687420666F7265686541
:041EC0006164000059
:107E0000112484B714BE81FFF0D085E080938100F7
:107E100082E08093C00088E18093C10086E0809377
:107E2000C20080E18093C4008EE0C9D0259A86E02C
:107E300020E33CEF91E0309385002093840096BBD3
:107E4000B09BFECF1D9AA8958150A9F7CC24DD24C4
:107E500088248394B5E0AB2EA1E19A2EF3E0BF2EE7
:107E6000A2D0813461F49FD0082FAFD0023811F036
:107E7000013811F484E001C083E08DD089C08234E0
:107E800011F484E103C0853419F485E0A6D080C0E4
:107E9000853579F488D0E82EFF2485D0082F10E0AE
:107EA000102F00270E291F29000F111F8ED06801E7
:107EB0006FC0863521F484E090D080E0DECF843638
:107EC00009F040C070D06FD0082F6DD080E0C81688
:107ED00080E7D80618F4F601B7BEE895C0E0D1E017
:107EE00062D089930C17E1F7F0E0CF16F0E7DF06D8
:107EF00018F0F601B7BEE89568D007B600FCFDCFD4
:107F0000A601A0E0B1E02C9130E011968C91119780
:107F100090E0982F8827822B932B1296FA010C0160
:107F200087BEE89511244E5F5F4FF1E0A038BF0790
:107F300051F7F601A7BEE89507B600FCFDCF97BE46
:107F4000E89526C08437B1F42ED02DD0F82E2BD052
:107F50003CD0F601EF2C8F010F5F1F4F84911BD097
:107F6000EA94F801C1F70894C11CD11CFA94CF0C13
:107F7000D11C0EC0853739F428D08EE10CD085E9AC
:107F80000AD08FE07ACF813511F488E018D01DD067
:107F900080E101D065CF982F8091C00085FFFCCF94
:107FA0009093C60008958091C00087FFFCCF809118
:107FB000C00084FD01C0A8958091C6000895E0E648
:107FC000F0E098E1908380830895EDDF803219F02E
:107FD00088E0F5DFFFCF84E1DECF1F93182FE3DFCA
:107FE0001150E9F7F2DF1F91089580E0E8DFEE27F6
:047FF000FF270994CA
:027FFE00040479
:00000001FF
