:020000040000FA
:100000000C94A3010C94CB010C94CB010C94CB0168
:100010000C94CB010C94CB010C94CB010C94CB0130
:100020000C94CB010C94CB010C94CB010C94CB0120
:100030000C94CB010C94CB010C94CB010C94CB0110
:100040000C9431080C94CB010C94A1080C947B08FF
:100050000C94CB010C94CB010C94CB010C94CB01F0
:100060000C94D3080C94CB01524553554C543A2070
:1000700050415353202D20504341393638352063A9
:100080006F6D6D756E69636174696F6E2069732041
:10009000776F726B696E6700414C4C203136204F90
:1000A00055545055545320464F52434544204F46D3
:1000B000460020205052455343414C453D30780086
:1000C00020204D4F4445323D3078004D4F4445315E
:1000D0003D307800524553554C543A204641494CE6
:1000E000202D2050434120616E7377657265642036
:1000F00062757420726567697374657220726561D8
:1001000064206661696C65642E00524553554C54F9
:100110003A204641494C202D2050434120616E73C6
:10012000776572656420627574206F75747075747C
:10013000732D6F6666207772697465206661696CDD
:1001400065642E005043413936383520464F554EB0
:100150004420617420616464726573732030783464
:1001600030005374617475732034206D65616E7353
:1001700020616E6F74686572204932432065727227
:100180006F722E005374617475732033206D656136
:100190006E732064617461204E41434B2E00537492
:1001A0006174757320323A20636865636B2056432F
:1001B000432C20474E442C205344412C2053434C85
:1001C00020616E642061646472657373206A756D6A
:1001D000706572732E00524553554C543A20464177
:1001E000494C202D2050434139363835206469640C
:1001F000206E6F7420616E73776572206174203099
:100200007834303B2057697265207374617475735C
:100210002000436865636B20666F72205344412F52
:1002200053434C2073686F727420636972637569FD
:1002300074206F72207377617070656420776972C3
:1002400065732E00524553554C543A204641494C53
:10025000202D20493243206275732074696D656FCB
:100260007574004C4F570048494748004C4F5700A1
:10027000484947480053434C284135293A20005308
:100280004441284134293A20005445535420005415
:10029000657374696E67206164647265737320307E
:1002A0007834302065766572792032207365636F0B
:1002B0006E64732E0045787465726E616C20736590
:1002C00072766F20706F776572206D75737420720F
:1002D000656D61696E204F46462E005043413936A8
:1002E0003835205341464520444941474E4F5354E9
:1002F00049430000000000250028002B00000000FA
:100300000023002600290004040404040404040259
:1003100002020202020303030303030102040810A2
:10032000204080010204081020010204081020006F
:1003300000000800020100000304070000000000A4
:1003400000000000F20911241FBECFEFD8E0DEBF8D
:10035000CDBF11E0A0E0B1E0ECEFF6E102C0059006
:100360000D92A832B107D9F722E0A8E2B1E001C0AE
:100370001D92AC39B207E1F711E0C3EAD1E004C045
:100380002197FE010E94760BC23AD107C9F70E945D
:100390002B0A0C947C0B0C940000833081F028F421
:1003A000813099F08230A9F008958730A9F0883023
:1003B000C9F08430B1F4809180008F7D03C08091BA
:1003C00080008F7780938000089584B58F7784BDF7
:1003D000089584B58F7DFBCF8091B0008F77809397
:1003E000B00008958091B0008F7DF9CFCF93DF9357
:1003F000282F30E0F901E15DFC4F8491F901E55EC1
:10040000FC4FD491F901E95FFC4FC491CC23A1F0DA
:1004100081110E94CD01EC2FF0E0EE0FFF1FE350A1
:10042000FD4FA591B491EC91ED2381E090E009F4AA
:1004300080E0DF91CF91089580E090E0FACF1F93A4
:10044000CF93DF93282F30E0F901E15DFC4F8491D9
:10045000F901E55EFC4FD491F901E95FFC4FC491CD
:10046000CC23A9F0162F81110E94CD01EC2FF0E0D2
:10047000EE0FFF1FED50FD4FA591B4918FB7F8948B
:10048000EC91111108C0D095DE23DC938FBFDF9172
:10049000CF911F910895DE2BF8CF3FB7F89480914C
:1004A0009F019091A001A091A101B091A20126B558
:1004B000A89B05C02F3F19F00196A11DB11D3FBF9C
:1004C000BA2FA92F982F8827BC01CD01620F711D6B
:1004D000811D911D42E0660F771F881F991F4A9565
:1004E000D1F7089508950895AF92BF92CF92DF9209
:1004F000EF92FF920F931F93CF93DF936C017B01D9
:100500008B01040F151FEB015E01AE18BF08C01769
:10051000D10759F06991D601ED91FC910190F081DC
:10052000E02DC6010995892B79F7C501DF91CF919F
:100530001F910F91FF90EF90DF90CF90BF90AF9001
:100540000895FC01538D448D252F30E0842F90E0D9
:10055000821B930B541710F0CF96089501970895BE
:10056000FC01918D828D981761F0A28DAE0FBF2F87
:10057000B11D5D968C91928D9F5F9F73928F90E0DD
:1005800008958FEF9FEF0895FC01918D828D98174C
:1005900031F0828DE80FF11D858D90E008958FEF89
:1005A0009FEF0895FC01918D228D892F90E0805C52
:1005B0009F4F821B91098F739927089583EF91E0D4
:1005C0000E94D20221E0892B09F420E0822F0895B5
:1005D00080E090E0892B29F00E94DE0281110C94CA
:1005E00000000895FC01A48DA80FB92FB11DA35AD6
:1005F000BF4F2C91848D90E001968F739927848F43
:10060000A689B7892C93A089B1898C918370806465
:100610008C93938D848D981306C00288F389E02D06
:1006200080818F7D80830895EF92FF920F931F93B7
:10063000CF93DF93EC0181E0888F9B8D8C8D981395
:100640001AC0E889F989808185FF15C09FB7F894A1
:10065000EE89FF896083E889F989808183708064ED
:1006600080839FBF81E090E0DF91CF911F910F9138
:10067000FF90EF900895F62E0B8D10E00F5F1F4F47
:100680000F731127E02E8C8D8E110CC00FB607FC56
:10069000FACFE889F989808185FFF5CFCE010E94E4
:1006A000F202F1CFEB8DEC0FFD2FF11DE35AFF4F5E
:1006B000F0829FB7F8940B8FEA89FB898081806272
:1006C000CFCF0F931F93CF93DF938C01D0E0C0E087
:1006D000F801EC0FFD1F6491662341F083EF91E078
:1006E0000E941403892B11F02196F2CFCE01DF91E5
:1006F000CF911F910F910895CF93DF93EC01888DD7
:100700008823B9F0AA89BB89E889F9898C9185FD8C
:1007100003C0808186FD0DC00FB607FCF7CF8C911A
:1007200085FFF2CF808185FFEDCFCE010E94F202DE
:10073000E9CFDF91CF91089520916C01260F3327E7
:10074000331F21323105ECF42091C901FC0190E006
:1007500080E0243069F082E00895A0916C0121913D
:10076000AC01445B5E4FA40FB52FB11D2C930196D5
:10077000861798F380916C01680F60936C0180E09C
:10078000089581E008951092C90181E08093C80125
:100790001092A30161E082E10E941F0261E083E107
:1007A0000E941F02E9EBF0E080818E7F80838081D0
:1007B0008D7F808388E48093B80085E48093BC00BB
:1007C0000895CF93DF9391E0909395018823B9F03A
:1007D000C091B800D091BA008091BC008A7B809310
:1007E000BC0060E082E10E941F0260E083E10E94A1
:1007F0001F020E94C303D093BA00C093B800DF91D8
:10080000CF9108958F929F92AF92BF92CF92DF9235
:10081000EF92FF920F931F93CF93DF93D091F2014A
:10082000D13208F0D7C0182FC091F1010E944D02BB
:100830006B017C018091C90181116BC082E08093C2
:10084000C9011093C8018FEF8093C7011092C601B0
:10085000D093C501A1EDB1E0E5EAF1E080E0D81365
:1008600091C01092A4018091A401CC0FC82BC09319
:10087000A4018091A301813009F088C01092A301E6
:100880000E944D026B017C018091A4018093BB000A
:100890008091CB019091CC01A091CD01B091CE017E
:1008A000892B8A2B8B2BA1F00E944D020091CB014A
:1008B0001091CC012091CD013091CE016C197D09B0
:1008C0008E099F09061717072807390708F442C041
:1008D0008091BC0083FDD8CF85EC8093BC000E9442
:1008E0004D026B017C018091C901823009F450C036
:1008F0008091C7018F3F09F46FC08091C70180329A
:1009000009F46CC08091C701803309F469C084E0A8
:1009100026C08091CB019091CC01A091CD01B091E6
:10092000CE01892B8A2B8B2B09F484CF0E944D0298
:100930008090CB019090CC01A090CD01B090CE01E1
:100940006C197D098E099F0986169706A806B906B7
:1009500008F070CF8091CA010E94E10385E01092F7
:10096000D0011092F2011092CF01DF91CF911F912F
:100970000F91FF90EF90DF90CF90BF90AF909F903E
:100980008F9008959D9191938F5F69CF85EEA5CF4C
:100990008091CB019091CC01A091CD01B091CE017D
:1009A000892B8A2B8B2B09F49ECF0E944D0200913C
:1009B000CB011091CC012091CD013091CE016C1969
:1009C0007D098E099F09061717072807390708F0C0
:1009D0008ACFC0CF81E0C3CF80E0C1CF82E0BFCF5C
:1009E00083E0BDCF0895E091940180919301E817D1
:1009F00030F4F0E0E45DFE4F808190E008958FEFE9
:100A00009FEF089590919401809193012FEF3FEF14
:100A1000981748F4E92FF0E0E45DFE4F208130E0C4
:100A20009F5F90939401C9010895809193019091E3
:100A30009401891B990B0895CF92DF92EF92FF9258
:100A40000F931F93CF93DF937C01CB018A012091F9
:100A5000CF01222389F0EB016B01C40ED51ECC150A
:100A6000DD0569F06991D701ED91FC910190F0816C
:100A7000E02DC7010995F3CF642F0E949C03C801A4
:100A8000DF91CF911F910F91FF90EF90DF90CF906A
:100A90000895CF93DF931F92CDB7DEB7698320917E
:100AA000CF012223F9F02091F201203258F021E009
:100AB00030E0FC013383228390E080E00F90DF91EF
:100AC000CF9108958091D001E82FF0E0EF52FE4FD2
:100AD000998190838F5F8093D0018093F20181E0B0
:100AE00090E0ECCF61E0CE0101960E949C03F7CF2D
:100AF00090E080E00895CF93DF93D62F90919501F9
:100B000010929501C1E0C093CF0190E49093F10160
:100B10001092D0011092F201682F80E992E00E94B9
:100B200049056D2F80E992E00E94490581E00E940D
:100B30000204811106C0809195018C27DF91CF912D
:100B4000089580E0FBCF8F929F92AF92BF920F9358
:100B50001F93CF93DF93CDB7DEB7A1970FB6F8946D
:100B6000DEBF0FBECDBF19A2423008F44AE08E01AD
:100B70000F5D1F4F842E912CB12CA12CA501940147
:100B80000E94540BE62FB901CA01EA3044F5E05D3A
:100B9000D801EE938D01232B242B252B79F790E0A0
:100BA00080E0109769F0FD0101900020E9F731978E
:100BB000AF014A1B5B0BBD0183EF91E00E94740201
:100BC000A1960FB6F894DEBF0FBECDBFDF91CF91D7
:100BD0001F910F91BF90AF909F908F900895E95C07
:100BE000D7CF42E050E064E271E083EF91E00C94F3
:100BF0007402CF93DF930E946103EC010E94F10520
:100C00008C0F9D1FDF91CF91089585ED8093BC00DF
:100C10008091CB019091CC01A091CD01B091CE01FA
:100C20000796A11DB11D23E0B695A79597958795C9
:100C30002A95D1F72091BC0024FD03C01092C90170
:100C400008954091CB015091CC016091CD017091FC
:100C5000CE01452B462B472B69F30097A105B10523
:100C600041F02AE22A95F1F700C00197A109B109E4
:100C7000E1CF8091CA010C94E103CF93C82F80315A
:100C800028F460E383EF91E00E9414036C2F70E07E
:100C900090E080E040E1CF910C94A3058F929F9269
:100CA000AF92BF92CF92DF92EF92FF920F931F937A
:100CB000CF938B01909195011092950191E09093C3
:100CC000CF0190E49093F1011092D0011092F201C3
:100CD000682F80E992E00E94490580E00E940204AA
:100CE000C82F882369F080E0CF911F910F91FF906A
:100CF000EF90DF90CF90BF90AF909F908F9008952E
:100D0000809195018111EFCF0E944D026B017C0112
:100D10008091C901811162C081E08093C9018093F3
:100D2000C8019FEF9093C7011092C6011092C501B0
:100D30008093A4018091A40180688093A401809194
:100D4000A301813009F07EC01092A3010E944D02E0
:100D50006B017C018091A4018093BB008091CB0149
:100D60009091CC01A091CD01B091CE01892B8A2B1D
:100D70008B2BA1F00E944D028090CB019090CC0172
:100D8000A090CD01B090CE016C197D098E099F090C
:100D900086169706A806B90608F441C08091BC00E3
:100DA00083FDD8CF85EC8093BC000E944D026B017F
:100DB0007C018091C901813009F446C08091C6014F
:100DC000811164C08091C601A5EAB1E0ECE2F1E0D6
:100DD000C81749F19D919193CF5FFACF8091CB01D4
:100DE0009091CC01A091CD01B091CE01892B8A2B9D
:100DF0008B2B09F48DCF0E944D028090CB019090F7
:100E0000CC01A090CD01B090CE016C197D098E0966
:100E10009F0986169706A806B90608F079CF809133
:100E2000CA010E94E10310929401C0939301C13062
:100E300009F059CF80E992E00E940205F801808311
:100E400081E052CF85EEAFCF8091CB019091CC0164
:100E5000A091CD01B091CE01892B8A2B8B2B09F467
:100E6000A8CF0E944D028090CB019090CC01A09021
:100E7000CD01B090CE016C197D098E099F098616AF
:100E80009706A806B90608F094CFC9CF81E09CCF99
:100E90001F93CF93DF9300D01F92CDB7DEB7809121
:100EA000280190912901A0912A01B0912B0101966E
:100EB000A11DB11D8093280190932901A0932A01BF
:100EC000B0932B010E94F10589E892E00E94610332
:100ED000609128017091290180912A0190912B0144
:100EE0004AE00E94A3050E94F1058FE792E00E946C
:100EF000610382E10E94F601892B81F58CE692E084
:100F00000E94F90585E792E00E94610383E10E9457
:100F1000F601892B31F583E692E00E94F905809174
:100F200095011092950181E08093CF0180E4809338
:100F3000F1011092D0011092F20181E00E940204AE
:100F4000182F80919501882379F084E492E00E9423
:100F5000F90582E192E00E94F90521C080E792E064
:100F6000CFCF87E692E0D9CF112301F186ED91E052
:100F70000E946103612F70E090E080E04AE00E94EF
:100F8000A3050E94F1058EE991E0123021F384E877
:100F900091E0133001F382E691E01430E1F20F901A
:100FA0000F900F90DF91CF911F91089584E491E00D
:100FB0000E94F90560E08AEF0E947B05882301F119
:100FC00060E08BEF0E947B058823D1F060E08CEF1E
:100FD0000E947B058823A1F060E18DEF0E947B05D4
:100FE000882371F019821A821B82BE016F5F7F4FC6
:100FF00080E00E944E06811106C084ED90E0ABCFE8
:101000008AE091E0A8CFBE016E5F7F4F81E00E9431
:101010004E06882391F3BE016D5F7F4F8EEF0E94D5
:101020004E06882351F38BEC90E00E946103898186
:101030000E943D0680EC90E00E9461038A810E943C
:101040003D0682EB90E00E9461038B810E943D0689
:101050000E94F10588E990E00E94F90588E690E099
:101060007ACF1F920F920FB60F9211242F933F93B6
:101070008F939F93AF93BF9380919B0190919C011D
:10108000A0919D01B0919E0130919A0123E0230F20
:101090002D3758F50196A11DB11D20939A0180931B
:1010A0009B0190939C01A0939D01B0939E01809120
:1010B0009F019091A001A091A101B091A201019680
:1010C000A11DB11D80939F019093A001A093A10148
:1010D000B093A201BF91AF919F918F913F912F91BA
:1010E0000F900FBE0F901F90189526E8230F0296C1
:1010F000A11DB11DD2CF1F920F920FB60F921124D6
:101100002F933F934F935F936F937F938F939F930F
:10111000AF93BF93EF93FF9383EF91E00E94F202AE
:10112000FF91EF91BF91AF919F918F917F916F91BF
:101130005F914F913F912F910F900FBE0F901F9095
:1011400018951F920F920FB60F9211242F938F9321
:101150009F93EF93FF93E0910302F091040280814B
:10116000E0910902F0910A0282FD1BC090818091FA
:101170000C028F5F8F7320910D02821741F0E09176
:101180000C02F0E0ED50FE4F958F80930C02FF9122
:10119000EF919F918F912F910F900FBE0F901F9005
:1011A00018958081F4CF1F920F920FB60F921124E1
:1011B0002F933F934F935F936F937F938F939F935F
:1011C000AF93BF93EF93FF938091B900887F8036F0
:1011D00009F44AC0F0F5883209F4A7C018F5803147
:1011E00009F49BC0B8F4882309F4F9C0883009F4E5
:1011F00094C0FF91EF91BF91AF919F918F917F919B
:101200006F915F914F913F912F910F900FBE0F9073
:101210001F901895883109F488C0803251F7809367
:10122000C70114C0803409F49DC040F48033B9F381
:101230008833F9F68093C70185ECB0C0803509F496
:1012400085C0883509F496C0883499F60E94050651
:10125000D0CF883909F48CC038F5883729F050F49C
:10126000883611F0803729F683E08093C901109207
:101270008E0157C0883809F47BC0803919F0803856
:1012800009F0B7CF80918E01803208F071C0E091F3
:101290008E0181E08E0F80938E018091BB00F0E083
:1012A000E259FE4F80833DC0803B39F0E0F4803A44
:1012B00009F479C0883A09F09CCF84E08093C90191
:1012C00010926D0110926C01E0919101F0919201E8
:1012D000099580916C0181110FC081E080936C01B0
:1012E00010924C0109C0803C09F4A6CF883C09F457
:1012F000A3CF883B09F07DCFE0916D0181E08E0F97
:1013000080936D01F0E0E45BFE4F80818093BB0031
:1013100090916D0180916C0129C08091A40180930E
:10132000BB0085EC8093BC0064CF9091C601809196
:10133000C501981758F5E091C60181E08E0F8093A2
:10134000C601F0E0EB55FE4F8081E9CFE091C60188
:1013500081E08E0F8093C6018091BB00F0E0EB55D9
:10136000FE4F80839091C6018091C5019817C8F205
:1013700085E8D8CFE091C60181E08E0F8093C60149
:101380008091BB00F0E0EB55FE4F80838091C80157
:1013900081115CCF81E08093A30184EA8093BC003B
:1013A0001092C90126CF85EC8093BC001092C90130
:1013B00080918E01803230F4E0918E01F0E0E259AC
:1013C000FE4F108260918E0170E0E0918F01F091EC
:1013D00090018EE691E0099510928E010ACF10924D
:1013E000C70134CFE3EFF1E01382128288EE93E07D
:1013F000A0E0B0E084839583A683B78324E031E046
:101400003183208325EC30E03587248724EC30E0DD
:101410003787268720EC30E0318B208B21EC30E0C1
:10142000338B228B22EC30E0358B248B26EC30E0A2
:10143000378B268B118E128E138E148EE0E9F2E01C
:101440001382128284839583A683B78386E191E019
:10145000918380830895789484B5826084BD84B537
:10146000816084BD85B5826085BD85B5816085BD9F
:1014700080916E00816080936E0010928100809157
:1014800081008260809381008091810081608093DF
:101490008100809180008160809380008091B10004
:1014A00084608093B1008091B00081608093B0002F
:1014B00080917A00846080937A0080917A008260C3
:1014C00080937A0080917A00816080937A00809185
:1014D0007A00806880937A001092C100E091030244
:1014E000F091040282E08083E091FF01F09100021C
:1014F0001082E0910102F091020280E1808310925B
:101500000B02E0910702F091080286E08083E091EF
:101510000502F0910602808180618083E0910502DE
:10152000F0910602808188608083E0910502F0914D
:101530000602808180688083E0910502F0910602B6
:1015400080818F7D8083109294011092930110927C
:10155000D0011092F2010E94C30382E792E09093BF
:1015600092018093910183E792E0909390018093A0
:101570008F0188E48093B8001092950188EA91E683
:10158000A0E0B0E08093CB019093CC01A093CD017B
:10159000B093CE0181E08093CA010E944D024B01BD
:1015A0005C0188EEC82E83E0D82EE12CF12C0E943D
:1015B0004D02681979098A099B09683E73408105C3
:1015C0009105A8F321E0C21AD108E108F10888EEDC
:1015D000880E83E0981EA11CB11CC114D104E10443
:1015E000F10429F78BED92E00E94F90585EB92E07A
:1015F0000E94F9058FE892E00E94F9050E944807D1
:101600002FB7F89480919B0190919C01A0919D012E
:10161000B0919E012FBF8053984FAF4FBF4F809323
:10162000960190939701A0939801B0939901C0E01F
:10163000D0E02FB7F89480919B0190919C01A091EC
:101640009D01B0919E012FBF40919601509197014D
:101650006091980170919901841B950BA60BB70BB3
:10166000B7FD19C00E9448072FB7F89480919B01DD
:1016700090919C01A0919D01B0919E012FBF80533C
:10168000984FAF4FBF4F8093960190939701A093CF
:101690009801B0939901209761F20E94DE0288239D
:1016A00041F20E940000C5CFA1E21A2EAA1BBB1B6B
:1016B000FD010DC0AA1FBB1FEE1FFF1FA217B3071E
:1016C000E407F50720F0A21BB30BE40BF50B661F34
:1016D000771F881F991F1A9469F7609570958095F8
:1016E00090959B01AC01BD01CF010895EE0FFF1F46
:1016F0000590F491E02D0994F894FFCF00000000CC
:1017000014037402A1027C03D202B002C4020000DE
:10171000000049051C057805F20415050205F304CF
:041720000D0A0000AE
:107E0000112484B714BE81FFF0D085E080938100F7
:107E100082E08093C00088E18093C10086E0809377
:107E2000C20080E18093C4008EE0C9D0259A86E02C
:107E300020E33CEF91E0309385002093840096BBD3
:107E4000B09BFECF1D9AA8958150A9F7CC24DD24C4
:107E500088248394B5E0AB2EA1E19A2EF3E0BF2EE7
:107E6000A2D0813461F49FD0082FAFD0023811F036
:107E7000013811F484E001C083E08DD089C08234E0
:107E800011F484E103C0853419F485E0A6D080C0E4
:107E9000853579F488D0E82EFF2485D0082F10E0AE
:107EA000102F00270E291F29000F111F8ED06801E7
:107EB0006FC0863521F484E090D080E0DECF843638
:107EC00009F040C070D06FD0082F6DD080E0C81688
:107ED00080E7D80618F4F601B7BEE895C0E0D1E017
:107EE00062D089930C17E1F7F0E0CF16F0E7DF06D8
:107EF00018F0F601B7BEE89568D007B600FCFDCFD4
:107F0000A601A0E0B1E02C9130E011968C91119780
:107F100090E0982F8827822B932B1296FA010C0160
:107F200087BEE89511244E5F5F4FF1E0A038BF0790
:107F300051F7F601A7BEE89507B600FCFDCF97BE46
:107F4000E89526C08437B1F42ED02DD0F82E2BD052
:107F50003CD0F601EF2C8F010F5F1F4F84911BD097
:107F6000EA94F801C1F70894C11CD11CFA94CF0C13
:107F7000D11C0EC0853739F428D08EE10CD085E9AC
:107F80000AD08FE07ACF813511F488E018D01DD067
:107F900080E101D065CF982F8091C00085FFFCCF94
:107FA0009093C60008958091C00087FFFCCF809118
:107FB000C00084FD01C0A8958091C6000895E0E648
:107FC000F0E098E1908380830895EDDF803219F02E
:107FD00088E0F5DFFFCF84E1DECF1F93182FE3DFCA
:107FE0001150E9F7F2DF1F91089580E0E8DFEE27F6
:047FF000FF270994CA
:027FFE00040479
:00000001FF
