:100000000C9461010C9489010C9489010C94890170
:100010000C9489010C9489010C9489010C94890138
:100020000C9489010C9489010C9489010C94890128
:100030000C9489010C9489010C9489010C94890118
:100040000C9493060C9489010C9403070C94DD0620
:100050000C9489010C9489010C9489010C948901F8
:100060000C9435070C948901493243204641554C84
:10007000543A2063757420736572766F20706F77C1
:1000800065723B20636865636B20776972696E6790
:100090002E20526573657420746F207265747279B6
:1000A0002E003020696E207461626C65203D206EE8
:1000B0006F742073617665642E204C3D706879738F
:1000C0006963616C20646F776E2C20553D70687990
:1000D000736963616C2075702E00312C31302C00F7
:1000E000736572766F2C6368616E6E656C2C6C6FD5
:1000F0007765725F75732C6E65757472616C5F7570
:10010000732C75707065725F7573002075732E2087
:100110004E2F4C2F5520746F20736176652E004E44
:100120006F736520434831302070756C7365200013
:10013000313330302E2E31373030207573206973D3
:10014000206120746573742077696E646F772C204A
:100150004E4F542065737461626C697368656420E6
:1001600073616665206D656368616E6963616C20AB
:100170006C696D6974732E004D6F76653A20393065
:10018000207468656E203935206574632E205361B4
:1001900076653A204E206E65757472616C2C204C29
:1001A00020646F776E2C20552075702E205020749F
:1001B00061626C652E2058204F46462E0052454104
:1001C0004459206E6F73652043483130202D2061E3
:1001D0006C6C206F757470757473204F46462E20BA
:1001E0005365742053657269616C204D6F6E69743C
:1001F0006F7220746F204E65776C696E652E0050AB
:100200006F736974696F6E206D75737420626520F9
:10021000302E2E3138300055736520302E2E313877
:10022000302C204E2C204C2C20552C2050206F722E
:100230002058004D6F766520666972737420616E78
:1002400064207761697420756E74696C2073746FB3
:1002500070706564206265666F726520736176698F
:100260006E672E004F464600436F6D6D616E6420D1
:10027000746F6F206C6F6E6700000000002500280F
:10028000002B000404040404040404020202020219
:10029000020303030303030102040810204080014A
:1002A00002040810200102040810200000000800C9
:1002B000020100000304070000000000000000002D
:1002C000540811241FBECFEFD8E0DEBFCDBF11E030
:1002D000A0E0B1E0EAE6F7E102C005900D92A43398
:1002E000B107D9F722E0A4E3B1E001C01D92A43B1D
:1002F000B207E1F711E0C1E6D1E004C02197FE01A9
:100300000E949E0BC036D107C9F70E948D080C943D
:10031000B30B0C94000090E0FC01E555FD4F2491D7
:10032000FC01E956FD4F3491FC01ED57FD4FE4917E
:10033000EE23C9F0222339F0233001F1A8F4213053
:1003400019F1223029F1F0E0EE0FFF1FE758FD4FC1
:10035000A591B4918FB7F894EC91611126C03095B6
:100360003E233C938FBF08952730A9F02830C9F071
:10037000243049F7809180008F7D03C080918000F8
:100380008F7780938000DFCF84B58F7784BDDBCFFC
:1003900084B58F7DFBCF8091B0008F778093B000C4
:1003A000D2CF8091B0008F7DF9CF3E2BDACF3FB70F
:1003B000F8948091B7019091B801A091B901B091E2
:1003C000BA0126B5A89B05C02F3F19F00196A11DC3
:1003D000B11D3FBFBA2FA92F982F8827BC01CD018F
:1003E000620F711D811D911D42E0660F771F881FEE
:1003F000991F4A95D1F7089508950895AF92BF9235
:10040000CF92DF92EF92FF920F931F93CF93DF93E0
:100410006C017B018B01040F151FEB015E01AE180F
:10042000BF08C017D10759F06991D601ED91FC9131
:100430000190F081E02DC6010995892B79F7C5015E
:10044000DF91CF911F910F91FF90EF90DF90CF90B0
:10045000BF90AF900895FC01538D448D252F30E05F
:10046000842F90E0821B930B541710F0CF960895C1
:1004700001970895FC01918D828D981761F0A28DEE
:10048000AE0FBF2FB11D5D968C91928D9F5F9F73B4
:10049000928F90E008958FEF9FEF0895FC01918D6A
:1004A000828D981731F0828DE80FF11D858D90E0D7
:1004B00008958FEF9FEF0895FC01918D228D892F74
:1004C00090E0805C9F4F821B91098F73992708955C
:1004D0008BE092E00E945C0221E0892B09F420E08D
:1004E000822F089580E090E0892B29F00E94680215
:1004F00081110C9400000895FC01A48DA80FB92F60
:10050000B11DA35ABF4F2C91848D90E001968F733B
:100510009927848FA689B7892C93A089B1898C915A
:10052000837080648C93938D848D981306C00288A9
:10053000F389E02D80818F7D80830895EF92FF9273
:100540000F931F93CF93DF93EC0181E0888F9B8DF6
:100550008C8D98131AC0E889F989808185FF15C0B0
:100560009FB7F894EE89FF896083E889F9898081D3
:100570008370806480839FBF81E090E0DF91CF91A2
:100580001F910F91FF90EF900895F62E0B8D10E0C4
:100590000F5F1F4F0F731127E02E8C8D8E110CC033
:1005A0000FB607FCFACFE889F989808185FFF5CF7E
:1005B000CE010E947C02F1CFEB8DEC0FFD2FF11DDF
:1005C000E35AFF4FF0829FB7F8940B8FEA89FB89BB
:1005D00080818062CFCF0F931F93CF93DF938C01E5
:1005E000D0E0C0E0F801EC0FFD1F6491662341F0FC
:1005F0008BE092E00E949E02892B11F02196F2CFAF
:10060000CE01DF91CF911F910F910895CF93DF938A
:10061000EC01888D8823B9F0AA89BB89E889F9891A
:100620008C9185FD03C0808186FD0DC00FB607FC4F
:10063000F7CF8C9185FFF2CF808185FFEDCFCE0182
:100640000E947C02E9CFDF91CF910895209174013F
:10065000260F3327331F21323105ECF42091E101BD
:10066000FC0190E080E0243069F082E00895A091E0
:1006700074012191AC014C5A5E4FA40FB52FB11DEE
:100680002C930196861798F380917401680F6093FC
:10069000740180E0089581E008951092E10181E005
:1006A0008093E0011092BB0161E082E10E948B0126
:1006B00061E083E10E948B01E9EBF0E080818E7FB5
:1006C000808380818D7F808388E48093B80085E477
:1006D0008093BC000895CF93DF9391E090939D01A8
:1006E0008823B9F0C091B800D091BA008091BC00C5
:1006F0008A7B8093BC0060E082E10E948B0160E015
:1007000083E10E948B010E944D03D093BA00C093F5
:10071000B800DF91CF910895CF92DF92EF92FF92D0
:100720000F931F93CF93DF93D0910A0281E0D132D0
:1007300008F09CC0C09109020E94D7016B017C01A6
:100740008091E10181116CC082E08093E10181E040
:100750008093E0018FEF8093DF011092DE01D09350
:10076000DD01A9EEB1E0EDEBF1E080E0D8138DC042
:100770001092BC018091BC01CC0FC82BC093BC016E
:100780008091BB01813009F084C01092BB010E94AE
:10079000D7016B017C018091BC018093BB008091EB
:1007A000E3019091E401A091E501B091E601892B6C
:1007B0008A2B8B2BA1F00E94D7010091E3011091AD
:1007C000E4012091E5013091E6016C197D098E0963
:1007D0009F09061717072807390708F442C08091B8
:1007E000BC0083FDD8CF85EC8093BC000E94D7016C
:1007F0006B017C018091E101823009F44CC0809151
:10080000DF018F3F09F469C08091DF01803209F474
:1008100066C08091DF01803309F463C084E026C0A4
:100820008091E3019091E401A091E501B091E6018E
:10083000892B8A2B8B2B09F483CF0E94D70100913F
:10084000E3011091E4012091E5013091E6016C197A
:100850007D098E099F09061717072807390708F031
:100860006FCF8091E2010E946B0385E01092E80156
:1008700010920A021092E701DF91CF911F910F9120
:10088000FF90EF90DF90CF9008959D9191938F5FAF
:100890006DCF85EEA9CF8091E3019091E401A09105
:1008A000E501B091E601892B8A2B8B2B09F4A2CFAD
:1008B0000E94D7010091E3011091E4012091E5012C
:1008C0003091E6016C197D098E099F0906171707FB
:1008D0002807390708F08ECFC4CF80E0C7CF82E069
:1008E000C5CF83E0C3CF0895E0919C0180919B0127
:1008F000E81730F4F0E0EC5CFE4F808190E0089562
:100900008FEF9FEF089590919C0180919B012FEFB5
:100910003FEF981748F4E92FF0E0EC5CFE4F2081A0
:1009200030E09F5F90939C01C901089580919B01E5
:1009300090919C01891B990B0895CF92DF92EF92C1
:10094000FF920F931F93CF93DF937C01CB018A011A
:100950002091E701222389F0EB016B01C40ED51E23
:10096000CC15DD0569F06991D701ED91FC910190FD
:10097000F081E02DC7010995F3CF642F0E94260373
:10098000C801DF91CF911F910F91FF90EF90DF9001
:10099000CF900895CF93DF931F92CDB7DEB76983D1
:1009A0002091E7012223F9F020910A02203258F029
:1009B00021E030E0FC013383228390E080E00F905F
:1009C000DF91CF9108958091E801E82FF0E0E751A1
:1009D000FE4F998190838F5F8093E80180930A0294
:1009E00081E090E0ECCF61E0CE0101960E94260309
:1009F000F7CF90E080E00895CF93DF93D62FC72FF5
:100A000091E09093E70190E4909309021092E8013D
:100A100010920A0294E0899FB00111246A5F7F4F0F
:100A200088EA92E00E94CA0460E088EA92E00E94AC
:100A3000CA0460E088EA92E00E94CA046D2F88EA46
:100A400092E00E94CA046C2F88EA92E00E94CA04D5
:100A50000E948C0391E0811190E0892FDF91CF916A
:100A60000895CF93DF931092A20180910A01909193
:100A70000B019093090180930801C0E0D1E060E090
:100A800070E18C2F0E94FC04811101C0D0E0CF5F87
:100A9000C031A9F78D2FDF91CF910895CF93C62F45
:100AA00091E09093E70190E4909309021092E8019D
:100AB00010920A02682F88EA92E00E94CA046C2F02
:100AC00088EA92E00E94CA040E948C0391E081119E
:100AD00090E0892FCF9108958F929F92AF92BF920D
:100AE0000F931F93CF93DF93CDB7DEB7A1970FB6C8
:100AF000F894DEBF0FBECDBF19A2423008F44AE021
:100B00008E010F5D1F4F842E912CB12CA12CA501BD
:100B100094010E94560BE62FB901CA01EA3044F550
:100B2000E05DD801EE938D01232B242B252B79F743
:100B300090E080E0109769F0FD0101900020E9F756
:100B40003197AF014A1B5B0BBD018BE092E00E9425
:100B5000FE01A1960FB6F894DEBF0FBECDBFDF91A8
:100B6000CF911F910F91BF90AF909F908F9008955C
:100B7000E95CD7CF42E050E060E371E08BE092E0C7
:100B80000C94FE01CF93DF930E94EB02EC010E94D4
:100B9000BA058C0F9D1FDF91CF9108951092A3018C
:100BA0000E94310588E690E00C94C205CF936091D5
:100BB0000A0170910B01072E000C880B990B2CE099
:100BC000660F771F881F991F2A95D1F7605F784DB0
:100BD0008F4F9F4F20E23EE440E050E00E94780BB0
:100BE000B9018AE00E94FC04C82F811102C00E9452
:100BF000CE058C2FCF91089585ED8093BC00809118
:100C0000E3019091E401A091E501B091E60107961E
:100C1000A11DB11D23E0B695A795979587952A95B7
:100C2000D1F72091BC0024FD03C01092E10108958A
:100C30004091E3015091E4016091E5017091E6017A
:100C4000452B462B472B69F30097A105B10541F0D1
:100C50002AE22A95F1F700C00197A109B109E1CF75
:100C60008091E2010C946B03CF92DF92EF92FF929E
:100C70008FE191E00E94EB02C0900A01D0900B013D
:100C80000D2C000CEE08FF084AE0C701B601F7FE84
:100C90000DC06DE28BE092E00E949E0266277727EE
:100CA000CB016C197D098E099F094AE00E946C05F1
:100CB0008BE091E0FF90EF90DF90CF900C94C20515
:100CC000CF93DF9380EE90E00E94C2058AED90E022
:100CD0000E94EB02C0E0D1E06A817B8190E080E07D
:100CE0004AE00E946C056CE28BE092E00E949E025A
:100CF0006C817D8190E080E04AE00E946C056CE2AE
:100D00008BE092E00E949E026E817F8190E080E005
:100D10004AE00E946C050E94BA0582EA90E0DF91E9
:100D2000CF910C94C2051F920F920FB60F9211240F
:100D30002F933F938F939F93AF93BF938091B30172
:100D40009091B401A091B501B091B6013091B2017A
:100D500023E0230F2D3758F50196A11DB11D2093D7
:100D6000B2018093B3019093B401A093B501B09305
:100D7000B6018091B7019091B801A091B901B091ED
:100D8000BA010196A11DB11D8093B7019093B801DE
:100D9000A093B901B093BA01BF91AF919F918F9188
:100DA0003F912F910F900FBE0F901F90189526E83E
:100DB000230F0296A11DB11DD2CF1F920F920FB625
:100DC0000F9211242F933F934F935F936F937F93D1
:100DD0008F939F93AF93BF93EF93FF938BE092E03A
:100DE0000E947C02FF91EF91BF91AF919F918F91F3
:100DF0007F916F915F914F913F912F910F900FBE17
:100E00000F901F9018951F920F920FB60F921124FA
:100E10002F938F939F93EF93FF93E0911B02F09199
:100E20001C028081E0912102F091220282FD1BC010
:100E30009081809124028F5F8F7320912502821709
:100E400041F0E0912402F0E0E55FFD4F958F809343
:100E50002402FF91EF919F918F912F910F900FBEE0
:100E60000F901F9018958081F4CF1F920F920FB6AC
:100E70000F9211242F933F934F935F936F937F9320
:100E80008F939F93AF93BF93EF93FF938091B9009C
:100E9000887F803609F44AC0F0F5883209F4A7C08B
:100EA00018F5803109F49BC0B8F4882309F4F9C01F
:100EB000883009F494C0FF91EF91BF91AF919F9159
:100EC0008F917F916F915F914F913F912F910F90F3
:100ED0000FBE0F901F901895883109F488C080329A
:100EE00051F78093DF0114C0803409F49DC040F4B1
:100EF0008033B9F38833F9F68093DF0185ECB0C015
:100F0000803509F485C0883509F496C0883499F68F
:100F10000E94FC05D0CF883909F48CC038F5883799
:100F200029F050F4883611F0803729F683E0809359
:100F3000E1011092960157C0883809F47BC08039CE
:100F400019F0803809F0B7CF80919601803208F00F
:100F500071C0E091960181E08E0F8093960180919F
:100F6000BB00F0E0EA58FE4F80833DC0803B39F083
:100F7000E0F4803A09F479C0883A09F09CCF84E023
:100F80008093E1011092750110927401E091990132
:100F9000F0919A0109958091740181110FC081E04F
:100FA000809374011092540109C0803C09F4A6CFCB
:100FB000883C09F4A3CF883B09F07DCFE09175010F
:100FC00081E08E0F80937501F0E0EC5AFE4F808136
:100FD0008093BB00909175018091740129C080912C
:100FE000BC018093BB0085EC8093BC0064CF9091E2
:100FF000DE018091DD01981758F5E091DE0181E076
:101000008E0F8093DE01F0E0E354FE4F8081E9CF44
:10101000E091DE0181E08E0F8093DE018091BB00C4
:10102000F0E0E354FE4F80839091DE018091DD017A
:101030009817C8F285E8D8CFE091DE0181E08E0FE5
:101040008093DE018091BB00F0E0E354FE4F80838B
:101050008091E00181115CCF81E08093BB0184EA43
:101060008093BC001092E10126CF85EC8093BC00F8
:101070001092E10180919601803230F4E091960166
:10108000F0E0EA58FE4F10826091960170E0E09126
:101090009701F091980186E791E0099510929601E9
:1010A0000ACF1092DF0134CFEBE0F2E0138212821C
:1010B00088EE93E0A0E0B0E084839583A683B783B5
:1010C00020E131E03183208325EC30E0358724872F
:1010D00024EC30E03787268720EC30E0318B208B02
:1010E00021EC30E0338B228B22EC30E0358B248BEB
:1010F00026EC30E0378B268B118E128E138E148ED9
:10110000E8EAF2E01382128284839583A683B78390
:1011100082E291E0918380830895CF93DF93CDB7EE
:10112000DEB728970FB6F894DEBF0FBECDBF789418
:1011300084B5826084BD84B5816084BD85B58260DC
:1011400085BD85B5816085BD80916E00816080938D
:101150006E001092810080918100826080938100F6
:101160008091810081608093810080918000816006
:10117000809380008091B10084608093B100809161
:10118000B00081608093B00080917A008460809389
:101190007A0080917A00826080937A0080917A0050
:1011A000816080937A0080917A00806880937A00D1
:1011B0001092C100E0911B02F0911C0282E080833A
:1011C000E0911702F09118021082E0911902F0915B
:1011D0001A0280E1808310922302E0911F02F091B5
:1011E000200286E08083E0911D02F0911E02808142
:1011F00080618083E0911D02F0911E0280818860F1
:101200008083E0911D02F0911E02808180688083BE
:10121000E0911D02F0911E0280818F7D80831092EB
:101220009C0110929B011092E80110920A020E9408
:101230004D038CEF91E090939A01809399018DEF8B
:1012400091E0909398018093970188E48093B8008F
:1012500010929D0188EA91E6A0E0B0E08093E3015E
:101260009093E401A093E501B093E60181E08093BF
:10127000E2010E943105811129C00E94CE059AE049
:10128000E92E24EB422E512C612C712C30E0A32E40
:1012900030E0B32EFF24F3948BE092E00E945C02D6
:1012A000892B09F470C18BE092E00E943A02909180
:1012B000B0018A3019F08D3009F053C1992309F437
:1012C00096C088E692E00E94C205A6C060E180E078
:1012D0000E944E05882389F269E78EEF0E944E0531
:1012E000882359F260E280E00E944E05882329F2AB
:1012F0000E94D7012B013C0145E0C42ED12CE12CEA
:10130000F12C0E94D7016419750986099709683E76
:10131000734081059105A8F321E0C21AD108E108C4
:10132000F10848EE440E43E0541E611C711CC114C8
:10133000D104E104F10429F760EA80E00E944E053F
:10134000882309F49ACF0E943105882309F495CFA8
:10135000CE0101966C0100EC10E07C01C8010E94F6
:10136000400BF60181936F010F5F1F4F083C110581
:10137000A9F729813A8180910001909101012817F4
:10138000390719F58B819C81009729F0845195408C
:1013900081399140D0F48D819E81009729F084514C
:1013A00095408139914088F48F819885009729F084
:1013B000845195408139914040F488E0F701A0E0E4
:1013C000B1E001900D928A95E1F781E08093A3014D
:1013D0008DEB91E00E94C20588E791E00E94C20572
:1013E00080E391E00E94C2050E94600648CF909180
:1013F000B101992389F0913011F58091A4012FE971
:10140000280F2A3108F48052883571F40E94310582
:10141000811107C00E94CE051092B1011092B00157
:101420003BCF84E692E04FCF803519F40E946006EE
:10143000F3CF282F2D7F2C3481F0853571F0E4EA2D
:10144000F1E0B0E0A0E080E0419120ED240F2A30EF
:1014500008F445C087E192E036CF9091A30199232B
:1014600079F09091A201992359F020910A013091CD
:101470000B0140910801509109012417350719F01B
:1014800083E392E020CF8E34E1F430930501209382
:10149000040180E0C82E81E0D82E00EC10E0F601B7
:1014A00091906F01C8010E94400B981621F0692DA0
:1014B000C8010E94480B0F5F1F4F083C110579F7C8
:1014C000B5CF8C3429F43093030120930201E1CF8E
:1014D0008535F9F63093070120930601DACFEA9EAD
:1014E0009001EB9E300D1124D901A40FB11D47FDD1
:1014F000BA95D097A53BB1051CF08FEF91E0E3CEF4
:101500008F5F9813A1CF8091A301882309F484CF22
:1015100020E931E00E94970BA30192010E94780B11
:101520002C5E3A4F30930901209308018091A2016B
:1015300081110EC030930B0120930A010E94D60541
:10154000882309F469CFF092A2010E94340664CF87
:1015500080910A0190910B012817390709F05CCF9F
:10156000F4CF911199CEE091B101EC3048F491E0C3
:101570009E0F9093B101F0E0EC55FE4F80838CCE2E
:10158000F092B00189CE8091A301882309F46CC048
:101590008091A201882309F467C020910A0130914B
:1015A0000B0180910801909109012817390709F46E
:1015B0005BC02FB7F8948091B3019091B401A091D2
:1015C000B501B091B6012FBF40919E0150919F018E
:1015D0006091A0017091A101841B950BA60BB70B24
:1015E0004497A105B10508F43FC02FB7F894809146
:1015F000B3019091B401A091B501B091B6012FBF94
:1016000080939E0190939F01A093A001B093A101AC
:1016100020910A0130910B018091080190910901FC
:10162000821B930B8530910514F084E090E08C3F91
:10163000FFEF9F0714F48CEF9FEF820F931F90939F
:101640000B0180930A010E94D605882369F020913E
:101650000A0130910B01809108019091090128172E
:10166000390711F40E943406A114B10409F414CE10
:101670000E946802882309F40FCE0E9400000CCE5D
:10168000F999FECF92BD81BDF89A992780B508954A
:10169000262FF999FECF1FBA92BD81BD20BD0FB68E
:1016A000F894FA9AF99A0FBE01960895A1E21A2EBB
:1016B000AA1BBB1BFD010DC0AA1FBB1FEE1FFF1FF6
:1016C000A217B307E407F50720F0A21BB30BE40B46
:1016D000F50B661F771F881F991F1A9469F760958D
:1016E0007095809590959B01AC01BD01CF01089547
:1016F000052E97FB1EF400940E948F0B57FD07D018
:101700000E94560B07FC03D04EF40C948F0B50959F
:101710004095309521953F4F4F4F5F4F08959095DD
:101720008095709561957F4F8F4F9F4F08950E94D0
:10173000A40BB7FF0895821B930B0895EE0FFF1FB4
:101740000590F491E02D0994A29FB001B39FC001D0
:10175000A39F700D811D1124911DB29F700D811DDD
:0A1760001124911D0895F894FFCFA5
:10176A00314E000000000000DC05DC05000000002E
:10177A009E02FE012B0206035C023A024E020000A0
:10178A000000CA049D04F9047304960483047404D3
:04179A000D0A000034
:00000001FF
