:020000040000FA
:100000000C94E6000C940E010C940E010C940E015D
:100010000C940E010C940E010C940E010C940E0124
:100020000C940E010C940E010C940E010C940E0114
:100030000C940E010C940E010C940E010C940E0104
:100040000C948C050C940E010C94FC050C94D605B4
:100050000C940E010C940E010C940E010C940E01E4
:100060000C942E060C940E015363616E20636F6D29
:10007000706C6574652E205245534554207265702E
:10008000656174732074686520746573742E004D07
:100090004F4445313A203078005043412030783485
:1000A000302072656769737465722D73656C656362
:1000B00074207374617475733A20004E6F20493256
:1000C0004320646576696365732064657465637451
:1000D00065642E00206572726F7220004164647244
:1000E00065737320307800446574656374656420BB
:1000F0006164647265737320307800427573207494
:10010000696D656F75743A20636865636B2053444D
:10011000412F53434C20776972696E67206F7220BC
:10012000737475636B206465766963652E00534351
:100130004C206C6576656C3A2000534441206C6518
:1001400076656C3A200049324320646961676E6FBE
:10015000737469633A2065787465726E616C20739C
:100160006572766F20706F776572206D757374207D
:1001700073746179204F4646000000000025002876
:10018000002B0000000000230026002900040404C6
:100190000404040404020202020202030303030330
:1001A000030102040810204080010204081020010D
:1001B00002040810200000000800020100000304EF
:1001C000070000000000000000004D0711241FBEC2
:1001D000CFEFD8E0DEBFCDBF11E0A0E0B1E0E8EBAB
:1001E000F3E102C005900D92A832B107D9F722E0E1
:1001F000A8E2B1E001C01D92A439B207E1F710E016
:10020000C6EED0E004C02197FE010E94D409C53E8D
:10021000D107C9F70E9486070C94DA090C940000F4
:10022000833081F028F4813099F08230A9F008956C
:100230008730A9F08830C9F08430B1F48091800013
:100240008F7D03C0809180008F7780938000089518
:1002500084B58F7784BD089584B58F7DFBCF809161
:10026000B0008F778093B00008958091B0008F7DAB
:10027000F9CFCF93DF93282F30E0F901EB54FE4FF5
:100280008491F901EF55FE4FD491F901E357FE4FE8
:10029000C491CC23A1F081110E941001EC2FF0E059
:1002A000EE0FFF1FED57FE4FA591B491EC91ED239A
:1002B00081E090E009F480E0DF91CF91089580E043
:1002C00090E0FACF1F93CF93DF93282F30E0F9010E
:1002D000EB54FE4F8491F901EF55FE4FD491F90193
:1002E000E357FE4FC491CC23A9F0162F81110E9431
:1002F0001001EC2FF0E0EE0FFF1FE758FE4FA59125
:10030000B4918FB7F894EC91111108C0D095DE2309
:10031000DC938FBFDF91CF911F910895DE2BF8CF33
:100320003FB7F8948091970190919801A09199011D
:10033000B0919A0126B5A89B05C02F3F19F00196F0
:10034000A11DB11D3FBFBA2FA92F982F8827BC012F
:10035000CD01620F711D811D911D42E0660F771F57
:10036000881F991F4A95D1F7089508950895AF926F
:10037000BF92CF92DF92EF92FF920F931F93CF9392
:10038000DF936C017B018B01040F151FEB015E01F4
:10039000AE18BF08C017D10759F06991D601ED9189
:1003A000FC910190F081E02DC6010995892B79F728
:1003B000C501DF91CF911F910F91FF90EF90DF90DA
:1003C000CF90BF90AF900895FC01538D448D252FA1
:1003D00030E0842F90E0821B930B541710F0CF96DF
:1003E000089501970895FC01918D828D981761F011
:1003F000A28DAE0FBF2FB11D5D968C91928D9F5F28
:100400009F73928F90E008958FEF9FEF0895FC0106
:10041000918D828D981731F0828DE80FF11D858DB9
:1004200090E008958FEF9FEF0895FC01918D228D4C
:10043000892F90E0805C9F4F821B91098F739927D1
:1004400008958BEE91E00E94150221E0892B09F4BA
:1004500020E0822F089580E090E0892B29F00E940F
:10046000210281110C9400000895FC01A48DA80FB5
:10047000B92FB11DA35ABF4F2C91848D90E00196E6
:100480008F739927848FA689B7892C93A089B18906
:100490008C91837080648C93938D848D981306C0A7
:1004A0000288F389E02D80818F7D80830895EF920B
:1004B000FF920F931F93CF93DF93EC0181E0888F1E
:1004C0009B8D8C8D98131AC0E889F989808185FFEE
:1004D00015C09FB7F894EE89FF896083E889F98990
:1004E00080818370806480839FBF81E090E0DF9192
:1004F000CF911F910F91FF90EF900895F62E0B8DE5
:1005000010E00F5F1F4F0F731127E02E8C8D8E119F
:100510000CC00FB607FCFACFE889F989808185FF06
:10052000F5CFCE010E943502F1CFEB8DEC0FFD2F00
:10053000F11DE35AFF4FF0829FB7F8940B8FEA89C1
:10054000FB8980818062CFCF0F931F93CF93DF937E
:100550008C01D0E0C0E0F801EC0FFD1F6491662330
:1005600041F08BEE91E00E945702892B11F0219609
:10057000F2CFCE01DF91CF911F910F910895CF93CC
:10058000DF93EC01888D8823B9F0AA89BB89E889BB
:10059000F9898C9185FD03C0808186FD0DC00FB661
:1005A00007FCF7CF8C9185FFF2CF808185FFEDCFDF
:1005B000CE010E943502E9CFDF91CF9108952091BD
:1005C0004801260F3327331F21323105ECF42091E7
:1005D000C101FC0190E080E0243069F082E00895E0
:1005E000A09148012191AC01485D5E4FA40FB52F49
:1005F000B11D2C930196861798F380914801680FDE
:100600006093480180E0089581E008951092C1014F
:1006100081E08093C00110929B0161E082E10E9421
:10062000620161E083E10E946201E9EBF0E0808118
:100630008E7F808380818D7F808388E48093B80063
:1006400085E48093BC000895CF93DF9391E090936D
:100650006F018823B9F0C091B800D091BA008091A1
:10066000BC008A7B8093BC0060E082E10E94620152
:1006700060E083E10E9462010E940603D093BA0009
:10068000C093B800DF91CF9108958F929F92AF925F
:10069000BF92CF92DF92EF92FF920F931F93CF936F
:1006A000DF93D091EA01D13208F0D7C0182FC09162
:1006B000E9010E9490016B017C018091C1018111CF
:1006C0006BC082E08093C1011093C0018FEF8093D3
:1006D000BF011092BE01D093BD01A9ECB1E0EDE9DC
:1006E000F1E080E0D81391C010929C0180919C01B0
:1006F000CC0FC82BC0939C0180919B01813009F0E5
:1007000088C010929B010E9490016B017C01809136
:100710009C018093BB008091C3019091C401A09182
:10072000C501B091C601892B8A2B8B2BA1F00E94A9
:1007300090010091C3011091C4012091C501309135
:10074000C6016C197D098E099F090617170728072E
:10075000390708F442C08091BC0083FDD8CF85ECF6
:100760008093BC000E9490016B017C018091C101CB
:10077000823009F450C08091BF018F3F09F46FC0EF
:100780008091BF01803209F46CC08091BF01803339
:1007900009F469C084E026C08091C3019091C4012E
:1007A000A091C501B091C601892B8A2B8B2B09F42E
:1007B00084CF0E9490018090C3019090C401A090CA
:1007C000C501B090C6016C197D098E099F09861676
:1007D0009706A806B90608F070CF8091C2010E9462
:1007E000240385E01092C8011092EA011092C7011B
:1007F000DF91CF911F910F91FF90EF90DF90CF90FD
:10080000BF90AF909F908F9008959D9191938F5F2F
:1008100069CF85EEA5CF8091C3019091C401A091CD
:10082000C501B091C601892B8A2B8B2B09F49ECF71
:100830000E9490010091C3011091C4012091C50153
:100840003091C6016C197D098E099F09061717079B
:100850002807390708F08ACFC0CF81E0C3CF80E0F6
:10086000C1CF82E0BFCF83E0BDCF0895E091710199
:1008700080917001E81730F4F0E0EE58FE4F80816F
:1008800090E008958FEF9FEF08959091710180910E
:1008900070012FEF3FEF981748F4E92FF0E0EE5882
:1008A000FE4F208130E09F5F90937101C901089550
:1008B0008091700190917101891B990B0895CF92DD
:1008C000DF92EF92FF920F931F93CF93DF937C0100
:1008D000CB018A012091C701222389F0EB016B0132
:1008E000C40ED51ECC15DD0569F06991D701ED91D7
:1008F000FC910190F081E02DC7010995F3CF642FA1
:100900000E94DF02C801DF91CF911F910F91FF90EC
:10091000EF90DF90CF900895CF93DF931F92CDB7E4
:10092000DEB769832091C7012223F9F02091EA0103
:10093000203258F021E030E0FC013383228390E044
:1009400080E00F90DF91CF9108958091C801E82F4A
:10095000F0E0E753FE4F998190838F5F8093C80149
:100960008093EA0181E090E0ECCF61E0CE01019656
:100970000E94DF02F7CF90E080E008958F929F926F
:10098000AF92BF920F931F93CF93DF93CDB7DEB794
:10099000A1970FB6F894DEBF0FBECDBF19A24230AB
:1009A00008F44AE08E010F5D1F4F842E912CB12C6C
:1009B000A12CA50194010E94B209E62FB901CA0138
:1009C000EA3044F5E05DD801EE938D01232B242B12
:1009D000252B79F790E080E0109769F0FD010190F8
:1009E0000020E9F73197AF014A1B5B0BBD018BEE8D
:1009F00091E00E94B701A1960FB6F894DEBF0FBE3A
:100A0000CDBFDF91CF911F910F91BF90AF909F907D
:100A10008F900895E95CD7CF42E050E064E271E046
:100A20008BEE91E00C94B701CF93DF930E94A40268
:100A3000EC010E940C058C0F9D1FDF91CF91089552
:100A4000CF92DF92EF92FF92CF93DF936C01990FD9
:100A5000EE08FF086A30710501F54AE0F7FE1EC096
:100A60006DE28BEE91E00E945702EC01662777273A
:100A7000CB016C197D098E099F094AE00E94BE04D2
:100A8000C80FD91F0E940C058C0F9D1FDF91CF91BD
:100A9000FF90EF90DF90CF900895462FC701B601E9
:100AA0000E94BE04EC01EECF85ED8093BC008091E6
:100AB000C3019091C401A091C501B091C6010796F0
:100AC000A11DB11D23E0B695A795979587952A9509
:100AD000D1F72091BC0024FD03C01092C1010895FC
:100AE0004091C3015091C4016091C5017091C6014C
:100AF000452B462B472B69F30097A105B10541F023
:100B00002AE22A95F1F700C00197A109B109E1CFC6
:100B10008091C2010C9424031F920F920FB60F9282
:100B200011242F933F938F939F93AF93BF93809103
:100B3000930190919401A0919501B091960130910B
:100B4000920123E0230F2D3758F50196A11DB11D09
:100B5000209392018093930190939401A093950127
:100B6000B09396018091970190919801A09199017D
:100B7000B0919A010196A11DB11D809397019093A8
:100B80009801A0939901B0939A01BF91AF919F9161
:100B90008F913F912F910F900FBE0F901F9018953E
:100BA00026E8230F0296A11DB11DD2CF1F920F92EE
:100BB0000FB60F9211242F933F934F935F936F9330
:100BC0007F938F939F93AF93BF93EF93FF938BEE9E
:100BD00091E00E943502FF91EF91BF91AF919F91FB
:100BE0008F917F916F915F914F913F912F910F90D6
:100BF0000FBE0F901F9018951F920F920FB60F9275
:100C000011242F938F939F93EF93FF93E091FB0118
:100C1000F091FC018081E0910102F091020282FDDD
:100C20001BC09081809104028F5F8F732091050219
:100C3000821741F0E0910402F0E0E551FE4F958FFC
:100C400080930402FF91EF919F918F912F910F90CC
:100C50000FBE0F901F9018958081F4CF1F920F92B6
:100C60000FB60F9211242F933F934F935F936F937F
:100C70007F938F939F93AF93BF93EF93FF93809155
:100C8000B900887F803609F44AC0F0F5883209F44B
:100C9000A7C018F5803109F49BC0B8F4882309F483
:100CA000F9C0883009F494C0FF91EF91BF91AF91E2
:100CB0009F918F917F916F915F914F913F912F9174
:100CC0000F900FBE0F901F901895883109F488C0BF
:100CD000803251F78093BF0114C0803409F49DC065
:100CE00040F48033B9F38833F9F68093BF0185EC83
:100CF000B0C0803509F485C0883509F496C08834C1
:100D000099F60E945405D0CF883909F48CC038F583
:100D1000883729F050F4883611F0803729F683E0BF
:100D20008093C10110926A0157C0883809F47BC0D2
:100D3000803919F0803809F0B7CF80916A0180328C
:100D400008F071C0E0916A0181E08E0F80936A0122
:100D50008091BB00F0E0E65BFE4F80833DC0803BAE
:100D600039F0E0F4803A09F479C0883A09F09CCF70
:100D700084E08093C1011092490110924801E091F2
:100D80006D01F0916E0109958091480181110FC0AC
:100D900081E0809348011092280109C0803C09F449
:100DA000A6CF883C09F4A3CF883B09F07DCFE09122
:100DB000490181E08E0F80934901F0E0E85DFE4F2C
:100DC00080818093BB00909149018091480129C0A6
:100DD00080919C018093BB0085EC8093BC0064CF24
:100DE0009091BE018091BD01981758F5E091BE0128
:100DF00081E08E0F8093BE01F0E0E356FE4F8081CC
:100E0000E9CFE091BE0181E08E0F8093BE01809119
:100E1000BB00F0E0E356FE4F80839091BE018091CD
:100E2000BD019817C8F285E8D8CFE091BE0181E0F6
:100E30008E0F8093BE018091BB00F0E0E356FE4F21
:100E400080838091C00181115CCF81E080939B0100
:100E500084EA8093BC001092C10126CF85EC809378
:100E6000BC001092C10180916A01803230F4E0919F
:100E70006A01F0E0E65BFE4F108260916A0170E06B
:100E8000E0916B01F0916C018AE491E00995109278
:100E90006A010ACF1092BF0134CFEBEEF1E013826A
:100EA000128288EE93E0A0E0B0E084839583A6836D
:100EB000B78324E031E03183208325EC30E03587AF
:100EC000248724EC30E03787268720EC30E0318B14
:100ED000208B21EC30E0338B228B22EC30E0358B01
:100EE000248B26EC30E0378B268B118E128E138EDE
:100EF000148EE8E8F2E01382128284839583A6833D
:100F0000B78386E191E0918380830895789484B5D6
:100F1000826084BD84B5816084BD85B5826085BDF5
:100F200085B5816085BD80916E00816080936E0083
:100F30001092810080918100826080938100809175
:100F40008100816080938100809180008160809326
:100F500080008091B10084608093B1008091B000E6
:100F600081608093B00080917A00846080937A00E1
:100F700080917A00826080937A0080917A0081600B
:100F800080937A0080917A00806880937A00109232
:100F9000C100E091FB01F091FC0182E08083E091CF
:100FA000F701F091F8011082E091F901F091FA0156
:100FB00080E1808310920302E091FF01F091000232
:100FC00086E08083E091FD01F091FE0180818061E7
:100FD0008083E091FD01F091FE0180818860808333
:100FE000E091FD01F091FE01808180688083E091B5
:100FF000FD01F091FE0180818F7D8083109271014F
:10100000109270011092C8011092EA010E9406032A
:1010100085EB91E090936E0180936D0186EB91E0FA
:1010200090936C0180936B0188E48093B8001092D8
:101030006F0188EA91E6A0E0B0E08093C30190934D
:10104000C401A093C501B093C60181E08093C201A1
:101050000E9490014B015C0198EEC92E93E0D92EBD
:10106000E12CF12C0E949001681979098A099B09E9
:10107000683E734081059105A8F321E0C21AD108AA
:10108000E108F10888EE880E83E0981EA11CB11CCF
:10109000C114D104E104F10429F786E491E00E942F
:1010A00014058AE391E00E94A40282E10E943901C2
:1010B0006AE070E00E9420058EE291E00E94A402A6
:1010C00083E10E9439016AE070E00E942005C12C92
:1010D000D12C7601C394D0E011E080916F01109281
:1010E0006F011093C701C092E9011092C8011092DC
:1010F000EA0181E00E944503C82F80916F01882397
:1011000079F08BEF90E00E941405C0E0D0E02097CA
:10111000F1F30E9421028823D1F30E940000F7CF4F
:10112000C111AAC0DF5F87EE90E00E94A40240E1F7
:10113000C701B6010E94BE040E940C058FEFC81AB9
:10114000D80AE80AF80A2FE7C216D104E104F1042C
:1011500021F6D11104C08BEB90E00E94140581E0D0
:101160008093C70180E48093E9011092C801109236
:10117000EA0160E088E892E00E948C0480E00E942E
:101180004503C82F89E990E00E94A4026C2F70E00B
:1011900090E080E04AE00E94BE040E940C05C1116C
:1011A000B8C00E9490016B017C018091C101811146
:1011B00079C081E08093C1018093C0019FEF90933B
:1011C000BF011092BE011092BD0180939C018091DD
:1011D0009C01806880939C0180919B01813009F083
:1011E0009BC010929B010E9490016B017C01809139
:1011F0009C018093BB008091C3019091C401A09198
:10120000C501B091C601892B8A2B8B2BA1F00E94BE
:1012100090018090C3019090C401A090C501B0904E
:10122000C6016C197D098E099F0986169706A806C6
:10123000B90608F458C08091BC0083FDD8CF85EC76
:101240008093BC000E9490016B017C018091C101E0
:10125000813009F463C08091BE01811181C0809109
:10126000BE01EDE9F1E0A2E7B1E0C81709F43FC023
:1012700091919D93CF5FF9CFC23009F45FCF8CED90
:1012800090E00E94A40240E1C701B6010E94BE04A2
:1012900084ED90E00E94A4026C2F70E090E080E06A
:1012A0004AE048CF8091C3019091C401A091C5014B
:1012B000B091C601892B8A2B8B2B09F476CF0E9423
:1012C00090018090C3019090C401A090C501B0909E
:1012D000C6016C197D098E099F0986169706A80616
:1012E000B90608F062CF8091C2010E9424031092D7
:1012F0007101C0937001C13061F48FE890E00E94E9
:10130000A40288E892E00E94450460E170E00E9437
:10131000200588E690E0F7CE85EE92CF8091C3015C
:101320009091C401A091C501B091C601892B8A2B6F
:101330008B2B09F48BCF0E9490018090C301909079
:10134000C401A090C501B090C6016C197D098E0939
:101350009F0986169706A806B90608F077CFC3CF6F
:1013600081E07FCFA1E21A2EAA1BBB1BFD010DC09D
:10137000AA1FBB1FEE1FFF1FA217B307E407F50745
:1013800020F0A21BB30BE40BF50B661F771F881F21
:10139000991F1A9469F760957095809590959B01B7
:1013A000AC01BD01CF010895EE0FFF1F0590F49130
:1013B000E02D0994F894FFCF000000005702B70118
:1013C000E401BF021502F3010702000000008C04D3
:1013D0005F04BB0435045804450436040D0A0000BC
:107E0000112484B714BE81FFF0D085E080938100F7
:107E100082E08093C00088E18093C10086E0809377
:107E2000C20080E18093C4008EE0C9D0259A86E02C
:107E300020E33CEF91E0309385002093840096BBD3
:107E4000B09BFECF1D9AA8958150A9F7CC24DD24C4
:107E500088248394B5E0AB2EA1E19A2EF3E0BF2EE7
:107E6000A2D0813461F49FD0082FAFD0023811F036
:107E7000013811F484E001C083E08DD089C08234E0
:107E800011F484E103C0853419F485E0A6D080C0E4
:107E9000853579F488D0E82EFF2485D0082F10E0AE
:107EA000102F00270E291F29000F111F8ED06801E7
:107EB0006FC0863521F484E090D080E0DECF843638
:107EC00009F040C070D06FD0082F6DD080E0C81688
:107ED00080E7D80618F4F601B7BEE895C0E0D1E017
:107EE00062D089930C17E1F7F0E0CF16F0E7DF06D8
:107EF00018F0F601B7BEE89568D007B600FCFDCFD4
:107F0000A601A0E0B1E02C9130E011968C91119780
:107F100090E0982F8827822B932B1296FA010C0160
:107F200087BEE89511244E5F5F4FF1E0A038BF0790
:107F300051F7F601A7BEE89507B600FCFDCF97BE46
:107F4000E89526C08437B1F42ED02DD0F82E2BD052
:107F50003CD0F601EF2C8F010F5F1F4F84911BD097
:107F6000EA94F801C1F70894C11CD11CFA94CF0C13
:107F7000D11C0EC0853739F428D08EE10CD085E9AC
:107F80000AD08FE07ACF813511F488E018D01DD067
:107F900080E101D065CF982F8091C00085FFFCCF94
:107FA0009093C60008958091C00087FFFCCF809118
:107FB000C00084FD01C0A8958091C6000895E0E648
:107FC000F0E098E1908380830895EDDF803219F02E
:107FD00088E0F5DFFFCF84E1DECF1F93182FE3DFCA
:107FE0001150E9F7F2DF1F91089580E0E8DFEE27F6
:047FF000FF270994CA
:027FFE00040479
:00000001FF
