:100000000C94C5000C94ED000C94ED000C94ED00E4
:100010000C94ED000C94ED000C94ED000C94ED00AC
:100020000C94ED000C94ED000C94ED000C94ED009C
:100030000C94ED000C94ED000C94ED000C94ED008C
:100040000C94A2050C94ED000C9412060C94EC0593
:100050000C94ED000C94ED000C94ED000C94ED006C
:100060000C9444060C94ED00493243204641554C13
:10007000543A2063757420736572766F20706F77C1
:10008000657220616E6420636865636B20776972B6
:10009000696E672E004D6F76653A20312039302029
:1000A0007C20536176653A2031204E2C2031204C43
:1000B0002C20312055207C205072696E743A2050DB
:1000C000207C204F66663A2030005245414459203A
:1000D0006579652063616C69627261746F72204337
:1000E00048302D333B206F757470757473204F4604
:1000F0004600207573002070756C736520002043E6
:1001000048006A6F696E742C6368616E6E656C2C52
:100110006C6F7765725F75732C6E65757472616C48
:100120005F75732C75707065725F757300536176BF
:10013000656420746F20454550524F4D2E004F4648
:10014000460000000000250028002B0004040404E1
:100150000404040402020202020203030303030371
:10016000010204081020408001020408102001024E
:10017000040810200000000800020100000304072A
:100180000000000000000000630711241FBECFEF35
:10019000D8E0DEBFCDBF11E0A0E0B1E0E0E1F6E1E4
:1001A00002C005900D92A23AB107D9F723E0A2EA66
:1001B000B1E001C01D92A332B207E1F710E0C5EC37
:1001C000D0E004C02197FE010E94F10AC43CD1078F
:1001D000C9F70E949C070C94060B0C94000090E059
:1001E000FC01EC58FE4F2491FC01E05AFE4F349183
:1001F000FC01E45BFE4FE491EE23C9F0222339F0C9
:10020000233001F1A8F4213019F1223029F1F0E076
:10021000EE0FFF1FEE5BFE4FA591B4918FB7F894E0
:10022000EC91611126C030953E233C938FBF089519
:100230002730A9F02830C9F0243049F78091800098
:100240008F7D03C0809180008F7780938000DFCF07
:1002500084B58F7784BDDBCF84B58F7DFBCF809154
:10026000B0008F778093B000D2CF8091B0008F7DA7
:10027000F9CF3E2BDACF3FB7F894809126029091C8
:100280002702A0912802B091290226B5A89B05C09B
:100290002F3F19F00196A11DB11D3FBFBA2FA92F05
:1002A000982F8827BC01CD01620F711D811D911D02
:1002B00042E0660F771F881F991F4A95D1F708956E
:1002C00008950895AF92BF92CF92DF92EF92FF927E
:1002D0000F931F93CF93DF936C017B018B01040F6E
:1002E000151FEB015E01AE18BF08C017D10759F00A
:1002F0006991D601ED91FC910190F081E02DC6014C
:100300000995892B79F7C501DF91CF911F910F9145
:10031000FF90EF90DF90CF90BF90AF900895FC01D9
:10032000538D448D252F30E0842F90E0821B930B5A
:10033000541710F0CF96089501970895FC01918D00
:10034000828D981761F0A28DAE0FBF2FB11D5D9603
:100350008C91928D9F5F9F73928F90E008958FEFA5
:100360009FEF0895FC01918D828D981731F0828D59
:10037000E80FF11D858D90E008958FEF9FEF0895B0
:10038000FC01918D228D892F90E0805C9F4F821B14
:1003900091098F73992708958AE792E00E94C0011E
:1003A00021E0892B09F420E0822F089580E090E07D
:1003B000892B29F00E94CC0181110C940000089532
:1003C000FC01A48DA80FB92FB11DA35ABF4F2C91CA
:1003D000848D90E001968F739927848FA689B789C1
:1003E0002C93A089B1898C91837080648C93938DB8
:1003F000848D981306C00288F389E02D80818F7D5B
:1004000080830895EF92FF920F931F93CF93DF9312
:10041000EC0181E0888F9B8D8C8D98131AC0E88940
:10042000F989808185FF15C09FB7F894EE89FF890F
:100430006083E889F98980818370806480839FBFAD
:1004400081E090E0DF91CF911F910F91FF90EF90AD
:100450000895F62E0B8D10E00F5F1F4F0F731127BD
:10046000E02E8C8D8E110CC00FB607FCFACFE889F8
:10047000F989808185FFF5CFCE010E94E001F1CF9F
:10048000EB8DEC0FFD2FF11DE35AFF4FF0829FB76C
:10049000F8940B8FEA89FB8980818062CFCF0F931C
:1004A0001F93CF93DF938C01D0E0C0E0F801EC0FF5
:1004B000FD1F6491662341F08AE792E00E940202E8
:1004C000892B11F02196F2CFCE01DF91CF911F91B0
:1004D0000F9108956CE28AE792E00C940202CF93A8
:1004E000DF93EC01888D8823B9F0AA89BB89E8895C
:1004F000F9898C9185FD03C0808186FD0DC00FB602
:1005000007FCF7CF8C9185FFF2CF808185FFEDCF7F
:10051000CE010E94E001E9CFDF91CF9108952091B3
:10052000E201260F3327331F21323105ECF42091ED
:100530005002FC0190E080E0243069F082E00895F0
:10054000A091E2012191AC014E535E4FA40FB52F53
:10055000B11D2C930196861798F38091E201680FE4
:100560006093E20180E0089581E0089510925002C6
:1005700081E080934F0210922A0261E082E10E94A2
:10058000EF0061E083E10E94EF00E9EBF0E08081A1
:100590008E7F808380818D7F808388E48093B80004
:1005A00085E48093BC000895CF93DF9391E090930E
:1005B0000B028823B9F0C091B800D091BA008091A5
:1005C000BC008A7B8093BC0060E082E10E94EF0067
:1005D00060E083E10E94EF000E94B602D093BA006F
:1005E000C093B800DF91CF910895CF92DF92EF9240
:1005F000FF920F931F93CF93DF93D091790281E005
:10060000D13208F09CC0C09178020E943B016B017E
:100610007C018091500281116CC082E08093500275
:1006200081E080934F028FEF80934E0210924D0233
:10063000D0934C02A8E5B2E0ECE2F2E080E0D813FF
:100640008DC010922B0280912B02CC0FC82BC0932F
:100650002B0280912A02813009F084C010922A0274
:100660000E943B016B017C0180912B028093BB00B7
:100670008091520290915302A0915402B091550280
:10068000892B8A2B8B2BA1F00E943B0100915202F7
:100690001091530220915402309155026C197D093A
:1006A0008E099F09061717072807390708F442C063
:1006B0008091BC0083FDD8CF85EC8093BC000E9464
:1006C0003B016B017C0180915002823009F44CC0E7
:1006D00080914E028F3F09F469C080914E028032B2
:1006E00009F466C080914E02803309F463C084E04F
:1006F00026C08091520290915302A0915402B09171
:100700005502892B8A2B8B2B09F483CF0E943B0146
:1007100000915202109153022091540230915502DF
:100720006C197D098E099F090617170728073907D5
:1007300008F06FCF809151020E94D40285E01092A0
:1007400057021092790210925602DF91CF911F91B9
:100750000F91FF90EF90DF90CF9008959D9191932E
:100760008F5F6DCF85EEA9CF809152029091530299
:10077000A0915402B0915502892B8A2B8B2B09F43E
:10078000A2CF0E943B01009152021091530220918E
:100790005402309155026C197D098E099F09061784
:1007A00017072807390708F08ECFC4CF80E0C7CFDE
:1007B00082E0C5CF83E0C3CF0895E0910A02809123
:1007C0000902E81730F4F0E0EE55FE4F808190E02A
:1007D00008958FEF9FEF089590910A02809109028A
:1007E0002FEF3FEF981748F4E92FF0E0EE55FE4F5A
:1007F000208130E09F5F90930A02C90108958091A3
:10080000090290910A02891B990B0895CF92DF92F9
:10081000EF92FF920F931F93CF93DF937C01CB0155
:100820008A0120915602222389F0EB016B01C40E4C
:10083000D51ECC15DD0569F06991D701ED91FC91CC
:100840000190F081E02DC7010995F3CF642F0E943C
:100850008F02C801DF91CF911F910F91FF90EF9010
:10086000DF90CF900895CF93DF931F92CDB7DEB77F
:100870006983209156022223F9F0209179022032D7
:1008800058F021E030E0FC013383228390E080E0E7
:100890000F90DF91CF91089580915702E82FF0E0FB
:1008A000E85AFD4F998190838F5F80935702809320
:1008B000790281E090E0ECCF61E0CE0101960E94E8
:1008C0008F02F7CF90E080E00895CF93DF93D62F8B
:1008D000C72F91E09093560290E490937802109283
:1008E00057021092790294E0899FB00111246A5F47
:1008F0007F4F87E193E00E94330460E087E193E05B
:100900000E94330460E087E193E00E9433046D2F7E
:1009100087E193E00E9433046C2F87E193E00E940B
:1009200033040E94F50291E0811190E0892FDF915C
:10093000CF910895CF93DF93C0E0D1E060E070E104
:100940008C2F0E946504811101C0D0E0CF5FC031BF
:10095000A9F78D2FDF91CF910895CF93C62F91E006
:100960009093560290E4909378021092570210925E
:100970007902682F87E193E00E9433046C2F87E1AE
:1009800093E00E9433040E94F50291E0811190E00F
:10099000892FCF910895FC0101900020E9F731974C
:1009A000AF01481B590BBC018AE792E00C9462012D
:1009B0008F929F92AF92BF920F931F93CF93DF932B
:1009C000CDB7DEB7A1970FB6F894DEBF0FBECDBF8F
:1009D00019A2423008F44AE08E010F5D1F4F842EA9
:1009E000912CB12CA12CA50194010E94A90AE62FFB
:1009F000B901CA01EA30F4F4E05DD801EE938D014B
:100A0000232B242B252B79F790E080E0109719F009
:100A1000CD010E94CB04A1960FB6F894DEBF0FBEA5
:100A2000CDBFDF91CF911F910F91BF90AF909F905D
:100A30008F900895E95CE1CFCF93DF930E944F023E
:100A4000EC0180E591E00E94CB048C0F9D1FDF91AB
:100A5000CF91089510920E020E949A0488E690E0C9
:100A60000C941C0585ED8093BC00809152029091FE
:100A70005302A0915402B09155020796A11DB11DD9
:100A800023E0B695A795979587952A95D1F720915C
:100A9000BC0024FD03C01092500208954091520200
:100AA000509153026091540270915502452B462B90
:100AB000472B69F30097A105B10541F02AE22A9579
:100AC000F1F700C00197A109B109E1CF809151026E
:100AD0000C94D4020F931F93CF93DF938C01EB01FF
:100AE0000E94930A8883C80101960E94930A898311
:100AF000CE01DF91CF911F910F910895FF920F9337
:100B00001F93CF93DF93EC018B01FB01F0800E94D8
:100B1000930AF81621F06F2DCE010E949B0AF8016E
:100B2000F1802196CE010E94930AF81621F06F2DD4
:100B3000CE010E949B0AC801DF91CF911F910F91B6
:100B4000FF9008951F920F920FB60F9211242F93CA
:100B50003F938F939F93AF93BF9380912202909185
:100B60002302A0912402B09125023091210223E0BA
:100B7000230F2D3758F50196A11DB11D2093210299
:100B80008093220290932302A0932402B093250223
:100B90008091260290912702A0912802B09129020B
:100BA0000196A11DB11D8093260290932702A09368
:100BB0002802B0932902BF91AF919F918F913F91ED
:100BC0002F910F900FBE0F901F90189526E8230FBE
:100BD0000296A11DB11DD2CF1F920F920FB60F9298
:100BE00011242F933F934F935F936F937F938F9332
:100BF0009F93AF93BF93EF93FF938AE792E00E9496
:100C0000E001FF91EF91BF91AF919F918F917F9103
:100C10006F915F914F913F912F910F900FBE0F9069
:100C20001F9018951F920F920FB60F9211242F93B9
:100C30008F939F93EF93FF93E0918A02F0918B0241
:100C40008081E0919002F091910282FD1BC0908121
:100C5000809193028F5F8F7320919402821741F0ED
:100C6000E0919302F0E0E658FD4F958F8093930258
:100C7000FF91EF919F918F912F910F900FBE0F9049
:100C80001F9018958081F4CF1F920F920FB60F928C
:100C900011242F933F934F935F936F937F938F9381
:100CA0009F93AF93BF93EF93FF938091B900887F99
:100CB000803609F44AC0F0F5883209F4A7C018F567
:100CC000803109F49BC0B8F4882309F4F9C0883056
:100CD00009F494C0FF91EF91BF91AF919F918F91D3
:100CE0007F916F915F914F913F912F910F900FBE28
:100CF0000F901F901895883109F488C0803251F701
:100D000080934E0214C0803409F49DC040F48033B7
:100D1000B9F38833F9F680934E0285ECB0C0803584
:100D200009F485C0883509F496C0883499F60E9484
:100D30003205D0CF883909F48CC038F5883729F0CE
:100D400050F4883611F0803729F683E08093500202
:100D50001092040257C0883809F47BC0803919F01A
:100D6000803809F0B7CF80910402803208F071C05A
:100D7000E091040281E08E0F809304028091BB0019
:100D8000F0E0EC51FE4F80833DC0803B39F0E0F451
:100D9000803A09F479C0883A09F09CCF84E08093C6
:100DA00050021092E3011092E201E0910702F091EB
:100DB000080209958091E20181110FC081E08093C2
:100DC000E2011092C20109C0803C09F4A6CF883C20
:100DD00009F4A3CF883B09F07DCFE091E30181E0E6
:100DE0008E0F8093E301F0E0EE53FE4F80818093FD
:100DF000BB009091E3018091E20129C080912B0218
:100E00008093BB0085EC8093BC0064CF90914D0231
:100E100080914C02981758F5E0914D0281E08E0FB9
:100E200080934D02F0E0E45DFD4F8081E9CFE091D9
:100E30004D0281E08E0F80934D028091BB00F0E067
:100E4000E45DFD4F808390914D0280914C02981794
:100E5000C8F285E8D8CFE0914D0281E08E0F8093F3
:100E60004D028091BB00F0E0E45DFD4F80838091F6
:100E70004F0281115CCF81E080932A0284EA809343
:100E8000BC001092500226CF85EC8093BC001092DB
:100E9000500280910402803230F4E0910402F0E0CC
:100EA000EC51FE4F10826091040270E0E091050267
:100EB000F091060284EE91E00995109204020ACFA7
:100EC00010924E0234CFEAE7F2E01382128288EEEB
:100ED00093E0A0E0B0E084839583A683B78320E30A
:100EE00031E03183208325EC30E03587248724EC02
:100EF00030E03787268720EC30E0318B208B21ECE7
:100F000030E0338B228B22EC30E0358B248B26ECC7
:100F100030E0378B268B118E128E138E148EE7E104
:100F2000F3E01382128284839583A683B78382E4DD
:100F300091E0918380830895789484B5826084BD24
:100F400084B5816084BD85B5826085BD85B58160CD
:100F500085BD80916E00816080936E00109281004B
:100F60008091810082608093810080918100816006
:100F700080938100809180008160809380008091C7
:100F8000B10084608093B1008091B0008160809353
:100F9000B00080917A00846080937A0080917A001A
:100FA000826080937A0080917A00816080937A00D9
:100FB00080917A00806880937A001092C100E0915D
:100FC0008A02F0918B0282E08083E0918602F091A8
:100FD00087021082E0918802F091890280E180838B
:100FE00010929202E0918E02F0918F0286E080834F
:100FF000E0918C02F0918D02808180618083E0918C
:101000008C02F0918D02808188608083E0918C0257
:10101000F0918D02808180688083E0918C02F09154
:101020008D0280818F7D808310920A0210920902C6
:1010300010925702109279020E94B60280E691E067
:10104000909308028093070281E691E09093060254
:101050008093050210920B0288EA91E6A0E0B0E0CE
:101060008093520290935302A0935402B09355027E
:1010700081E0809351020E949A04811140C00E9435
:101080002A05D4EB8D2E912CA12CB12C10E2C12E6F
:101090001EE4D12EE12CF12C0CE2202E01E0302EAA
:1010A00080E0482E80E0582E8AE792E00E94C0013E
:1010B000892B09F41FC28AE792E00E949E01609189
:1010C0001F028D3019F08A3009F001C2611112C07F
:1010D00090912002992371F0913009F0E4C0809141
:1010E0000F02803309F098C00E949A0481118FC0CA
:1010F0000E942A051092200210921F02D5CF60E1B3
:1011000080E00E94AD04882309F4B9CF69E78EEF2F
:101110000E94AD04882309F4B2CF60E280E00E940F
:10112000AD04882309F4ABCF0E943B014B015C0165
:1011300095E0C92ED12CE12CF12C0E943B016819BD
:1011400079098A099B09683E734081059105A8F3D6
:1011500021E0C21AD108E108F10858EE850E53E0EB
:10116000951EA11CB11CC114D104E104F10429F79E
:1011700060EA80E00E94AD04882309F480CF0E94D9
:101180009A04882309F47BCFC2E0D1E000E210E0AA
:10119000BE01C8010E946A05B8016C517F4FC801A9
:1011A00002960E946A05B8016A517F4FC8010496F1
:1011B0000E946A05888199818451954081399140C6
:1011C00010F0198218828A819B818451954081395F
:1011D000914010F01B821A828C819D818451954030
:1011E0008139914010F01D821C82085F1F4F2896A4
:1011F0000034110569F681E080930E028AEC90E0DC
:101200000E941C0585E990E00E941C053ACF8EE300
:1012100091E00E941C056ECF8F7D803509F043C0A0
:1012200082E091E00E941C0504E211E0C0E26C2E15
:10123000C1E07C2EC0E0D1E0F801819191918F0155
:10124000009711F00E94CB040E946A02F3016191A1
:101250003F0170E090E080E04AE00E94D8040E94E4
:101260006A026A817B8190E080E04AE00E94D804B3
:101270000E946A026C817D8190E080E04AE00E94D9
:10128000D8040E946A026E817F8190E080E04AE08B
:101290000E94D80480E591E00E94CB042896201695
:1012A000310651F627CF70910E02772309F422CF31
:1012B000933008F41FCF00910F028FEC800F843021
:1012C00008F018CF80911002803209F013CF002E61
:1012D000000C110BE801E197D0930D02C0930C02B2
:1012E000E1E1F2E082E02191203219F48F5F98135E
:1012F000FACF282F30E0A9014F5F5F4F94171506F2
:1013000009F048C0F901E15FFD4F40814F7D4E3447
:1013100091F04C3409F4FAC04535E1F5FE01A3E043
:10132000EE0FFF1FAA95E1F7E050FF4F80819181FA
:10133000978386830CC0FE01B3E0EE0FFF1FBA95C2
:10134000E1F7E050FF4F80819181958384830D52B6
:10135000110963E0000F111F6A95E1F773E0CC0FEC
:10136000DD1F7A95E1F7BE016E5F7E4FC8010E94D6
:101370007E05BE016C5F7E4FC80102960E947E050D
:10138000BE016A5F7E4FC80104960E947E058DE211
:1013900091E03FCFF901E15FFD4F10E000E08917D8
:1013A00018F5419120ED240F2A3098F48F5F5AE010
:1013B000509F9001519F300D11248901040F111D80
:1013C00047FD1A9500531109672F053B11053CF3A2
:1013D00091CEE82FF0E0E15FFD4F2191203209F03E
:1013E00089CE8F5F8917C8F3662309F483CE9813DB
:1013F00081CE053B11050CF07DCE0E949A04882316
:1014000009F476CE20E931E0D8010E94EA0AA5016C
:1014100094010E94CB0A2C5E3A4FFE0143E0EE0F8E
:10142000FF1F4A95E1F7E050FF4F31832083B90158
:1014300090E080E05CE0660F771F881F991F5A9547
:10144000D1F7605F784D8F4F9F4FA70196010E94A3
:10145000A90AB901FE01E05EFE4F80810E94650489
:10146000882309F445CECC0FDD1FCC5DDE4F88818B
:101470009981009711F00E94CB048EEF90E00E94BA
:101480004F02E0910C02F0910D02E05EFE4F608190
:1014900070E090E080E04AE00E94D80486EF90E09F
:1014A0000E944F02E0910C02F0910D0293E0EE0FCA
:1014B000FF1F9A95E1F7E050FF4F6081718190E046
:1014C00080E04AE00E94D80482EF90E0A2CE611151
:1014D000EBCDE0912002E03148F491E09E0F909333
:1014E0002002F0E0E15FFD4F8083DECD81E080935C
:1014F0001F02DACD4114510409F4D6CD0E94CC016B
:10150000882309F4D1CD0E940000CECDFE0183E0F6
:10151000EE0FFF1F8A95E1F7E050FF4F8081918128
:101520009383828314CFF999FECF92BD81BDF89A3F
:10153000992780B50895262FF999FECF1FBA92BD3D
:1015400081BD20BD0FB6F894FA9AF99A0FBE0196A4
:101550000895A1E21A2EAA1BBB1BFD010DC0AA1FF4
:10156000BB1FEE1FFF1FA217B307E407F50720F00C
:10157000A21BB30BE40BF50B661F771F881F991F87
:101580001A9469F760957095809590959B01AC01D0
:10159000BD01CF010895052E97FB1EF400940E9413
:1015A000E20A57FD07D00E94A90A07FC03D04EF4B7
:1015B0000C94E20A50954095309521953F4F4F4F3E
:1015C0005F4F089590958095709561957F4F8F4FEF
:1015D0009F4F08950E94F70AB7FF0895821B930B4F
:1015E0000895EE0FFF1F0590F491E02D0994A29F3E
:1015F000B001B39FC001A39F700D811D1124911DE7
:10160000B29F700D811D1124911D0895F894FFCF94
:10161000DC05000000000000DC0500000000000008
:10162000DC05000000000000DC05000000000000F8
:10163000000102035301670179018E0100000000DF
:10164000020262018F016F02C0019E01B20100001F
:101650000000330406046204DC03FF03EC03DD0333
:101660000D0A006C6566742065796520686F726983
:101670007A6F6E74616C006C6566742065796520A4
:10168000766572746963616C00726967687420655D
:10169000796520686F72697A6F6E74616C00726927
:1016A0006768742065796520766572746963616C1A
:0216B000000038
:00000001FF
