:020000040000FA
:100000000C94A1000C94C9000C94C9000C94C90074
:100010000C94C9000C94C9000C94C9000C94C9003C
:100020000C94C9000C94C9000C94C9000C94C9002C
:100030000C94C9000C94C9000C94C9000C94C9001C
:100040000C94EB040C94C9000C945B050C943505DE
:100050000C94C9000C94C9000C94C9000C94C900FC
:100060000C948D050C94C900493243204641554CEF
:10007000543A2063757420736572766F20706F77C1
:1000800065723B20636865636B20776972696E6790
:1000900020616E642072657365742E005245414480
:1000A0005920686F6C6420706F736974696F6E207B
:1000B0002D206F757470757473204F46462E205531
:1000C0007365204E65776C696E652E00484F4C4411
:1000D000494E4720616C6C20666F757220617420F8
:1000E000313530302075732028706F736974696FF3
:1000F0006E20393029004F464600000000002500E0
:1001000028002B0004040404040404040202020274
:1001100002020303030303030102040810204080CA
:100120000102040810200102040810200000000849
:1001300000020100000304070000000000000000AE
:10014000AC0611241FBECFEFD8E0DEBFCDBF11E05B
:10015000A0E0B1E0E6E6F0E102C005900D92AC321D
:10016000B107D9F722E0ACE2B1E001C01D92AB3992
:10017000B207E1F710E0C1EAD0E004C02197FE0128
:100180000E942B08C03AD107C9F70E94E5060C94DB
:1001900031080C94000090E0FC01E45DFE4F2491D6
:1001A000FC01E85EFE4F3491FC01EC5FFE4FE491F0
:1001B000EE23C9F0222339F0233001F1A8F42130D5
:1001C00019F1223029F1F0E0EE0FFF1FE650FF4F4A
:1001D000A591B4918FB7F894EC91611126C0309538
:1001E0003E233C938FBF08952730A9F02830C9F0F3
:1001F000243049F7809180008F7D03C0809180007A
:100200008F7780938000DFCF84B58F7784BDDBCF7D
:1002100084B58F7DFBCF8091B0008F778093B00045
:10022000D2CF8091B0008F7DF9CF3E2BDACF3FB790
:10023000F89480919E0190919F01A091A001B091AE
:10024000A10126B5A89B05C02F3F19F00196A11D5D
:10025000B11D3FBFBA2FA92F982F8827BC01CD0110
:10026000620F711D811D911D42E0660F771F881F6F
:10027000991F4A95D1F7089508950895AF92BF92B6
:10028000CF92DF92EF92FF920F931F93CF93DF9362
:100290006C017B018B01040F151FEB015E01AE1891
:1002A000BF08C017D10759F06991D601ED91FC91B3
:1002B0000190F081E02DC6010995892B79F7C501E0
:1002C000DF91CF911F910F91FF90EF90DF90CF9032
:1002D000BF90AF900895FC01538D448D252F30E0E1
:1002E000842F90E0821B930B541710F0CF96089543
:1002F00001970895FC01918D828D981761F0A28D70
:10030000AE0FBF2FB11D5D968C91928D9F5F9F7335
:10031000928F90E008958FEF9FEF0895FC01918DEB
:10032000828D981731F0828DE80FF11D858D90E058
:1003300008958FEF9FEF0895FC01918D228D892FF5
:1003400090E0805C9F4F821B91098F7399270895DD
:1003500082EF91E00E949C0121E0892B09F420E0CA
:10036000822F089580E090E0892B29F00E94A80157
:1003700081110C9400000895FC01A48DA80FB92FE1
:10038000B11DA35ABF4F2C91848D90E001968F73BD
:100390009927848FA689B7892C93A089B1898C91DC
:1003A000837080648C93938D848D981306C002882B
:1003B000F389E02D80818F7D80830895EF92FF92F5
:1003C0000F931F93CF93DF93EC0181E0888F9B8D78
:1003D0008C8D98131AC0E889F989808185FF15C032
:1003E0009FB7F894EE89FF896083E889F989808155
:1003F0008370806480839FBF81E090E0DF91CF9124
:100400001F910F91FF90EF900895F62E0B8D10E045
:100410000F5F1F4F0F731127E02E8C8D8E110CC0B4
:100420000FB607FCFACFE889F989808185FFF5CFFF
:10043000CE010E94BC01F1CFEB8DEC0FFD2FF11D21
:10044000E35AFF4FF0829FB7F8940B8FEA89FB893C
:1004500080818062CFCF0F931F93CF93DF938C0166
:10046000D0E0C0E0F801EC0FFD1F6491662341F07D
:1004700082EF91E00E94DE01892B11F02196F2CFEC
:1004800042E050E068E271E082EF91E00E943E01BC
:100490008C0F9D1FDF91CF911F910F910895CF93E6
:1004A000DF93EC01888D8823B9F0AA89BB89E8899C
:1004B000F9898C9185FD03C0808186FD0DC00FB642
:1004C00007FCF7CF8C9185FFF2CF808185FFEDCFC0
:1004D000CE010E94BC01E9CFDF91CF910895209118
:1004E0006C01260F3327331F21323105ECF42091A4
:1004F000C801FC0190E080E0243069F082E00895BA
:10050000A0916C012191AC01445B5E4FA40FB52F0B
:10051000B11D2C930196861798F380916C01680F9A
:1005200060936C0180E0089581E008951092C80105
:1005300081E08093C7011092A20161E082E10E94F4
:10054000CB0061E083E10E94CB00E9EBF0E0808129
:100550008E7F808380818D7F808388E48093B80044
:1005600085E48093BC000895CF93DF9391E090934E
:1005700095018823B9F0C091B800D091BA0080915C
:10058000BC008A7B8093BC0060E082E10E94CB00CB
:1005900060E083E10E94CB000E949602D093BA00F3
:1005A000C093B800DF91CF910895CF92DF92EF9280
:1005B000FF920F931F93CF93DF93D091F10181E0CE
:1005C000D13208F09CC0C091F0010E9417016B016C
:1005D0007C018091C80181116CC082E08093C801C8
:1005E00081E08093C7018FEF8093C6011092C5010F
:1005F000D093C401A0EDB1E0E4EAF1E080E0D813CB
:100600008DC01092A3018091A301CC0FC82BC09381
:10061000A3018091A201813009F084C01092A2014F
:100620000E9417016B017C018091A3018093BB00A4
:100630008091CA019091CB01A091CC01B091CD01E4
:10064000892B8A2B8B2BA1F00E9417010091CA01E4
:100650001091CB012091CC013091CD016C197D0915
:100660008E099F09061717072807390708F442C0A3
:100670008091BC0083FDD8CF85EC8093BC000E94A4
:1006800017016B017C018091C801823009F44CC0D4
:100690008091C6018F3F09F469C08091C601803204
:1006A00009F466C08091C601803309F463C084E018
:1006B00026C08091CA019091CB01A091CC01B0914C
:1006C000CD01892B8A2B8B2B09F483CF0E94170134
:1006D0000091CA011091CB012091CC013091CD0144
:1006E0006C197D098E099F09061717072807390716
:1006F00008F06FCF8091C9010E94B40285E010928A
:10070000CF011092F1011092CE01DF91CF911F9194
:100710000F91FF90EF90DF90CF9008959D9191936E
:100720008F5F6DCF85EEA9CF8091CA019091CB01EB
:10073000A091CC01B091CD01892B8A2B8B2B09F490
:10074000A2CF0E9417010091CA011091CB01209104
:10075000CC013091CD016C197D098E099F090617D6
:1007600017072807390708F08ECFC4CF80E0C7CF1E
:1007700082E0C5CF83E0C3CF0895E09194018091DA
:100780009301E81730F4F0E0E45DFE4F808190E0E3
:1007900008958FEF9FEF08959091940180919301B8
:1007A0002FEF3FEF981748F4E92FF0E0E45DFE4F9C
:1007B000208130E09F5F90939401C901089580915A
:1007C000930190919401891B990B0895CF92DF9228
:1007D000EF92FF920F931F93CF93DF937C01CB0196
:1007E0008A012091CE01222389F0EB016B01C40E16
:1007F000D51ECC15DD0569F06991D701ED91FC910D
:100800000190F081E02DC7010995F3CF642F0E947C
:100810006F02C801DF91CF911F910F91FF90EF9070
:10082000DF90CF900895CF93DF931F92CDB7DEB7BF
:1008300069832091CE012223F9F02091F101203229
:1008400058F021E030E0FC013383228390E080E027
:100850000F90DF91CF9108958091CF01E82FF0E0C4
:10086000E053FE4F998190838F5F8093CF018093F7
:10087000F10181E090E0ECCF61E0CE0101960E94B1
:100880006F02F7CF90E080E00895CF93DF93D62FEB
:10089000C72F91E09093CE0190E49093F0011092D5
:1008A000CF011092F10194E0899FB00111246A5F99
:1008B0007F4F8FE892E00E94130460E08FE892E09F
:1008C0000E94130460E08FE892E00E9413046D2FF1
:1008D0008FE892E00E9413046C2F8FE892E00E9450
:1008E00013040E94D50291E0811190E0892FDF91DD
:1008F000CF910895CF93DF93C0E0D1E060E070E145
:100900008C2F0E944504811101C0D0E0CF5FC0311F
:10091000A9F78D2FDF91CF910895109296010E9433
:100920007A0488E690E00C942B02CF93C62F91E0D6
:100930009093CE0190E49093F0011092CF01109229
:10094000F101682F8FE892E00E9413046C2F8FE86A
:1009500092E00E9413040E94D50291E0811190E080
:10096000892FCF91089585ED8093BC008091CA01B5
:100970009091CB01A091CC01B091CD010796A11D22
:10098000B11D23E0B695A795979587952A95D1F740
:100990002091BC0024FD03C01092C801089540912D
:1009A000CA015091CB016091CC017091CD01452BD2
:1009B000462B472B69F30097A105B10541F02AE2C8
:1009C0002A95F1F700C00197A109B109E1CF809103
:1009D000C9010C94B4021F920F920FB60F9211240A
:1009E0002F933F938F939F93AF93BF9380919A01DF
:1009F00090919B01A0919C01B0919D013091990132
:100A000023E0230F2D3758F50196A11DB11D20932A
:100A1000990180939A0190939B01A0939C01B093BC
:100A20009D0180919E0190919F01A091A001B091A4
:100A3000A1010196A11DB11D80939E0190939F017C
:100A4000A093A001B093A101BF91AF919F918F910D
:100A50003F912F910F900FBE0F901F90189526E891
:100A6000230F0296A11DB11DD2CF1F920F920FB678
:100A70000F9211242F933F934F935F936F937F9324
:100A80008F939F93AF93BF93EF93FF9382EF91E088
:100A90000E94BC01FF91EF91BF91AF919F918F9107
:100AA0007F916F915F914F913F912F910F900FBE6A
:100AB0000F901F9018951F920F920FB60F9211244E
:100AC0002F938F939F93EF93FF93E0910202F09106
:100AD00003028081E0910802F091090282FD1BC0AF
:100AE000908180910B028F5F8F7320910C0282178F
:100AF00041F0E0910B02F0E0EE50FE4F958F8093B5
:100B00000B02FF91EF919F918F912F910F900FBE4C
:100B10000F901F9018958081F4CF1F920F920FB6FF
:100B20000F9211242F933F934F935F936F937F9373
:100B30008F939F93AF93BF93EF93FF938091B900EF
:100B4000887F803609F44AC0F0F5883209F4A7C0DE
:100B500018F5803109F49BC0B8F4882309F4F9C072
:100B6000883009F494C0FF91EF91BF91AF919F91AC
:100B70008F917F916F915F914F913F912F910F9046
:100B80000FBE0F901F901895883109F488C08032ED
:100B900051F78093C60114C0803409F49DC040F41D
:100BA0008033B9F38833F9F68093C60185ECB0C081
:100BB000803509F485C0883509F496C0883499F6E3
:100BC0000E94B304D0CF883909F48CC038F5883737
:100BD00029F050F4883611F0803729F683E08093AD
:100BE000C80110928E0157C0883809F47BC0803943
:100BF00019F0803809F0B7CF80918E01803208F06B
:100C000071C0E0918E0181E08E0F80938E01809102
:100C1000BB00F0E0E259FE4F80833DC0803B39F0DD
:100C2000E0F4803A09F479C0883A09F09CCF84E076
:100C30008093C80110926D0110926C01E0919101B6
:100C4000F0919201099580916C0181110FC081E0B2
:100C500080936C0110924C0109C0803C09F4A6CF2E
:100C6000883C09F4A3CF883B09F07DCFE0916D016A
:100C700081E08E0F80936D01F0E0E45BFE4F808198
:100C80008093BB0090916D0180916C0129C080918F
:100C9000A3018093BB0085EC8093BC0064CF90914E
:100CA000C5018091C401981758F5E091C50181E014
:100CB0008E0F8093C501F0E0EC55FE4F8081E9CFA7
:100CC000E091C50181E08E0F8093C5018091BB004A
:100CD000F0E0EC55FE4F80839091C5018091C401F6
:100CE0009817C8F285E8D8CFE091C50181E08E0F52
:100CF0008093C5018091BB00F0E0EC55FE4F8083EE
:100D00008091C70181115CCF81E08093A20184EAC8
:100D10008093BC001092C80126CF85EC8093BC0064
:100D20001092C80180918E01803230F4E0918E01E2
:100D3000F0E0E259FE4F108260918E0170E0E09188
:100D40008F01F09190018EE691E0099510928E014D
:100D50000ACF1092C60134CFE2EFF1E01382128283
:100D600088EE93E0A0E0B0E084839583A683B78308
:100D700028E031E03183208325EC30E0358724877B
:100D800024EC30E03787268720EC30E0318B208B55
:100D900021EC30E0338B228B22EC30E0358B248B3E
:100DA00026EC30E0378B268B118E128E138E148E2C
:100DB000EFE8F2E01382128284839583A683B783DF
:100DC0008AE191E0918380830895789484B582606C
:100DD00084BD84B5816084BD85B5826085BD85B5DF
:100DE000816085BD80916E00816080936E0010925D
:100DF00081008091810082608093810080918100D8
:100E00008160809381008091800081608093800068
:100E10008091B10084608093B1008091B0008160C6
:100E20008093B00080917A00846080937A008091F2
:100E30007A00826080937A0080917A00816080934A
:100E40007A0080917A00806880937A001092C100C5
:100E5000E0910202F091030282E08083E091FE01C2
:100E6000F091FF011082E0910002F091010280E117
:100E7000808310920A02E0910602F091070286E058
:100E80008083E0910402F09105028081806180837B
:100E9000E0910402F0910502808188608083E091F6
:100EA0000402F0910502808180688083E091040251
:100EB000F091050280818F7D8083109294011092C1
:100EC00093011092CF011092F1010E9496028CE3DF
:100ED00091E090939201809391018DE391E0909342
:100EE000900180938F011092950188EA91E6A0E02D
:100EF000B0E08093CA019093CB01A093CC01B09352
:100F0000CD0181E08093C9010E947A04811126C03D
:100F10000E948D0400E010E082EF91E00E949C01AD
:100F2000892B09F48CC082EF91E00E947A019091A4
:100F300098018D3019F08A3009F078C0913059F459
:100F400080919701803309F058C00E947A04811182
:100F50004FC00E948D0410929801DECF60E180E0C6
:100F60000E9495048823A1F269E78EEF0E94950400
:100F7000882371F260E280E00E949504882341F2A8
:100F80000E9417014B015C0185E0C82ED12CE12C99
:100F9000F12C0E941701681979098A099B09683E9A
:100FA000734081059105A8F321E0C21AD108E10838
:100FB000F10888EE880E83E0981EA11CB11CC114B4
:100FC000D104E104F10429F760EA80E00E9495046D
:100FD000882309F49DCF0E947A04882309F498CFCE
:100FE00081E0809396018CE990E00E942B0292CFE1
:100FF00086EF90E00E942B02AECF9091960199234C
:1010000009F4A9CF813309F0A6CFC0E0D1E063E3B2
:1010100071E089910E944504882309F49ACF81E008
:10102000C430D807A1F78CEC90E0E4CF809397010F
:10103000923008F071CF9F5F909398016DCF0115AA
:10104000110509F469CF0E94A801882309F464CF2F
:101050000E94000061CFEE0FFF1F0590F491E02D7C
:101060000994F894FFCF08090C0D00000000DE0180
:101070003E016B014F029C017A018E0100000000CD
:101080001304E6034204BC03DF03CC03BD030D0AD3
:0210900000005E
:107E0000112484B714BE81FFF0D085E080938100F7
:107E100082E08093C00088E18093C10086E0809377
:107E2000C20080E18093C4008EE0C9D0259A86E02C
:107E300020E33CEF91E0309385002093840096BBD3
:107E4000B09BFECF1D9AA8958150A9F7CC24DD24C4
:107E500088248394B5E0AB2EA1E19A2EF3E0BF2EE7
:107E6000A2D0813461F49FD0082FAFD0023811F036
:107E7000013811F484E001C083E08DD089C08234E0
:107E800011F484E103C0853419F485E0A6D080C0E4
:107E9000853579F488D0E82EFF2485D0082F10E0AE
:107EA000102F00270E291F29000F111F8ED06801E7
:107EB0006FC0863521F484E090D080E0DECF843638
:107EC00009F040C070D06FD0082F6DD080E0C81688
:107ED00080E7D80618F4F601B7BEE895C0E0D1E017
:107EE00062D089930C17E1F7F0E0CF16F0E7DF06D8
:107EF00018F0F601B7BEE89568D007B600FCFDCFD4
:107F0000A601A0E0B1E02C9130E011968C91119780
:107F100090E0982F8827822B932B1296FA010C0160
:107F200087BEE89511244E5F5F4FF1E0A038BF0790
:107F300051F7F601A7BEE89507B600FCFDCF97BE46
:107F4000E89526C08437B1F42ED02DD0F82E2BD052
:107F50003CD0F601EF2C8F010F5F1F4F84911BD097
:107F6000EA94F801C1F70894C11CD11CFA94CF0C13
:107F7000D11C0EC0853739F428D08EE10CD085E9AC
:107F80000AD08FE07ACF813511F488E018D01DD067
:107F900080E101D065CF982F8091C00085FFFCCF94
:107FA0009093C60008958091C00087FFFCCF809118
:107FB000C00084FD01C0A8958091C6000895E0E648
:107FC000F0E098E1908380830895EDDF803219F02E
:107FD00088E0F5DFFFCF84E1DECF1F93182FE3DFCA
:107FE0001150E9F7F2DF1F91089580E0E8DFEE27F6
:047FF000FF270994CA
:027FFE00040479
:00000001FF
